{
  "_format": "hh-sol-artifact-1",
  "contractName": "FreshmanYear",
  "sourceName": "contracts/FreshmanYear.sol",
  "abi": [
    {
      "inputs": [
        {
          "internalType": "string",
          "name": "_name",
          "type": "string"
        },
        {
          "internalType": "string",
          "name": "_symbol",
          "type": "string"
        },
        {
          "internalType": "string",
          "name": "_initBaseURI",
          "type": "string"
        }
      ],
      "stateMutability": "nonpayable",
      "type": "constructor"
    },
    {
      "anonymous": false,
      "inputs": [
        {
          "indexed": true,
          "internalType": "address",
          "name": "owner",
          "type": "address"
        },
        {
          "indexed": true,
          "internalType": "address",
          "name": "approved",
          "type": "address"
        },
        {
          "indexed": true,
          "internalType": "uint256",
          "name": "tokenId",
          "type": "uint256"
        }
      ],
      "name": "Approval",
      "type": "event"
    },
    {
      "anonymous": false,
      "inputs": [
        {
          "indexed": true,
          "internalType": "address",
          "name": "owner",
          "type": "address"
        },
        {
          "indexed": true,
          "internalType": "address",
          "name": "operator",
          "type": "address"
        },
        {
          "indexed": false,
          "internalType": "bool",
          "name": "approved",
          "type": "bool"
        }
      ],
      "name": "ApprovalForAll",
      "type": "event"
    },
    {
      "anonymous": false,
      "inputs": [
        {
          "indexed": true,
          "internalType": "contract IERC20",
          "name": "token",
          "type": "address"
        },
        {
          "indexed": false,
          "internalType": "address",
          "name": "to",
          "type": "address"
        },
        {
          "indexed": false,
          "internalType": "uint256",
          "name": "amount",
          "type": "uint256"
        }
      ],
      "name": "ERC20PaymentReleased",
      "type": "event"
    },
    {
      "anonymous": false,
      "inputs": [
        {
          "indexed": true,
          "internalType": "address",
          "name": "previousOwner",
          "type": "address"
        },
        {
          "indexed": true,
          "internalType": "address",
          "name": "newOwner",
          "type": "address"
        }
      ],
      "name": "OwnershipTransferred",
      "type": "event"
    },
    {
      "anonymous": false,
      "inputs": [
        {
          "indexed": false,
          "internalType": "address",
          "name": "account",
          "type": "address"
        },
        {
          "indexed": false,
          "internalType": "uint256",
          "name": "shares",
          "type": "uint256"
        }
      ],
      "name": "PayeeAdded",
      "type": "event"
    },
    {
      "anonymous": false,
      "inputs": [
        {
          "indexed": false,
          "internalType": "address",
          "name": "from",
          "type": "address"
        },
        {
          "indexed": false,
          "internalType": "uint256",
          "name": "amount",
          "type": "uint256"
        }
      ],
      "name": "PaymentReceived",
      "type": "event"
    },
    {
      "anonymous": false,
      "inputs": [
        {
          "indexed": false,
          "internalType": "address",
          "name": "to",
          "type": "address"
        },
        {
          "indexed": false,
          "internalType": "uint256",
          "name": "amount",
          "type": "uint256"
        }
      ],
      "name": "PaymentReleased",
      "type": "event"
    },
    {
      "anonymous": false,
      "inputs": [
        {
          "indexed": true,
          "internalType": "address",
          "name": "from",
          "type": "address"
        },
        {
          "indexed": true,
          "internalType": "address",
          "name": "to",
          "type": "address"
        },
        {
          "indexed": true,
          "internalType": "uint256",
          "name": "tokenId",
          "type": "uint256"
        }
      ],
      "name": "Transfer",
      "type": "event"
    },
    {
      "inputs": [
        {
          "internalType": "address",
          "name": "to",
          "type": "address"
        },
        {
          "internalType": "uint256",
          "name": "tokenId",
          "type": "uint256"
        }
      ],
      "name": "approve",
      "outputs": [],
      "stateMutability": "nonpayable",
      "type": "function"
    },
    {
      "inputs": [
        {
          "internalType": "address",
          "name": "owner",
          "type": "address"
        }
      ],
      "name": "balanceOf",
      "outputs": [
        {
          "internalType": "uint256",
          "name": "",
          "type": "uint256"
        }
      ],
      "stateMutability": "view",
      "type": "function"
    },
    {
      "inputs": [],
      "name": "baseURI",
      "outputs": [
        {
          "internalType": "string",
          "name": "",
          "type": "string"
        }
      ],
      "stateMutability": "view",
      "type": "function"
    },
    {
      "inputs": [],
      "name": "contractURI",
      "outputs": [
        {
          "internalType": "string",
          "name": "",
          "type": "string"
        }
      ],
      "stateMutability": "view",
      "type": "function"
    },
    {
      "inputs": [
        {
          "internalType": "uint256",
          "name": "tokenId",
          "type": "uint256"
        }
      ],
      "name": "getApproved",
      "outputs": [
        {
          "internalType": "address",
          "name": "",
          "type": "address"
        }
      ],
      "stateMutability": "view",
      "type": "function"
    },
    {
      "inputs": [],
      "name": "getPrice",
      "outputs": [
        {
          "internalType": "uint256",
          "name": "",
          "type": "uint256"
        }
      ],
      "stateMutability": "view",
      "type": "function"
    },
    {
      "inputs": [
        {
          "internalType": "uint256[]",
          "name": "gifts",
          "type": "uint256[]"
        },
        {
          "internalType": "address[]",
          "name": "recipient",
          "type": "address[]"
        }
      ],
      "name": "gift",
      "outputs": [],
      "stateMutability": "nonpayable",
      "type": "function"
    },
    {
      "inputs": [
        {
          "internalType": "address",
          "name": "owner",
          "type": "address"
        },
        {
          "internalType": "address",
          "name": "operator",
          "type": "address"
        }
      ],
      "name": "isApprovedForAll",
      "outputs": [
        {
          "internalType": "bool",
          "name": "",
          "type": "bool"
        }
      ],
      "stateMutability": "view",
      "type": "function"
    },
    {
      "inputs": [],
      "name": "maxMint",
      "outputs": [
        {
          "internalType": "uint256",
          "name": "",
          "type": "uint256"
        }
      ],
      "stateMutability": "view",
      "type": "function"
    },
    {
      "inputs": [],
      "name": "maxSupply",
      "outputs": [
        {
          "internalType": "uint256",
          "name": "",
          "type": "uint256"
        }
      ],
      "stateMutability": "view",
      "type": "function"
    },
    {
      "inputs": [
        {
          "internalType": "uint256",
          "name": "_tokenAmount",
          "type": "uint256"
        }
      ],
      "name": "mintPublic",
      "outputs": [],
      "stateMutability": "payable",
      "type": "function"
    },
    {
      "inputs": [
        {
          "internalType": "uint256",
          "name": "_tokenAmount",
          "type": "uint256"
        }
      ],
      "name": "mintWhitelist",
      "outputs": [],
      "stateMutability": "payable",
      "type": "function"
    },
    {
      "inputs": [],
      "name": "name",
      "outputs": [
        {
          "internalType": "string",
          "name": "",
          "type": "string"
        }
      ],
      "stateMutability": "view",
      "type": "function"
    },
    {
      "inputs": [
        {
          "internalType": "address",
          "name": "",
          "type": "address"
        }
      ],
      "name": "onWhitelist",
      "outputs": [
        {
          "internalType": "uint256",
          "name": "",
          "type": "uint256"
        }
      ],
      "stateMutability": "view",
      "type": "function"
    },
    {
      "inputs": [],
      "name": "owner",
      "outputs": [
        {
          "internalType": "address",
          "name": "",
          "type": "address"
        }
      ],
      "stateMutability": "view",
      "type": "function"
    },
    {
      "inputs": [
        {
          "internalType": "uint256",
          "name": "tokenId",
          "type": "uint256"
        }
      ],
      "name": "ownerOf",
      "outputs": [
        {
          "internalType": "address",
          "name": "",
          "type": "address"
        }
      ],
      "stateMutability": "view",
      "type": "function"
    },
    {
      "inputs": [
        {
          "internalType": "uint256",
          "name": "index",
          "type": "uint256"
        }
      ],
      "name": "payee",
      "outputs": [
        {
          "internalType": "address",
          "name": "",
          "type": "address"
        }
      ],
      "stateMutability": "view",
      "type": "function"
    },
    {
      "inputs": [],
      "name": "publicStatus",
      "outputs": [
        {
          "internalType": "bool",
          "name": "",
          "type": "bool"
        }
      ],
      "stateMutability": "view",
      "type": "function"
    },
    {
      "inputs": [
        {
          "internalType": "address payable",
          "name": "account",
          "type": "address"
        }
      ],
      "name": "release",
      "outputs": [],
      "stateMutability": "nonpayable",
      "type": "function"
    },
    {
      "inputs": [
        {
          "internalType": "contract IERC20",
          "name": "token",
          "type": "address"
        },
        {
          "internalType": "address",
          "name": "account",
          "type": "address"
        }
      ],
      "name": "release",
      "outputs": [],
      "stateMutability": "nonpayable",
      "type": "function"
    },
    {
      "inputs": [
        {
          "internalType": "contract IERC20",
          "name": "token",
          "type": "address"
        },
        {
          "internalType": "address",
          "name": "account",
          "type": "address"
        }
      ],
      "name": "released",
      "outputs": [
        {
          "internalType": "uint256",
          "name": "",
          "type": "uint256"
        }
      ],
      "stateMutability": "view",
      "type": "function"
    },
    {
      "inputs": [
        {
          "internalType": "address",
          "name": "account",
          "type": "address"
        }
      ],
      "name": "released",
      "outputs": [
        {
          "internalType": "uint256",
          "name": "",
          "type": "uint256"
        }
      ],
      "stateMutability": "view",
      "type": "function"
    },
    {
      "inputs": [],
      "name": "renounceOwnership",
      "outputs": [],
      "stateMutability": "nonpayable",
      "type": "function"
    },
    {
      "inputs": [
        {
          "internalType": "address",
          "name": "from",
          "type": "address"
        },
        {
          "internalType": "address",
          "name": "to",
          "type": "address"
        },
        {
          "internalType": "uint256",
          "name": "tokenId",
          "type": "uint256"
        }
      ],
      "name": "safeTransferFrom",
      "outputs": [],
      "stateMutability": "nonpayable",
      "type": "function"
    },
    {
      "inputs": [
        {
          "internalType": "address",
          "name": "from",
          "type": "address"
        },
        {
          "internalType": "address",
          "name": "to",
          "type": "address"
        },
        {
          "internalType": "uint256",
          "name": "tokenId",
          "type": "uint256"
        },
        {
          "internalType": "bytes",
          "name": "_data",
          "type": "bytes"
        }
      ],
      "name": "safeTransferFrom",
      "outputs": [],
      "stateMutability": "nonpayable",
      "type": "function"
    },
    {
      "inputs": [
        {
          "internalType": "address",
          "name": "operator",
          "type": "address"
        },
        {
          "internalType": "bool",
          "name": "approved",
          "type": "bool"
        }
      ],
      "name": "setApprovalForAll",
      "outputs": [],
      "stateMutability": "nonpayable",
      "type": "function"
    },
    {
      "inputs": [
        {
          "internalType": "uint256",
          "name": "_newMaxMintAmount",
          "type": "uint256"
        }
      ],
      "name": "setMax",
      "outputs": [],
      "stateMutability": "nonpayable",
      "type": "function"
    },
    {
      "inputs": [
        {
          "internalType": "bool",
          "name": "_pstatus",
          "type": "bool"
        }
      ],
      "name": "setP",
      "outputs": [],
      "stateMutability": "nonpayable",
      "type": "function"
    },
    {
      "inputs": [
        {
          "internalType": "uint256",
          "name": "_newPrice",
          "type": "uint256"
        }
      ],
      "name": "setPrice",
      "outputs": [],
      "stateMutability": "nonpayable",
      "type": "function"
    },
    {
      "inputs": [
        {
          "internalType": "string",
          "name": "_newBaseURI",
          "type": "string"
        }
      ],
      "name": "setURI",
      "outputs": [],
      "stateMutability": "nonpayable",
      "type": "function"
    },
    {
      "inputs": [
        {
          "internalType": "bool",
          "name": "_wlstatus",
          "type": "bool"
        }
      ],
      "name": "setWL",
      "outputs": [],
      "stateMutability": "nonpayable",
      "type": "function"
    },
    {
      "inputs": [
        {
          "internalType": "address",
          "name": "account",
          "type": "address"
        }
      ],
      "name": "shares",
      "outputs": [
        {
          "internalType": "uint256",
          "name": "",
          "type": "uint256"
        }
      ],
      "stateMutability": "view",
      "type": "function"
    },
    {
      "inputs": [
        {
          "internalType": "bytes4",
          "name": "interfaceId",
          "type": "bytes4"
        }
      ],
      "name": "supportsInterface",
      "outputs": [
        {
          "internalType": "bool",
          "name": "",
          "type": "bool"
        }
      ],
      "stateMutability": "view",
      "type": "function"
    },
    {
      "inputs": [],
      "name": "symbol",
      "outputs": [
        {
          "internalType": "string",
          "name": "",
          "type": "string"
        }
      ],
      "stateMutability": "view",
      "type": "function"
    },
    {
      "inputs": [
        {
          "internalType": "uint256",
          "name": "index",
          "type": "uint256"
        }
      ],
      "name": "tokenByIndex",
      "outputs": [
        {
          "internalType": "uint256",
          "name": "",
          "type": "uint256"
        }
      ],
      "stateMutability": "view",
      "type": "function"
    },
    {
      "inputs": [
        {
          "internalType": "address",
          "name": "owner",
          "type": "address"
        },
        {
          "internalType": "uint256",
          "name": "index",
          "type": "uint256"
        }
      ],
      "name": "tokenOfOwnerByIndex",
      "outputs": [
        {
          "internalType": "uint256",
          "name": "",
          "type": "uint256"
        }
      ],
      "stateMutability": "view",
      "type": "function"
    },
    {
      "inputs": [
        {
          "internalType": "uint256",
          "name": "tokenId",
          "type": "uint256"
        }
      ],
      "name": "tokenURI",
      "outputs": [
        {
          "internalType": "string",
          "name": "",
          "type": "string"
        }
      ],
      "stateMutability": "view",
      "type": "function"
    },
    {
      "inputs": [
        {
          "internalType": "contract IERC20",
          "name": "token",
          "type": "address"
        }
      ],
      "name": "totalReleased",
      "outputs": [
        {
          "internalType": "uint256",
          "name": "",
          "type": "uint256"
        }
      ],
      "stateMutability": "view",
      "type": "function"
    },
    {
      "inputs": [],
      "name": "totalReleased",
      "outputs": [
        {
          "internalType": "uint256",
          "name": "",
          "type": "uint256"
        }
      ],
      "stateMutability": "view",
      "type": "function"
    },
    {
      "inputs": [],
      "name": "totalShares",
      "outputs": [
        {
          "internalType": "uint256",
          "name": "",
          "type": "uint256"
        }
      ],
      "stateMutability": "view",
      "type": "function"
    },
    {
      "inputs": [],
      "name": "totalSupply",
      "outputs": [
        {
          "internalType": "uint256",
          "name": "",
          "type": "uint256"
        }
      ],
      "stateMutability": "view",
      "type": "function"
    },
    {
      "inputs": [
        {
          "internalType": "address",
          "name": "from",
          "type": "address"
        },
        {
          "internalType": "address",
          "name": "to",
          "type": "address"
        },
        {
          "internalType": "uint256",
          "name": "tokenId",
          "type": "uint256"
        }
      ],
      "name": "transferFrom",
      "outputs": [],
      "stateMutability": "nonpayable",
      "type": "function"
    },
    {
      "inputs": [
        {
          "internalType": "address",
          "name": "newOwner",
          "type": "address"
        }
      ],
      "name": "transferOwnership",
      "outputs": [],
      "stateMutability": "nonpayable",
      "type": "function"
    },
    {
      "inputs": [
        {
          "internalType": "address[]",
          "name": "_addresses",
          "type": "address[]"
        }
      ],
      "name": "whitelistSet",
      "outputs": [],
      "stateMutability": "nonpayable",
      "type": "function"
    },
    {
      "inputs": [],
      "name": "whitelistStatus",
      "outputs": [
        {
          "internalType": "bool",
          "name": "",
          "type": "bool"
        }
      ],
      "stateMutability": "view",
      "type": "function"
    },
    {
      "inputs": [],
      "name": "withdraw",
      "outputs": [],
      "stateMutability": "payable",
      "type": "function"
    },
    {
      "stateMutability": "payable",
      "type": "receive"
    }
  ],
  "bytecode": "0x60806040526101316014556000601560006101000a81548160ff0219169083151502179055506000601560016101000a81548160ff02191690831515021790555067016345785d8a0000601755600a60185560405180604001604052807367b6a6a88de218114ea2a58f5970ccc71215624773ffffffffffffffffffffffffffffffffffffffff1673ffffffffffffffffffffffffffffffffffffffff168152602001731ec0ea2c067e5e87fca9c54e4eef14041018978973ffffffffffffffffffffffffffffffffffffffff1673ffffffffffffffffffffffffffffffffffffffff168152506019906002620000f8929190620007d5565b506040518060400160405280603260ff168152602001603260ff16815250601a9060026200012892919062000864565b503480156200013657600080fd5b5060405162006bf738038062006bf783398181016040528101906200015c9190620009dd565b6019805480602002602001604051908101604052809291908181526020018280548015620001e057602002820191906000526020600020905b8160009054906101000a900473ffffffffffffffffffffffffffffffffffffffff1673ffffffffffffffffffffffffffffffffffffffff168152602001906001019080831162000195575b5050505050601a8054806020026020016040519081016040528092919081815260200182805480156200023357602002820191906000526020600020905b8154815260200190600101908083116200021e575b50505050508484816000908051906020019062000252929190620008bb565b5080600190805190602001906200026b929190620008bb565b5050506200028e62000282620003f860201b60201c565b6200040060201b60201c565b8051825114620002d5576040517f08c379a0000000000000000000000000000000000000000000000000000000008152600401620002cc9062000d0f565b60405180910390fd5b60008251116200031c576040517f08c379a0000000000000000000000000000000000000000000000000000000008152600401620003139062000d53565b60405180910390fd5b60005b8251811015620003d357620003bd83828151811062000367577f4e487b7100000000000000000000000000000000000000000000000000000000600052603260045260246000fd5b6020026020010151838381518110620003a9577f4e487b7100000000000000000000000000000000000000000000000000000000600052603260045260246000fd5b6020026020010151620004c660201b60201c565b8080620003ca9062000f16565b9150506200031f565b5050506001601281905550620003ef816200070060201b60201c565b50505062000ff1565b600033905090565b6000600a60009054906101000a900473ffffffffffffffffffffffffffffffffffffffff16905081600a60006101000a81548173ffffffffffffffffffffffffffffffffffffffff021916908373ffffffffffffffffffffffffffffffffffffffff1602179055508173ffffffffffffffffffffffffffffffffffffffff168173ffffffffffffffffffffffffffffffffffffffff167f8be0079c531659141344cd1fd0a4f28419497f9722a3daafe3b4186f6b6457e060405160405180910390a35050565b600073ffffffffffffffffffffffffffffffffffffffff168273ffffffffffffffffffffffffffffffffffffffff16141562000539576040517f08c379a0000000000000000000000000000000000000000000000000000000008152600401620005309062000ccb565b60405180910390fd5b600081116200057f576040517f08c379a0000000000000000000000000000000000000000000000000000000008152600401620005769062000d75565b60405180910390fd5b6000600d60008473ffffffffffffffffffffffffffffffffffffffff1673ffffffffffffffffffffffffffffffffffffffff168152602001908152602001600020541462000604576040517f08c379a0000000000000000000000000000000000000000000000000000000008152600401620005fb9062000d31565b60405180910390fd5b600f829080600181540180825580915050600190039060005260206000200160009091909190916101000a81548173ffffffffffffffffffffffffffffffffffffffff021916908373ffffffffffffffffffffffffffffffffffffffff16021790555080600d60008473ffffffffffffffffffffffffffffffffffffffff1673ffffffffffffffffffffffffffffffffffffffff1681526020019081526020016000208190555080600b54620006bb919062000e0f565b600b819055507f40c340f65e17194d14ddddb073d3c9f888e3cb52b5aae0c6c7706b4fbc905fac8282604051620006f492919062000c9e565b60405180910390a15050565b62000710620003f860201b60201c565b73ffffffffffffffffffffffffffffffffffffffff1662000736620007ab60201b60201c565b73ffffffffffffffffffffffffffffffffffffffff16146200078f576040517f08c379a0000000000000000000000000000000000000000000000000000000008152600401620007869062000ced565b60405180910390fd5b8060139080519060200190620007a7929190620008bb565b5050565b6000600a60009054906101000a900473ffffffffffffffffffffffffffffffffffffffff16905090565b82805482825590600052602060002090810192821562000851579160200282015b82811115620008505782518260006101000a81548173ffffffffffffffffffffffffffffffffffffffff021916908373ffffffffffffffffffffffffffffffffffffffff16021790555091602001919060010190620007f6565b5b5090506200086091906200094c565b5090565b828054828255906000526020600020908101928215620008a8579160200282015b82811115620008a7578251829060ff1690559160200191906001019062000885565b5b509050620008b791906200094c565b5090565b828054620008c99062000ee0565b90600052602060002090601f016020900481019282620008ed576000855562000939565b82601f106200090857805160ff191683800117855562000939565b8280016001018555821562000939579182015b82811115620009385782518255916020019190600101906200091b565b5b5090506200094891906200094c565b5090565b5b80821115620009675760008160009055506001016200094d565b5090565b6000620009826200097c8462000dcb565b62000d97565b9050828152602081018484840111156200099b57600080fd5b620009a884828562000eaa565b509392505050565b600082601f830112620009c257600080fd5b8151620009d48482602086016200096b565b91505092915050565b600080600060608486031215620009f357600080fd5b600084015167ffffffffffffffff81111562000a0e57600080fd5b62000a1c86828701620009b0565b935050602084015167ffffffffffffffff81111562000a3a57600080fd5b62000a4886828701620009b0565b925050604084015167ffffffffffffffff81111562000a6657600080fd5b62000a7486828701620009b0565b9150509250925092565b62000a898162000e6c565b82525050565b600062000a9e602c8362000dfe565b91507f5061796d656e7453706c69747465723a206163636f756e74206973207468652060008301527f7a65726f206164647265737300000000000000000000000000000000000000006020830152604082019050919050565b600062000b0660208362000dfe565b91507f4f776e61626c653a2063616c6c6572206973206e6f7420746865206f776e65726000830152602082019050919050565b600062000b4860328362000dfe565b91507f5061796d656e7453706c69747465723a2070617965657320616e64207368617260008301527f6573206c656e677468206d69736d6174636800000000000000000000000000006020830152604082019050919050565b600062000bb0602b8362000dfe565b91507f5061796d656e7453706c69747465723a206163636f756e7420616c726561647960008301527f20686173207368617265730000000000000000000000000000000000000000006020830152604082019050919050565b600062000c18601a8362000dfe565b91507f5061796d656e7453706c69747465723a206e6f207061796565730000000000006000830152602082019050919050565b600062000c5a601d8362000dfe565b91507f5061796d656e7453706c69747465723a207368617265732061726520300000006000830152602082019050919050565b62000c988162000ea0565b82525050565b600060408201905062000cb5600083018562000a7e565b62000cc4602083018462000c8d565b9392505050565b6000602082019050818103600083015262000ce68162000a8f565b9050919050565b6000602082019050818103600083015262000d088162000af7565b9050919050565b6000602082019050818103600083015262000d2a8162000b39565b9050919050565b6000602082019050818103600083015262000d4c8162000ba1565b9050919050565b6000602082019050818103600083015262000d6e8162000c09565b9050919050565b6000602082019050818103600083015262000d908162000c4b565b9050919050565b6000604051905081810181811067ffffffffffffffff8211171562000dc15762000dc062000fc2565b5b8060405250919050565b600067ffffffffffffffff82111562000de95762000de862000fc2565b5b601f19601f8301169050602081019050919050565b600082825260208201905092915050565b600062000e1c8262000ea0565b915062000e298362000ea0565b9250827fffffffffffffffffffffffffffffffffffffffffffffffffffffffffffffffff0382111562000e615762000e6062000f64565b5b828201905092915050565b600062000e798262000e80565b9050919050565b600073ffffffffffffffffffffffffffffffffffffffff82169050919050565b6000819050919050565b60005b8381101562000eca57808201518184015260208101905062000ead565b8381111562000eda576000848401525b50505050565b6000600282049050600182168062000ef957607f821691505b6020821081141562000f105762000f0f62000f93565b5b50919050565b600062000f238262000ea0565b91507fffffffffffffffffffffffffffffffffffffffffffffffffffffffffffffffff82141562000f595762000f5862000f64565b5b600182019050919050565b7f4e487b7100000000000000000000000000000000000000000000000000000000600052601160045260246000fd5b7f4e487b7100000000000000000000000000000000000000000000000000000000600052602260045260246000fd5b7f4e487b7100000000000000000000000000000000000000000000000000000000600052604160045260246000fd5b615bf680620010016000396000f3fe6080604052600436106102815760003560e01c806384a303d61161014f578063bd986a2c116100c1578063e33b7de31161007a578063e33b7de314610a0f578063e8a3d48514610a3a578063e985e9c514610a65578063efd0cbf914610aa2578063f2fde38b14610abe578063f91798b114610ae7576102c8565b8063bd986a2c146108db578063c87b56dd14610904578063ce7c2ac214610941578063d5abeb011461097e578063d79779b2146109a9578063e00cd181146109e6576102c8565b806396ea3a471161011357806396ea3a47146107cd5780639852595c146107f657806398d5fdca146108335780639ddf7ad31461085e578063a22cb46514610889578063b88d4fde146108b2576102c8565b806384a303d6146106e85780638b83209b146107115780638da5cb5b1461074e57806391b7f5ed1461077957806395d89b41146107a2576102c8565b80633a98ef39116101f35780634f6ccce7116101ac5780634f6ccce7146105c45780636352211e146106015780636c0360eb1461063e57806370a0823114610669578063715018a6146106a65780637501f741146106bd576102c8565b80633a98ef39146104e45780633ccfd60b1461050f578063406072a91461051957806342842e0e146105565780634618163e1461057f57806348b750441461059b576102c8565b806318160ddd1161024557806318160ddd146103c457806319165587146103ef5780631d608659146104185780631fe9eabc1461045557806323b872dd1461047e5780632f745c59146104a7576102c8565b806301ffc9a7146102cd57806302fe53051461030a57806306fdde0314610333578063081812fc1461035e578063095ea7b31461039b576102c8565b366102c8577f6ef95f06320e7a25a04a175ca677b7052bdd97131872c2192525a629f51be7706102af610b12565b346040516102be929190615223565b60405180910390a1005b600080fd5b3480156102d957600080fd5b506102f460048036038101906102ef9190614463565b610b1a565b604051610301919061524c565b60405180910390f35b34801561031657600080fd5b50610331600480360381019061032c919061451a565b610b94565b005b34801561033f57600080fd5b50610348610c2a565b6040516103559190615267565b60405180910390f35b34801561036a57600080fd5b506103856004803603810190610380919061455b565b610cbc565b6040516103929190615193565b60405180910390f35b3480156103a757600080fd5b506103c260048036038101906103bd919061431b565b610d41565b005b3480156103d057600080fd5b506103d9610e59565b6040516103e69190615669565b60405180910390f35b3480156103fb57600080fd5b50610416600480360381019061041191906141b0565b610e66565b005b34801561042457600080fd5b5061043f600480360381019061043a9190614187565b611011565b60405161044c9190615669565b60405180910390f35b34801561046157600080fd5b5061047c6004803603810190610477919061455b565b611029565b005b34801561048a57600080fd5b506104a560048036038101906104a09190614215565b6110af565b005b3480156104b357600080fd5b506104ce60048036038101906104c9919061431b565b61110f565b6040516104db9190615669565b60405180910390f35b3480156104f057600080fd5b506104f96111b4565b6040516105069190615669565b60405180910390f35b6105176111be565b005b34801561052557600080fd5b50610540600480360381019061053b91906144de565b6112b3565b60405161054d9190615669565b60405180910390f35b34801561056257600080fd5b5061057d60048036038101906105789190614215565b61133a565b005b6105996004803603810190610594919061455b565b61135a565b005b3480156105a757600080fd5b506105c260048036038101906105bd91906144de565b61157d565b005b3480156105d057600080fd5b506105eb60048036038101906105e6919061455b565b611845565b6040516105f89190615669565b60405180910390f35b34801561060d57600080fd5b506106286004803603810190610623919061455b565b6118dc565b6040516106359190615193565b60405180910390f35b34801561064a57600080fd5b5061065361198e565b6040516106609190615267565b60405180910390f35b34801561067557600080fd5b50610690600480360381019061068b9190614187565b611a1c565b60405161069d9190615669565b60405180910390f35b3480156106b257600080fd5b506106bb611ad4565b005b3480156106c957600080fd5b506106d2611b5c565b6040516106df9190615669565b60405180910390f35b3480156106f457600080fd5b5061070f600480360381019061070a9190614411565b611b62565b005b34801561071d57600080fd5b506107386004803603810190610733919061455b565b611bfb565b6040516107459190615193565b60405180910390f35b34801561075a57600080fd5b50610763611c69565b6040516107709190615193565b60405180910390f35b34801561078557600080fd5b506107a0600480360381019061079b919061455b565b611c93565b005b3480156107ae57600080fd5b506107b7611d19565b6040516107c49190615267565b60405180910390f35b3480156107d957600080fd5b506107f460048036038101906107ef919061439c565b611dab565b005b34801561080257600080fd5b5061081d60048036038101906108189190614187565b612002565b60405161082a9190615669565b60405180910390f35b34801561083f57600080fd5b5061084861204b565b6040516108559190615669565b60405180910390f35b34801561086a57600080fd5b50610873612055565b604051610880919061524c565b60405180910390f35b34801561089557600080fd5b506108b060048036038101906108ab91906142df565b612068565b005b3480156108be57600080fd5b506108d960048036038101906108d49190614264565b61207e565b005b3480156108e757600080fd5b5061090260048036038101906108fd9190614411565b6120e0565b005b34801561091057600080fd5b5061092b6004803603810190610926919061455b565b612179565b6040516109389190615267565b60405180910390f35b34801561094d57600080fd5b5061096860048036038101906109639190614187565b6121e7565b6040516109759190615669565b60405180910390f35b34801561098a57600080fd5b50610993612230565b6040516109a09190615669565b60405180910390f35b3480156109b557600080fd5b506109d060048036038101906109cb91906144b5565b612236565b6040516109dd9190615669565b60405180910390f35b3480156109f257600080fd5b50610a0d6004803603810190610a089190614357565b61227f565b005b348015610a1b57600080fd5b50610a246123b4565b604051610a319190615669565b60405180910390f35b348015610a4657600080fd5b50610a4f6123be565b604051610a5c9190615267565b60405180910390f35b348015610a7157600080fd5b50610a8c6004803603810190610a8791906141d9565b6123de565b604051610a99919061524c565b60405180910390f35b610abc6004803603810190610ab7919061455b565b612472565b005b348015610aca57600080fd5b50610ae56004803603810190610ae09190614187565b612699565b005b348015610af357600080fd5b50610afc612791565b604051610b09919061524c565b60405180910390f35b600033905090565b60007f780e9d63000000000000000000000000000000000000000000000000000000007bffffffffffffffffffffffffffffffffffffffffffffffffffffffff1916827bffffffffffffffffffffffffffffffffffffffffffffffffffffffff19161480610b8d5750610b8c826127a4565b5b9050919050565b610b9c610b12565b73ffffffffffffffffffffffffffffffffffffffff16610bba611c69565b73ffffffffffffffffffffffffffffffffffffffff1614610c10576040517f08c379a0000000000000000000000000000000000000000000000000000000008152600401610c0790615529565b60405180910390fd5b8060139080519060200190610c26929190613ec3565b5050565b606060008054610c3990615988565b80601f0160208091040260200160405190810160405280929190818152602001828054610c6590615988565b8015610cb25780601f10610c8757610100808354040283529160200191610cb2565b820191906000526020600020905b815481529060010190602001808311610c9557829003601f168201915b5050505050905090565b6000610cc782612886565b610d06576040517f08c379a0000000000000000000000000000000000000000000000000000000008152600401610cfd906154e9565b60405180910390fd5b6004600083815260200190815260200160002060009054906101000a900473ffffffffffffffffffffffffffffffffffffffff169050919050565b6000610d4c826118dc565b90508073ffffffffffffffffffffffffffffffffffffffff168373ffffffffffffffffffffffffffffffffffffffff161415610dbd576040517f08c379a0000000000000000000000000000000000000000000000000000000008152600401610db490615589565b60405180910390fd5b8073ffffffffffffffffffffffffffffffffffffffff16610ddc610b12565b73ffffffffffffffffffffffffffffffffffffffff161480610e0b5750610e0a81610e05610b12565b6123de565b5b610e4a576040517f08c379a0000000000000000000000000000000000000000000000000000000008152600401610e4190615449565b60405180910390fd5b610e5483836128f2565b505050565b6000600880549050905090565b6000600d60008373ffffffffffffffffffffffffffffffffffffffff1673ffffffffffffffffffffffffffffffffffffffff1681526020019081526020016000205411610ee8576040517f08c379a0000000000000000000000000000000000000000000000000000000008152600401610edf90615349565b60405180910390fd5b6000610ef26123b4565b47610efd9190615763565b90506000610f148383610f0f86612002565b6129ab565b90506000811415610f5a576040517f08c379a0000000000000000000000000000000000000000000000000000000008152600401610f5190615429565b60405180910390fd5b80600e60008573ffffffffffffffffffffffffffffffffffffffff1673ffffffffffffffffffffffffffffffffffffffff1681526020019081526020016000206000828254610fa99190615763565b9250508190555080600c6000828254610fc29190615763565b92505081905550610fd38382612a19565b7fdf20fd1e76bc69d672e4814fafb2c449bba3a5369d8359adf9e05e6fde87b05683826040516110049291906151ae565b60405180910390a1505050565b60166020528060005260406000206000915090505481565b611031610b12565b73ffffffffffffffffffffffffffffffffffffffff1661104f611c69565b73ffffffffffffffffffffffffffffffffffffffff16146110a5576040517f08c379a000000000000000000000000000000000000000000000000000000000815260040161109c90615529565b60405180910390fd5b8060188190555050565b6110c06110ba610b12565b82612b0d565b6110ff576040517f08c379a00000000000000000000000000000000000000000000000000000000081526004016110f6906155c9565b60405180910390fd5b61110a838383612beb565b505050565b600061111a83611a1c565b821061115b576040517f08c379a0000000000000000000000000000000000000000000000000000000008152600401611152906152a9565b60405180910390fd5b600660008473ffffffffffffffffffffffffffffffffffffffff1673ffffffffffffffffffffffffffffffffffffffff168152602001908152602001600020600083815260200190815260200160002054905092915050565b6000600b54905090565b6111c6610b12565b73ffffffffffffffffffffffffffffffffffffffff166111e4611c69565b73ffffffffffffffffffffffffffffffffffffffff161461123a576040517f08c379a000000000000000000000000000000000000000000000000000000000815260040161123190615529565b60405180910390fd5b60003373ffffffffffffffffffffffffffffffffffffffff16476040516112609061517e565b60006040518083038185875af1925050503d806000811461129d576040519150601f19603f3d011682016040523d82523d6000602084013e6112a2565b606091505b50509050806112b057600080fd5b50565b6000601160008473ffffffffffffffffffffffffffffffffffffffff1673ffffffffffffffffffffffffffffffffffffffff16815260200190815260200160002060008373ffffffffffffffffffffffffffffffffffffffff1673ffffffffffffffffffffffffffffffffffffffff16815260200190815260200160002054905092915050565b6113558383836040518060200160405280600081525061207e565b505050565b6000611364610e59565b90506000601660003373ffffffffffffffffffffffffffffffffffffffff1673ffffffffffffffffffffffffffffffffffffffff168152602001908152602001600020549050601560009054906101000a900460ff166113f9576040517f08c379a00000000000000000000000000000000000000000000000000000000081526004016113f090615289565b60405180910390fd5b6000831161143c576040517f08c379a0000000000000000000000000000000000000000000000000000000008152600401611433906155a9565b60405180910390fd5b601854831115611481576040517f08c379a000000000000000000000000000000000000000000000000000000000815260040161147890615649565b60405180910390fd5b60145483836114909190615763565b11156114d1576040517f08c379a00000000000000000000000000000000000000000000000000000000081526004016114c890615649565b60405180910390fd5b826017546114df91906157ea565b341015611521576040517f08c379a000000000000000000000000000000000000000000000000000000000815260040161151890615329565b60405180910390fd5b6000811161152e57600080fd5b6000905060005b838110156115735761156233828561154d9190615763565b60405180602001604052806000815250612e47565b8061156c906159ba565b9050611535565b5060009150505050565b6000600d60008373ffffffffffffffffffffffffffffffffffffffff1673ffffffffffffffffffffffffffffffffffffffff16815260200190815260200160002054116115ff576040517f08c379a00000000000000000000000000000000000000000000000000000000081526004016115f690615349565b60405180910390fd5b600061160a83612236565b8373ffffffffffffffffffffffffffffffffffffffff166370a08231306040518263ffffffff1660e01b81526004016116439190615193565b60206040518083038186803b15801561165b57600080fd5b505afa15801561166f573d6000803e3d6000fd5b505050506040513d601f19601f820116820180604052508101906116939190614584565b61169d9190615763565b905060006116b583836116b087876112b3565b6129ab565b905060008114156116fb576040517f08c379a00000000000000000000000000000000000000000000000000000000081526004016116f290615429565b60405180910390fd5b80601160008673ffffffffffffffffffffffffffffffffffffffff1673ffffffffffffffffffffffffffffffffffffffff16815260200190815260200160002060008573ffffffffffffffffffffffffffffffffffffffff1673ffffffffffffffffffffffffffffffffffffffff16815260200190815260200160002060008282546117879190615763565b9250508190555080601060008673ffffffffffffffffffffffffffffffffffffffff1673ffffffffffffffffffffffffffffffffffffffff16815260200190815260200160002060008282546117dd9190615763565b925050819055506117ef848483612ea2565b8373ffffffffffffffffffffffffffffffffffffffff167f3be5b7a71e84ed12875d241991c70855ac5817d847039e17a9d895c1ceb0f18a8483604051611837929190615223565b60405180910390a250505050565b600061184f610e59565b8210611890576040517f08c379a000000000000000000000000000000000000000000000000000000000815260040161188790615609565b60405180910390fd5b600882815481106118ca577f4e487b7100000000000000000000000000000000000000000000000000000000600052603260045260246000fd5b90600052602060002001549050919050565b6000806002600084815260200190815260200160002060009054906101000a900473ffffffffffffffffffffffffffffffffffffffff169050600073ffffffffffffffffffffffffffffffffffffffff168173ffffffffffffffffffffffffffffffffffffffff161415611985576040517f08c379a000000000000000000000000000000000000000000000000000000000815260040161197c90615489565b60405180910390fd5b80915050919050565b6013805461199b90615988565b80601f01602080910402602001604051908101604052809291908181526020018280546119c790615988565b8015611a145780601f106119e957610100808354040283529160200191611a14565b820191906000526020600020905b8154815290600101906020018083116119f757829003601f168201915b505050505081565b60008073ffffffffffffffffffffffffffffffffffffffff168273ffffffffffffffffffffffffffffffffffffffff161415611a8d576040517f08c379a0000000000000000000000000000000000000000000000000000000008152600401611a8490615469565b60405180910390fd5b600360008373ffffffffffffffffffffffffffffffffffffffff1673ffffffffffffffffffffffffffffffffffffffff168152602001908152602001600020549050919050565b611adc610b12565b73ffffffffffffffffffffffffffffffffffffffff16611afa611c69565b73ffffffffffffffffffffffffffffffffffffffff1614611b50576040517f08c379a0000000000000000000000000000000000000000000000000000000008152600401611b4790615529565b60405180910390fd5b611b5a6000612f28565b565b60185481565b611b6a610b12565b73ffffffffffffffffffffffffffffffffffffffff16611b88611c69565b73ffffffffffffffffffffffffffffffffffffffff1614611bde576040517f08c379a0000000000000000000000000000000000000000000000000000000008152600401611bd590615529565b60405180910390fd5b80601560016101000a81548160ff02191690831515021790555050565b6000600f8281548110611c37577f4e487b7100000000000000000000000000000000000000000000000000000000600052603260045260246000fd5b9060005260206000200160009054906101000a900473ffffffffffffffffffffffffffffffffffffffff169050919050565b6000600a60009054906101000a900473ffffffffffffffffffffffffffffffffffffffff16905090565b611c9b610b12565b73ffffffffffffffffffffffffffffffffffffffff16611cb9611c69565b73ffffffffffffffffffffffffffffffffffffffff1614611d0f576040517f08c379a0000000000000000000000000000000000000000000000000000000008152600401611d0690615529565b60405180910390fd5b8060178190555050565b606060018054611d2890615988565b80601f0160208091040260200160405190810160405280929190818152602001828054611d5490615988565b8015611da15780601f10611d7657610100808354040283529160200191611da1565b820191906000526020600020905b815481529060010190602001808311611d8457829003601f168201915b5050505050905090565b611db3610b12565b73ffffffffffffffffffffffffffffffffffffffff16611dd1611c69565b73ffffffffffffffffffffffffffffffffffffffff1614611e27576040517f08c379a0000000000000000000000000000000000000000000000000000000008152600401611e1e90615529565b60405180910390fd5b818190508484905014611e3957600080fd5b600080611e44610e59565b905060005b86869050811015611eb257868682818110611e8d577f4e487b7100000000000000000000000000000000000000000000000000000000600052603260045260246000fd5b9050602002013583611e9f9190615763565b925080611eab906159ba565b9050611e49565b506014548282611ec29190615763565b1115611f03576040517f08c379a0000000000000000000000000000000000000000000000000000000008152600401611efa90615509565b60405180910390fd5b6000915060005b84849050811015611ff55760005b878783818110611f51577f4e487b7100000000000000000000000000000000000000000000000000000000600052603260045260246000fd5b90506020020135811015611fe357611fd2868684818110611f9b577f4e487b7100000000000000000000000000000000000000000000000000000000600052603260045260246000fd5b9050602002016020810190611fb09190614187565b8480611fbb906159ba565b955060405180602001604052806000815250612e47565b80611fdc906159ba565b9050611f18565b5080611fee906159ba565b9050611f0a565b5060009050505050505050565b6000600e60008373ffffffffffffffffffffffffffffffffffffffff1673ffffffffffffffffffffffffffffffffffffffff168152602001908152602001600020549050919050565b6000601754905090565b601560009054906101000a900460ff1681565b61207a612073610b12565b8383612fee565b5050565b61208f612089610b12565b83612b0d565b6120ce576040517f08c379a00000000000000000000000000000000000000000000000000000000081526004016120c5906155c9565b60405180910390fd5b6120da8484848461315b565b50505050565b6120e8610b12565b73ffffffffffffffffffffffffffffffffffffffff16612106611c69565b73ffffffffffffffffffffffffffffffffffffffff161461215c576040517f08c379a000000000000000000000000000000000000000000000000000000000815260040161215390615529565b60405180910390fd5b80601560006101000a81548160ff02191690831515021790555050565b606060145482111561218a57600080fd5b60006121946131b7565b905060008151116121b457604051806020016040528060008152506121df565b806121be84613249565b6040516020016121cf92919061515a565b6040516020818303038152906040525b915050919050565b6000600d60008373ffffffffffffffffffffffffffffffffffffffff1673ffffffffffffffffffffffffffffffffffffffff168152602001908152602001600020549050919050565b60145481565b6000601060008373ffffffffffffffffffffffffffffffffffffffff1673ffffffffffffffffffffffffffffffffffffffff168152602001908152602001600020549050919050565b612287610b12565b73ffffffffffffffffffffffffffffffffffffffff166122a5611c69565b73ffffffffffffffffffffffffffffffffffffffff16146122fb576040517f08c379a00000000000000000000000000000000000000000000000000000000081526004016122f290615529565b60405180910390fd5b60005b828290508110156123af5760185460166000858585818110612349577f4e487b7100000000000000000000000000000000000000000000000000000000600052603260045260246000fd5b905060200201602081019061235e9190614187565b73ffffffffffffffffffffffffffffffffffffffff1673ffffffffffffffffffffffffffffffffffffffff1681526020019081526020016000208190555080806123a7906159ba565b9150506122fe565b505050565b6000600c54905090565b6060604051806060016040528060358152602001615b8c60359139905090565b6000600560008473ffffffffffffffffffffffffffffffffffffffff1673ffffffffffffffffffffffffffffffffffffffff16815260200190815260200160002060008373ffffffffffffffffffffffffffffffffffffffff1673ffffffffffffffffffffffffffffffffffffffff16815260200190815260200160002060009054906101000a900460ff16905092915050565b600061247c610e59565b9050601560019054906101000a900460ff166124cd576040517f08c379a00000000000000000000000000000000000000000000000000000000081526004016124c4906154a9565b60405180910390fd5b60003373ffffffffffffffffffffffffffffffffffffffff163111612527576040517f08c379a000000000000000000000000000000000000000000000000000000000815260040161251e90615569565b60405180910390fd5b6000821161256a576040517f08c379a0000000000000000000000000000000000000000000000000000000008152600401612561906155a9565b60405180910390fd5b6018548211156125af576040517f08c379a00000000000000000000000000000000000000000000000000000000081526004016125a690615649565b60405180910390fd5b60145482826125be9190615763565b11156125ff576040517f08c379a00000000000000000000000000000000000000000000000000000000081526004016125f690615649565b60405180910390fd5b8160175461260d91906157ea565b34101561264f576040517f08c379a000000000000000000000000000000000000000000000000000000000815260040161264690615329565b60405180910390fd5b60005b828110156126905761267f33828461266a9190615763565b60405180602001604052806000815250612e47565b80612689906159ba565b9050612652565b50600090505050565b6126a1610b12565b73ffffffffffffffffffffffffffffffffffffffff166126bf611c69565b73ffffffffffffffffffffffffffffffffffffffff1614612715576040517f08c379a000000000000000000000000000000000000000000000000000000000815260040161270c90615529565b60405180910390fd5b600073ffffffffffffffffffffffffffffffffffffffff168173ffffffffffffffffffffffffffffffffffffffff161415612785576040517f08c379a000000000000000000000000000000000000000000000000000000000815260040161277c906152e9565b60405180910390fd5b61278e81612f28565b50565b601560019054906101000a900460ff1681565b60007f80ac58cd000000000000000000000000000000000000000000000000000000007bffffffffffffffffffffffffffffffffffffffffffffffffffffffff1916827bffffffffffffffffffffffffffffffffffffffffffffffffffffffff1916148061286f57507f5b5e139f000000000000000000000000000000000000000000000000000000007bffffffffffffffffffffffffffffffffffffffffffffffffffffffff1916827bffffffffffffffffffffffffffffffffffffffffffffffffffffffff1916145b8061287f575061287e826133f6565b5b9050919050565b60008073ffffffffffffffffffffffffffffffffffffffff166002600084815260200190815260200160002060009054906101000a900473ffffffffffffffffffffffffffffffffffffffff1673ffffffffffffffffffffffffffffffffffffffff1614159050919050565b816004600083815260200190815260200160002060006101000a81548173ffffffffffffffffffffffffffffffffffffffff021916908373ffffffffffffffffffffffffffffffffffffffff160217905550808273ffffffffffffffffffffffffffffffffffffffff16612965836118dc565b73ffffffffffffffffffffffffffffffffffffffff167f8c5be1e5ebec7d5bd14f71427d1e84f3dd0314c0f7b2291e5b200ac8c7c3b92560405160405180910390a45050565b600081600b54600d60008773ffffffffffffffffffffffffffffffffffffffff1673ffffffffffffffffffffffffffffffffffffffff16815260200190815260200160002054856129fc91906157ea565b612a0691906157b9565b612a109190615844565b90509392505050565b80471015612a5c576040517f08c379a0000000000000000000000000000000000000000000000000000000008152600401612a53906153c9565b60405180910390fd5b60008273ffffffffffffffffffffffffffffffffffffffff1682604051612a829061517e565b60006040518083038185875af1925050503d8060008114612abf576040519150601f19603f3d011682016040523d82523d6000602084013e612ac4565b606091505b5050905080612b08576040517f08c379a0000000000000000000000000000000000000000000000000000000008152600401612aff906153a9565b60405180910390fd5b505050565b6000612b1882612886565b612b57576040517f08c379a0000000000000000000000000000000000000000000000000000000008152600401612b4e90615409565b60405180910390fd5b6000612b62836118dc565b90508073ffffffffffffffffffffffffffffffffffffffff168473ffffffffffffffffffffffffffffffffffffffff161480612bd157508373ffffffffffffffffffffffffffffffffffffffff16612bb984610cbc565b73ffffffffffffffffffffffffffffffffffffffff16145b80612be25750612be181856123de565b5b91505092915050565b8273ffffffffffffffffffffffffffffffffffffffff16612c0b826118dc565b73ffffffffffffffffffffffffffffffffffffffff1614612c61576040517f08c379a0000000000000000000000000000000000000000000000000000000008152600401612c5890615549565b60405180910390fd5b600073ffffffffffffffffffffffffffffffffffffffff168273ffffffffffffffffffffffffffffffffffffffff161415612cd1576040517f08c379a0000000000000000000000000000000000000000000000000000000008152600401612cc890615369565b60405180910390fd5b612cdc838383613460565b612ce76000826128f2565b6001600360008573ffffffffffffffffffffffffffffffffffffffff1673ffffffffffffffffffffffffffffffffffffffff1681526020019081526020016000206000828254612d379190615844565b925050819055506001600360008473ffffffffffffffffffffffffffffffffffffffff1673ffffffffffffffffffffffffffffffffffffffff1681526020019081526020016000206000828254612d8e9190615763565b92505081905550816002600083815260200190815260200160002060006101000a81548173ffffffffffffffffffffffffffffffffffffffff021916908373ffffffffffffffffffffffffffffffffffffffff160217905550808273ffffffffffffffffffffffffffffffffffffffff168473ffffffffffffffffffffffffffffffffffffffff167fddf252ad1be2c89b69c2b068fc378daa952ba7f163c4a11628f55a4df523b3ef60405160405180910390a4505050565b612e518383613574565b612e5e6000848484613742565b612e9d576040517f08c379a0000000000000000000000000000000000000000000000000000000008152600401612e94906152c9565b60405180910390fd5b505050565b612f238363a9059cbb60e01b8484604051602401612ec1929190615223565b604051602081830303815290604052907bffffffffffffffffffffffffffffffffffffffffffffffffffffffff19166020820180517bffffffffffffffffffffffffffffffffffffffffffffffffffffffff83818316178352505050506138d9565b505050565b6000600a60009054906101000a900473ffffffffffffffffffffffffffffffffffffffff16905081600a60006101000a81548173ffffffffffffffffffffffffffffffffffffffff021916908373ffffffffffffffffffffffffffffffffffffffff1602179055508173ffffffffffffffffffffffffffffffffffffffff168173ffffffffffffffffffffffffffffffffffffffff167f8be0079c531659141344cd1fd0a4f28419497f9722a3daafe3b4186f6b6457e060405160405180910390a35050565b8173ffffffffffffffffffffffffffffffffffffffff168373ffffffffffffffffffffffffffffffffffffffff16141561305d576040517f08c379a000000000000000000000000000000000000000000000000000000000815260040161305490615389565b60405180910390fd5b80600560008573ffffffffffffffffffffffffffffffffffffffff1673ffffffffffffffffffffffffffffffffffffffff16815260200190815260200160002060008473ffffffffffffffffffffffffffffffffffffffff1673ffffffffffffffffffffffffffffffffffffffff16815260200190815260200160002060006101000a81548160ff0219169083151502179055508173ffffffffffffffffffffffffffffffffffffffff168373ffffffffffffffffffffffffffffffffffffffff167f17307eab39ab6107e8899845ad3d59bd9653f200f220920489ca2b5937696c318360405161314e919061524c565b60405180910390a3505050565b613166848484612beb565b61317284848484613742565b6131b1576040517f08c379a00000000000000000000000000000000000000000000000000000000081526004016131a8906152c9565b60405180910390fd5b50505050565b6060601380546131c690615988565b80601f01602080910402602001604051908101604052809291908181526020018280546131f290615988565b801561323f5780601f106132145761010080835404028352916020019161323f565b820191906000526020600020905b81548152906001019060200180831161322257829003601f168201915b5050505050905090565b60606000821415613291576040518060400160405280600181526020017f300000000000000000000000000000000000000000000000000000000000000081525090506133f1565b600082905060005b600082146132c35780806132ac906159ba565b915050600a826132bc91906157b9565b9150613299565b60008167ffffffffffffffff811115613305577f4e487b7100000000000000000000000000000000000000000000000000000000600052604160045260246000fd5b6040519080825280601f01601f1916602001820160405280156133375781602001600182028036833780820191505090505b5090505b600085146133ea576001826133509190615844565b9150600a8561335f9190615a03565b603061336b9190615763565b60f81b8183815181106133a7577f4e487b7100000000000000000000000000000000000000000000000000000000600052603260045260246000fd5b60200101907effffffffffffffffffffffffffffffffffffffffffffffffffffffffffffff1916908160001a905350600a856133e391906157b9565b945061333b565b8093505050505b919050565b60007f01ffc9a7000000000000000000000000000000000000000000000000000000007bffffffffffffffffffffffffffffffffffffffffffffffffffffffff1916827bffffffffffffffffffffffffffffffffffffffffffffffffffffffff1916149050919050565b61346b8383836139a0565b600073ffffffffffffffffffffffffffffffffffffffff168373ffffffffffffffffffffffffffffffffffffffff1614156134ae576134a9816139a5565b6134ed565b8173ffffffffffffffffffffffffffffffffffffffff168373ffffffffffffffffffffffffffffffffffffffff16146134ec576134eb83826139ee565b5b5b600073ffffffffffffffffffffffffffffffffffffffff168273ffffffffffffffffffffffffffffffffffffffff1614156135305761352b81613b5b565b61356f565b8273ffffffffffffffffffffffffffffffffffffffff168273ffffffffffffffffffffffffffffffffffffffff161461356e5761356d8282613c9e565b5b5b505050565b600073ffffffffffffffffffffffffffffffffffffffff168273ffffffffffffffffffffffffffffffffffffffff1614156135e4576040517f08c379a00000000000000000000000000000000000000000000000000000000081526004016135db906154c9565b60405180910390fd5b6135ed81612886565b1561362d576040517f08c379a000000000000000000000000000000000000000000000000000000000815260040161362490615309565b60405180910390fd5b61363960008383613460565b6001600360008473ffffffffffffffffffffffffffffffffffffffff1673ffffffffffffffffffffffffffffffffffffffff16815260200190815260200160002060008282546136899190615763565b92505081905550816002600083815260200190815260200160002060006101000a81548173ffffffffffffffffffffffffffffffffffffffff021916908373ffffffffffffffffffffffffffffffffffffffff160217905550808273ffffffffffffffffffffffffffffffffffffffff16600073ffffffffffffffffffffffffffffffffffffffff167fddf252ad1be2c89b69c2b068fc378daa952ba7f163c4a11628f55a4df523b3ef60405160405180910390a45050565b60006137638473ffffffffffffffffffffffffffffffffffffffff16613d1d565b156138cc578373ffffffffffffffffffffffffffffffffffffffff1663150b7a0261378c610b12565b8786866040518563ffffffff1660e01b81526004016137ae94939291906151d7565b602060405180830381600087803b1580156137c857600080fd5b505af19250505080156137f957506040513d601f19601f820116820180604052508101906137f6919061448c565b60015b61387c573d8060008114613829576040519150601f19603f3d011682016040523d82523d6000602084013e61382e565b606091505b50600081511415613874576040517f08c379a000000000000000000000000000000000000000000000000000000000815260040161386b906152c9565b60405180910390fd5b805181602001fd5b63150b7a0260e01b7bffffffffffffffffffffffffffffffffffffffffffffffffffffffff1916817bffffffffffffffffffffffffffffffffffffffffffffffffffffffff1916149150506138d1565b600190505b949350505050565b600061393b826040518060400160405280602081526020017f5361666545524332303a206c6f772d6c6576656c2063616c6c206661696c65648152508573ffffffffffffffffffffffffffffffffffffffff16613d309092919063ffffffff16565b905060008151111561399b578080602001905181019061395b919061443a565b61399a576040517f08c379a000000000000000000000000000000000000000000000000000000000815260040161399190615629565b60405180910390fd5b5b505050565b505050565b6008805490506009600083815260200190815260200160002081905550600881908060018154018082558091505060019003906000526020600020016000909190919091505550565b600060016139fb84611a1c565b613a059190615844565b9050600060076000848152602001908152602001600020549050818114613aea576000600660008673ffffffffffffffffffffffffffffffffffffffff1673ffffffffffffffffffffffffffffffffffffffff168152602001908152602001600020600084815260200190815260200160002054905080600660008773ffffffffffffffffffffffffffffffffffffffff1673ffffffffffffffffffffffffffffffffffffffff168152602001908152602001600020600084815260200190815260200160002081905550816007600083815260200190815260200160002081905550505b6007600084815260200190815260200160002060009055600660008573ffffffffffffffffffffffffffffffffffffffff1673ffffffffffffffffffffffffffffffffffffffff16815260200190815260200160002060008381526020019081526020016000206000905550505050565b60006001600880549050613b6f9190615844565b9050600060096000848152602001908152602001600020549050600060088381548110613bc5577f4e487b7100000000000000000000000000000000000000000000000000000000600052603260045260246000fd5b906000526020600020015490508060088381548110613c0d577f4e487b7100000000000000000000000000000000000000000000000000000000600052603260045260246000fd5b906000526020600020018190555081600960008381526020019081526020016000208190555060096000858152602001908152602001600020600090556008805480613c82577f4e487b7100000000000000000000000000000000000000000000000000000000600052603160045260246000fd5b6001900381819060005260206000200160009055905550505050565b6000613ca983611a1c565b905081600660008573ffffffffffffffffffffffffffffffffffffffff1673ffffffffffffffffffffffffffffffffffffffff168152602001908152602001600020600083815260200190815260200160002081905550806007600084815260200190815260200160002081905550505050565b600080823b905060008111915050919050565b6060613d3f8484600085613d48565b90509392505050565b606082471015613d8d576040517f08c379a0000000000000000000000000000000000000000000000000000000008152600401613d84906153e9565b60405180910390fd5b613d9685613d1d565b613dd5576040517f08c379a0000000000000000000000000000000000000000000000000000000008152600401613dcc906155e9565b60405180910390fd5b6000808673ffffffffffffffffffffffffffffffffffffffff168587604051613dfe9190615143565b60006040518083038185875af1925050503d8060008114613e3b576040519150601f19603f3d011682016040523d82523d6000602084013e613e40565b606091505b5091509150613e50828286613e5c565b92505050949350505050565b60608315613e6c57829050613ebc565b600083511115613e7f5782518084602001fd5b816040517f08c379a0000000000000000000000000000000000000000000000000000000008152600401613eb39190615267565b60405180910390fd5b9392505050565b828054613ecf90615988565b90600052602060002090601f016020900481019282613ef15760008555613f38565b82601f10613f0a57805160ff1916838001178555613f38565b82800160010185558215613f38579182015b82811115613f37578251825591602001919060010190613f1c565b5b509050613f459190613f49565b5090565b5b80821115613f62576000816000905550600101613f4a565b5090565b6000613f79613f74846156b5565b615684565b905082815260208101848484011115613f9157600080fd5b613f9c848285615946565b509392505050565b6000613fb7613fb2846156e5565b615684565b905082815260208101848484011115613fcf57600080fd5b613fda848285615946565b509392505050565b600081359050613ff181615b01565b92915050565b60008135905061400681615b18565b92915050565b60008083601f84011261401e57600080fd5b8235905067ffffffffffffffff81111561403757600080fd5b60208301915083602082028301111561404f57600080fd5b9250929050565b60008083601f84011261406857600080fd5b8235905067ffffffffffffffff81111561408157600080fd5b60208301915083602082028301111561409957600080fd5b9250929050565b6000813590506140af81615b2f565b92915050565b6000815190506140c481615b2f565b92915050565b6000813590506140d981615b46565b92915050565b6000815190506140ee81615b46565b92915050565b600082601f83011261410557600080fd5b8135614115848260208601613f66565b91505092915050565b60008135905061412d81615b5d565b92915050565b600082601f83011261414457600080fd5b8135614154848260208601613fa4565b91505092915050565b60008135905061416c81615b74565b92915050565b60008151905061418181615b74565b92915050565b60006020828403121561419957600080fd5b60006141a784828501613fe2565b91505092915050565b6000602082840312156141c257600080fd5b60006141d084828501613ff7565b91505092915050565b600080604083850312156141ec57600080fd5b60006141fa85828601613fe2565b925050602061420b85828601613fe2565b9150509250929050565b60008060006060848603121561422a57600080fd5b600061423886828701613fe2565b935050602061424986828701613fe2565b925050604061425a8682870161415d565b9150509250925092565b6000806000806080858703121561427a57600080fd5b600061428887828801613fe2565b945050602061429987828801613fe2565b93505060406142aa8782880161415d565b925050606085013567ffffffffffffffff8111156142c757600080fd5b6142d3878288016140f4565b91505092959194509250565b600080604083850312156142f257600080fd5b600061430085828601613fe2565b9250506020614311858286016140a0565b9150509250929050565b6000806040838503121561432e57600080fd5b600061433c85828601613fe2565b925050602061434d8582860161415d565b9150509250929050565b6000806020838503121561436a57600080fd5b600083013567ffffffffffffffff81111561438457600080fd5b6143908582860161400c565b92509250509250929050565b600080600080604085870312156143b257600080fd5b600085013567ffffffffffffffff8111156143cc57600080fd5b6143d887828801614056565b9450945050602085013567ffffffffffffffff8111156143f757600080fd5b6144038782880161400c565b925092505092959194509250565b60006020828403121561442357600080fd5b6000614431848285016140a0565b91505092915050565b60006020828403121561444c57600080fd5b600061445a848285016140b5565b91505092915050565b60006020828403121561447557600080fd5b6000614483848285016140ca565b91505092915050565b60006020828403121561449e57600080fd5b60006144ac848285016140df565b91505092915050565b6000602082840312156144c757600080fd5b60006144d58482850161411e565b91505092915050565b600080604083850312156144f157600080fd5b60006144ff8582860161411e565b925050602061451085828601613fe2565b9150509250929050565b60006020828403121561452c57600080fd5b600082013567ffffffffffffffff81111561454657600080fd5b61455284828501614133565b91505092915050565b60006020828403121561456d57600080fd5b600061457b8482850161415d565b91505092915050565b60006020828403121561459657600080fd5b60006145a484828501614172565b91505092915050565b6145b681615910565b82525050565b6145c581615878565b82525050565b6145d48161589c565b82525050565b60006145e582615715565b6145ef818561572b565b93506145ff818560208601615955565b61460881615af0565b840191505092915050565b600061461e82615715565b614628818561573c565b9350614638818560208601615955565b80840191505092915050565b600061464f82615720565b6146598185615747565b9350614669818560208601615955565b61467281615af0565b840191505092915050565b600061468882615720565b6146928185615758565b93506146a2818560208601615955565b80840191505092915050565b60006146bb601783615747565b91507f57686974656c697374206973206e6f74206163746976650000000000000000006000830152602082019050919050565b60006146fb602b83615747565b91507f455243373231456e756d657261626c653a206f776e657220696e646578206f7560008301527f74206f6620626f756e64730000000000000000000000000000000000000000006020830152604082019050919050565b6000614761603283615747565b91507f4552433732313a207472616e7366657220746f206e6f6e20455243373231526560008301527f63656976657220696d706c656d656e74657200000000000000000000000000006020830152604082019050919050565b60006147c7602683615747565b91507f4f776e61626c653a206e6577206f776e657220697320746865207a65726f206160008301527f64647265737300000000000000000000000000000000000000000000000000006020830152604082019050919050565b600061482d601c83615747565b91507f4552433732313a20746f6b656e20616c7265616479206d696e746564000000006000830152602082019050919050565b600061486d601283615747565b91507f45544820696e7075742069732077726f6e6700000000000000000000000000006000830152602082019050919050565b60006148ad602683615747565b91507f5061796d656e7453706c69747465723a206163636f756e7420686173206e6f2060008301527f73686172657300000000000000000000000000000000000000000000000000006020830152604082019050919050565b6000614913602483615747565b91507f4552433732313a207472616e7366657220746f20746865207a65726f2061646460008301527f72657373000000000000000000000000000000000000000000000000000000006020830152604082019050919050565b6000614979601983615747565b91507f4552433732313a20617070726f766520746f2063616c6c6572000000000000006000830152602082019050919050565b60006149b9603a83615747565b91507f416464726573733a20756e61626c6520746f2073656e642076616c75652c207260008301527f6563697069656e74206d617920686176652072657665727465640000000000006020830152604082019050919050565b6000614a1f601d83615747565b91507f416464726573733a20696e73756666696369656e742062616c616e63650000006000830152602082019050919050565b6000614a5f602683615747565b91507f416464726573733a20696e73756666696369656e742062616c616e636520666f60008301527f722063616c6c00000000000000000000000000000000000000000000000000006020830152604082019050919050565b6000614ac5602c83615747565b91507f4552433732313a206f70657261746f7220717565727920666f72206e6f6e657860008301527f697374656e7420746f6b656e00000000000000000000000000000000000000006020830152604082019050919050565b6000614b2b602b83615747565b91507f5061796d656e7453706c69747465723a206163636f756e74206973206e6f742060008301527f647565207061796d656e740000000000000000000000000000000000000000006020830152604082019050919050565b6000614b91603883615747565b91507f4552433732313a20617070726f76652063616c6c6572206973206e6f74206f7760008301527f6e6572206e6f7220617070726f76656420666f7220616c6c00000000000000006020830152604082019050919050565b6000614bf7602a83615747565b91507f4552433732313a2062616c616e636520717565727920666f7220746865207a6560008301527f726f2061646472657373000000000000000000000000000000000000000000006020830152604082019050919050565b6000614c5d602983615747565b91507f4552433732313a206f776e657220717565727920666f72206e6f6e657869737460008301527f656e7420746f6b656e00000000000000000000000000000000000000000000006020830152604082019050919050565b6000614cc3601983615747565b91507f5075626c69632073616c65206973206e6f7420616374697665000000000000006000830152602082019050919050565b6000614d03602083615747565b91507f4552433732313a206d696e7420746f20746865207a65726f20616464726573736000830152602082019050919050565b6000614d43602c83615747565b91507f4552433732313a20617070726f76656420717565727920666f72206e6f6e657860008301527f697374656e7420746f6b656e00000000000000000000000000000000000000006020830152604082019050919050565b6000614da9600883615747565b91507f546f6f206d616e790000000000000000000000000000000000000000000000006000830152602082019050919050565b6000614de9602083615747565b91507f4f776e61626c653a2063616c6c6572206973206e6f7420746865206f776e65726000830152602082019050919050565b6000614e29602983615747565b91507f4552433732313a207472616e73666572206f6620746f6b656e2074686174206960008301527f73206e6f74206f776e00000000000000000000000000000000000000000000006020830152604082019050919050565b6000614e8f600a83615747565b91507f596f75202042726f6b65000000000000000000000000000000000000000000006000830152602082019050919050565b6000614ecf602183615747565b91507f4552433732313a20617070726f76616c20746f2063757272656e74206f776e6560008301527f72000000000000000000000000000000000000000000000000000000000000006020830152604082019050919050565b6000614f35601083615747565b91507f4d696e74206d6f7265207468616e2030000000000000000000000000000000006000830152602082019050919050565b6000614f7560008361573c565b9150600082019050919050565b6000614f8f603183615747565b91507f4552433732313a207472616e736665722063616c6c6572206973206e6f74206f60008301527f776e6572206e6f7220617070726f7665640000000000000000000000000000006020830152604082019050919050565b6000614ff5601d83615747565b91507f416464726573733a2063616c6c20746f206e6f6e2d636f6e74726163740000006000830152602082019050919050565b6000615035602c83615747565b91507f455243373231456e756d657261626c653a20676c6f62616c20696e646578206f60008301527f7574206f6620626f756e647300000000000000000000000000000000000000006020830152604082019050919050565b600061509b602a83615747565b91507f5361666545524332303a204552433230206f7065726174696f6e20646964206e60008301527f6f742073756363656564000000000000000000000000000000000000000000006020830152604082019050919050565b6000615101600983615747565b91507f4d696e74206c65737300000000000000000000000000000000000000000000006000830152602082019050919050565b61513d81615906565b82525050565b600061514f8284614613565b915081905092915050565b6000615166828561467d565b9150615172828461467d565b91508190509392505050565b600061518982614f68565b9150819050919050565b60006020820190506151a860008301846145bc565b92915050565b60006040820190506151c360008301856145ad565b6151d06020830184615134565b9392505050565b60006080820190506151ec60008301876145bc565b6151f960208301866145bc565b6152066040830185615134565b818103606083015261521881846145da565b905095945050505050565b600060408201905061523860008301856145bc565b6152456020830184615134565b9392505050565b600060208201905061526160008301846145cb565b92915050565b600060208201905081810360008301526152818184614644565b905092915050565b600060208201905081810360008301526152a2816146ae565b9050919050565b600060208201905081810360008301526152c2816146ee565b9050919050565b600060208201905081810360008301526152e281614754565b9050919050565b60006020820190508181036000830152615302816147ba565b9050919050565b6000602082019050818103600083015261532281614820565b9050919050565b6000602082019050818103600083015261534281614860565b9050919050565b60006020820190508181036000830152615362816148a0565b9050919050565b6000602082019050818103600083015261538281614906565b9050919050565b600060208201905081810360008301526153a28161496c565b9050919050565b600060208201905081810360008301526153c2816149ac565b9050919050565b600060208201905081810360008301526153e281614a12565b9050919050565b6000602082019050818103600083015261540281614a52565b9050919050565b6000602082019050818103600083015261542281614ab8565b9050919050565b6000602082019050818103600083015261544281614b1e565b9050919050565b6000602082019050818103600083015261546281614b84565b9050919050565b6000602082019050818103600083015261548281614bea565b9050919050565b600060208201905081810360008301526154a281614c50565b9050919050565b600060208201905081810360008301526154c281614cb6565b9050919050565b600060208201905081810360008301526154e281614cf6565b9050919050565b6000602082019050818103600083015261550281614d36565b9050919050565b6000602082019050818103600083015261552281614d9c565b9050919050565b6000602082019050818103600083015261554281614ddc565b9050919050565b6000602082019050818103600083015261556281614e1c565b9050919050565b6000602082019050818103600083015261558281614e82565b9050919050565b600060208201905081810360008301526155a281614ec2565b9050919050565b600060208201905081810360008301526155c281614f28565b9050919050565b600060208201905081810360008301526155e281614f82565b9050919050565b6000602082019050818103600083015261560281614fe8565b9050919050565b6000602082019050818103600083015261562281615028565b9050919050565b600060208201905081810360008301526156428161508e565b9050919050565b60006020820190508181036000830152615662816150f4565b9050919050565b600060208201905061567e6000830184615134565b92915050565b6000604051905081810181811067ffffffffffffffff821117156156ab576156aa615ac1565b5b8060405250919050565b600067ffffffffffffffff8211156156d0576156cf615ac1565b5b601f19601f8301169050602081019050919050565b600067ffffffffffffffff821115615700576156ff615ac1565b5b601f19601f8301169050602081019050919050565b600081519050919050565b600081519050919050565b600082825260208201905092915050565b600081905092915050565b600082825260208201905092915050565b600081905092915050565b600061576e82615906565b915061577983615906565b9250827fffffffffffffffffffffffffffffffffffffffffffffffffffffffffffffffff038211156157ae576157ad615a34565b5b828201905092915050565b60006157c482615906565b91506157cf83615906565b9250826157df576157de615a63565b5b828204905092915050565b60006157f582615906565b915061580083615906565b9250817fffffffffffffffffffffffffffffffffffffffffffffffffffffffffffffffff048311821515161561583957615838615a34565b5b828202905092915050565b600061584f82615906565b915061585a83615906565b92508282101561586d5761586c615a34565b5b828203905092915050565b6000615883826158e6565b9050919050565b6000615895826158e6565b9050919050565b60008115159050919050565b60007fffffffff0000000000000000000000000000000000000000000000000000000082169050919050565b60006158df82615878565b9050919050565b600073ffffffffffffffffffffffffffffffffffffffff82169050919050565b6000819050919050565b600061591b82615922565b9050919050565b600061592d82615934565b9050919050565b600061593f826158e6565b9050919050565b82818337600083830152505050565b60005b83811015615973578082015181840152602081019050615958565b83811115615982576000848401525b50505050565b600060028204905060018216806159a057607f821691505b602082108114156159b4576159b3615a92565b5b50919050565b60006159c582615906565b91507fffffffffffffffffffffffffffffffffffffffffffffffffffffffffffffffff8214156159f8576159f7615a34565b5b600182019050919050565b6000615a0e82615906565b9150615a1983615906565b925082615a2957615a28615a63565b5b828206905092915050565b7f4e487b7100000000000000000000000000000000000000000000000000000000600052601160045260246000fd5b7f4e487b7100000000000000000000000000000000000000000000000000000000600052601260045260246000fd5b7f4e487b7100000000000000000000000000000000000000000000000000000000600052602260045260246000fd5b7f4e487b7100000000000000000000000000000000000000000000000000000000600052604160045260246000fd5b6000601f19601f8301169050919050565b615b0a81615878565b8114615b1557600080fd5b50565b615b218161588a565b8114615b2c57600080fd5b50565b615b388161589c565b8114615b4357600080fd5b50565b615b4f816158a8565b8114615b5a57600080fd5b50565b615b66816158d4565b8114615b7157600080fd5b50565b615b7d81615906565b8114615b8857600080fd5b5056fe697066733a2f2f516d5a4b696b6b43314c3436575a41417351486f6a58596d504a6376524e67576a5869574741454e413764787562a2646970667358221220c2433f91182a884677694d3f82fc71b01e120b3f61de1e4c82d14bae2aae4f7264736f6c63430008000033",
  "linkReferences": {},
  "deployedLinkReferences": {}
}