{
  "_format": "hh-sol-artifact-1",
  "contractName": "FreshmanYear",
  "sourceName": "contracts/FreshmanYear.sol",
  "abi": [
    {
      "inputs": [
        {
          "internalType": "string",
          "name": "_name",
          "type": "string"
        },
        {
          "internalType": "string",
          "name": "_symbol",
          "type": "string"
        },
        {
          "internalType": "string",
          "name": "_initBaseURI",
          "type": "string"
        }
      ],
      "stateMutability": "nonpayable",
      "type": "constructor"
    },
    {
      "anonymous": false,
      "inputs": [
        {
          "indexed": true,
          "internalType": "address",
          "name": "owner",
          "type": "address"
        },
        {
          "indexed": true,
          "internalType": "address",
          "name": "approved",
          "type": "address"
        },
        {
          "indexed": true,
          "internalType": "uint256",
          "name": "tokenId",
          "type": "uint256"
        }
      ],
      "name": "Approval",
      "type": "event"
    },
    {
      "anonymous": false,
      "inputs": [
        {
          "indexed": true,
          "internalType": "address",
          "name": "owner",
          "type": "address"
        },
        {
          "indexed": true,
          "internalType": "address",
          "name": "operator",
          "type": "address"
        },
        {
          "indexed": false,
          "internalType": "bool",
          "name": "approved",
          "type": "bool"
        }
      ],
      "name": "ApprovalForAll",
      "type": "event"
    },
    {
      "anonymous": false,
      "inputs": [
        {
          "indexed": true,
          "internalType": "contract IERC20",
          "name": "token",
          "type": "address"
        },
        {
          "indexed": false,
          "internalType": "address",
          "name": "to",
          "type": "address"
        },
        {
          "indexed": false,
          "internalType": "uint256",
          "name": "amount",
          "type": "uint256"
        }
      ],
      "name": "ERC20PaymentReleased",
      "type": "event"
    },
    {
      "anonymous": false,
      "inputs": [
        {
          "indexed": true,
          "internalType": "address",
          "name": "previousOwner",
          "type": "address"
        },
        {
          "indexed": true,
          "internalType": "address",
          "name": "newOwner",
          "type": "address"
        }
      ],
      "name": "OwnershipTransferred",
      "type": "event"
    },
    {
      "anonymous": false,
      "inputs": [
        {
          "indexed": false,
          "internalType": "address",
          "name": "account",
          "type": "address"
        },
        {
          "indexed": false,
          "internalType": "uint256",
          "name": "shares",
          "type": "uint256"
        }
      ],
      "name": "PayeeAdded",
      "type": "event"
    },
    {
      "anonymous": false,
      "inputs": [
        {
          "indexed": false,
          "internalType": "address",
          "name": "from",
          "type": "address"
        },
        {
          "indexed": false,
          "internalType": "uint256",
          "name": "amount",
          "type": "uint256"
        }
      ],
      "name": "PaymentReceived",
      "type": "event"
    },
    {
      "anonymous": false,
      "inputs": [
        {
          "indexed": false,
          "internalType": "address",
          "name": "to",
          "type": "address"
        },
        {
          "indexed": false,
          "internalType": "uint256",
          "name": "amount",
          "type": "uint256"
        }
      ],
      "name": "PaymentReleased",
      "type": "event"
    },
    {
      "anonymous": false,
      "inputs": [
        {
          "indexed": true,
          "internalType": "address",
          "name": "from",
          "type": "address"
        },
        {
          "indexed": true,
          "internalType": "address",
          "name": "to",
          "type": "address"
        },
        {
          "indexed": true,
          "internalType": "uint256",
          "name": "tokenId",
          "type": "uint256"
        }
      ],
      "name": "Transfer",
      "type": "event"
    },
    {
      "inputs": [
        {
          "internalType": "address",
          "name": "to",
          "type": "address"
        },
        {
          "internalType": "uint256",
          "name": "tokenId",
          "type": "uint256"
        }
      ],
      "name": "approve",
      "outputs": [],
      "stateMutability": "nonpayable",
      "type": "function"
    },
    {
      "inputs": [
        {
          "internalType": "address",
          "name": "owner",
          "type": "address"
        }
      ],
      "name": "balanceOf",
      "outputs": [
        {
          "internalType": "uint256",
          "name": "",
          "type": "uint256"
        }
      ],
      "stateMutability": "view",
      "type": "function"
    },
    {
      "inputs": [],
      "name": "baseURI",
      "outputs": [
        {
          "internalType": "string",
          "name": "",
          "type": "string"
        }
      ],
      "stateMutability": "view",
      "type": "function"
    },
    {
      "inputs": [
        {
          "internalType": "uint256",
          "name": "tokenId",
          "type": "uint256"
        }
      ],
      "name": "getApproved",
      "outputs": [
        {
          "internalType": "address",
          "name": "",
          "type": "address"
        }
      ],
      "stateMutability": "view",
      "type": "function"
    },
    {
      "inputs": [],
      "name": "getPrice",
      "outputs": [
        {
          "internalType": "uint256",
          "name": "",
          "type": "uint256"
        }
      ],
      "stateMutability": "view",
      "type": "function"
    },
    {
      "inputs": [
        {
          "internalType": "uint256[]",
          "name": "gifts",
          "type": "uint256[]"
        },
        {
          "internalType": "address[]",
          "name": "recipient",
          "type": "address[]"
        }
      ],
      "name": "gift",
      "outputs": [],
      "stateMutability": "nonpayable",
      "type": "function"
    },
    {
      "inputs": [
        {
          "internalType": "address",
          "name": "owner",
          "type": "address"
        },
        {
          "internalType": "address",
          "name": "operator",
          "type": "address"
        }
      ],
      "name": "isApprovedForAll",
      "outputs": [
        {
          "internalType": "bool",
          "name": "",
          "type": "bool"
        }
      ],
      "stateMutability": "view",
      "type": "function"
    },
    {
      "inputs": [],
      "name": "maxMint",
      "outputs": [
        {
          "internalType": "uint256",
          "name": "",
          "type": "uint256"
        }
      ],
      "stateMutability": "view",
      "type": "function"
    },
    {
      "inputs": [],
      "name": "maxSupply",
      "outputs": [
        {
          "internalType": "uint256",
          "name": "",
          "type": "uint256"
        }
      ],
      "stateMutability": "view",
      "type": "function"
    },
    {
      "inputs": [
        {
          "internalType": "uint256",
          "name": "_tokenAmount",
          "type": "uint256"
        }
      ],
      "name": "mintPublic",
      "outputs": [],
      "stateMutability": "payable",
      "type": "function"
    },
    {
      "inputs": [
        {
          "internalType": "uint256",
          "name": "_tokenAmount",
          "type": "uint256"
        }
      ],
      "name": "mintWhitelist",
      "outputs": [],
      "stateMutability": "payable",
      "type": "function"
    },
    {
      "inputs": [],
      "name": "name",
      "outputs": [
        {
          "internalType": "string",
          "name": "",
          "type": "string"
        }
      ],
      "stateMutability": "view",
      "type": "function"
    },
    {
      "inputs": [
        {
          "internalType": "address",
          "name": "",
          "type": "address"
        }
      ],
      "name": "onWhitelist",
      "outputs": [
        {
          "internalType": "uint256",
          "name": "",
          "type": "uint256"
        }
      ],
      "stateMutability": "view",
      "type": "function"
    },
    {
      "inputs": [],
      "name": "owner",
      "outputs": [
        {
          "internalType": "address",
          "name": "",
          "type": "address"
        }
      ],
      "stateMutability": "view",
      "type": "function"
    },
    {
      "inputs": [
        {
          "internalType": "uint256",
          "name": "tokenId",
          "type": "uint256"
        }
      ],
      "name": "ownerOf",
      "outputs": [
        {
          "internalType": "address",
          "name": "",
          "type": "address"
        }
      ],
      "stateMutability": "view",
      "type": "function"
    },
    {
      "inputs": [
        {
          "internalType": "uint256",
          "name": "index",
          "type": "uint256"
        }
      ],
      "name": "payee",
      "outputs": [
        {
          "internalType": "address",
          "name": "",
          "type": "address"
        }
      ],
      "stateMutability": "view",
      "type": "function"
    },
    {
      "inputs": [],
      "name": "publicStatus",
      "outputs": [
        {
          "internalType": "bool",
          "name": "",
          "type": "bool"
        }
      ],
      "stateMutability": "view",
      "type": "function"
    },
    {
      "inputs": [
        {
          "internalType": "address payable",
          "name": "account",
          "type": "address"
        }
      ],
      "name": "release",
      "outputs": [],
      "stateMutability": "nonpayable",
      "type": "function"
    },
    {
      "inputs": [
        {
          "internalType": "contract IERC20",
          "name": "token",
          "type": "address"
        },
        {
          "internalType": "address",
          "name": "account",
          "type": "address"
        }
      ],
      "name": "release",
      "outputs": [],
      "stateMutability": "nonpayable",
      "type": "function"
    },
    {
      "inputs": [
        {
          "internalType": "contract IERC20",
          "name": "token",
          "type": "address"
        },
        {
          "internalType": "address",
          "name": "account",
          "type": "address"
        }
      ],
      "name": "released",
      "outputs": [
        {
          "internalType": "uint256",
          "name": "",
          "type": "uint256"
        }
      ],
      "stateMutability": "view",
      "type": "function"
    },
    {
      "inputs": [
        {
          "internalType": "address",
          "name": "account",
          "type": "address"
        }
      ],
      "name": "released",
      "outputs": [
        {
          "internalType": "uint256",
          "name": "",
          "type": "uint256"
        }
      ],
      "stateMutability": "view",
      "type": "function"
    },
    {
      "inputs": [],
      "name": "renounceOwnership",
      "outputs": [],
      "stateMutability": "nonpayable",
      "type": "function"
    },
    {
      "inputs": [
        {
          "internalType": "address",
          "name": "from",
          "type": "address"
        },
        {
          "internalType": "address",
          "name": "to",
          "type": "address"
        },
        {
          "internalType": "uint256",
          "name": "tokenId",
          "type": "uint256"
        }
      ],
      "name": "safeTransferFrom",
      "outputs": [],
      "stateMutability": "nonpayable",
      "type": "function"
    },
    {
      "inputs": [
        {
          "internalType": "address",
          "name": "from",
          "type": "address"
        },
        {
          "internalType": "address",
          "name": "to",
          "type": "address"
        },
        {
          "internalType": "uint256",
          "name": "tokenId",
          "type": "uint256"
        },
        {
          "internalType": "bytes",
          "name": "_data",
          "type": "bytes"
        }
      ],
      "name": "safeTransferFrom",
      "outputs": [],
      "stateMutability": "nonpayable",
      "type": "function"
    },
    {
      "inputs": [
        {
          "internalType": "address",
          "name": "operator",
          "type": "address"
        },
        {
          "internalType": "bool",
          "name": "approved",
          "type": "bool"
        }
      ],
      "name": "setApprovalForAll",
      "outputs": [],
      "stateMutability": "nonpayable",
      "type": "function"
    },
    {
      "inputs": [
        {
          "internalType": "uint256",
          "name": "_newMaxMintAmount",
          "type": "uint256"
        }
      ],
      "name": "setMax",
      "outputs": [],
      "stateMutability": "nonpayable",
      "type": "function"
    },
    {
      "inputs": [
        {
          "internalType": "bool",
          "name": "_pstatus",
          "type": "bool"
        }
      ],
      "name": "setP",
      "outputs": [],
      "stateMutability": "nonpayable",
      "type": "function"
    },
    {
      "inputs": [
        {
          "internalType": "uint256",
          "name": "_newPrice",
          "type": "uint256"
        }
      ],
      "name": "setPrice",
      "outputs": [],
      "stateMutability": "nonpayable",
      "type": "function"
    },
    {
      "inputs": [
        {
          "internalType": "string",
          "name": "_newBaseURI",
          "type": "string"
        }
      ],
      "name": "setURI",
      "outputs": [],
      "stateMutability": "nonpayable",
      "type": "function"
    },
    {
      "inputs": [
        {
          "internalType": "bool",
          "name": "_wlstatus",
          "type": "bool"
        }
      ],
      "name": "setWL",
      "outputs": [],
      "stateMutability": "nonpayable",
      "type": "function"
    },
    {
      "inputs": [
        {
          "internalType": "address",
          "name": "account",
          "type": "address"
        }
      ],
      "name": "shares",
      "outputs": [
        {
          "internalType": "uint256",
          "name": "",
          "type": "uint256"
        }
      ],
      "stateMutability": "view",
      "type": "function"
    },
    {
      "inputs": [
        {
          "internalType": "bytes4",
          "name": "interfaceId",
          "type": "bytes4"
        }
      ],
      "name": "supportsInterface",
      "outputs": [
        {
          "internalType": "bool",
          "name": "",
          "type": "bool"
        }
      ],
      "stateMutability": "view",
      "type": "function"
    },
    {
      "inputs": [],
      "name": "symbol",
      "outputs": [
        {
          "internalType": "string",
          "name": "",
          "type": "string"
        }
      ],
      "stateMutability": "view",
      "type": "function"
    },
    {
      "inputs": [
        {
          "internalType": "uint256",
          "name": "index",
          "type": "uint256"
        }
      ],
      "name": "tokenByIndex",
      "outputs": [
        {
          "internalType": "uint256",
          "name": "",
          "type": "uint256"
        }
      ],
      "stateMutability": "view",
      "type": "function"
    },
    {
      "inputs": [
        {
          "internalType": "address",
          "name": "owner",
          "type": "address"
        },
        {
          "internalType": "uint256",
          "name": "index",
          "type": "uint256"
        }
      ],
      "name": "tokenOfOwnerByIndex",
      "outputs": [
        {
          "internalType": "uint256",
          "name": "",
          "type": "uint256"
        }
      ],
      "stateMutability": "view",
      "type": "function"
    },
    {
      "inputs": [
        {
          "internalType": "uint256",
          "name": "tokenId",
          "type": "uint256"
        }
      ],
      "name": "tokenURI",
      "outputs": [
        {
          "internalType": "string",
          "name": "",
          "type": "string"
        }
      ],
      "stateMutability": "view",
      "type": "function"
    },
    {
      "inputs": [
        {
          "internalType": "contract IERC20",
          "name": "token",
          "type": "address"
        }
      ],
      "name": "totalReleased",
      "outputs": [
        {
          "internalType": "uint256",
          "name": "",
          "type": "uint256"
        }
      ],
      "stateMutability": "view",
      "type": "function"
    },
    {
      "inputs": [],
      "name": "totalReleased",
      "outputs": [
        {
          "internalType": "uint256",
          "name": "",
          "type": "uint256"
        }
      ],
      "stateMutability": "view",
      "type": "function"
    },
    {
      "inputs": [],
      "name": "totalShares",
      "outputs": [
        {
          "internalType": "uint256",
          "name": "",
          "type": "uint256"
        }
      ],
      "stateMutability": "view",
      "type": "function"
    },
    {
      "inputs": [],
      "name": "totalSupply",
      "outputs": [
        {
          "internalType": "uint256",
          "name": "",
          "type": "uint256"
        }
      ],
      "stateMutability": "view",
      "type": "function"
    },
    {
      "inputs": [
        {
          "internalType": "address",
          "name": "from",
          "type": "address"
        },
        {
          "internalType": "address",
          "name": "to",
          "type": "address"
        },
        {
          "internalType": "uint256",
          "name": "tokenId",
          "type": "uint256"
        }
      ],
      "name": "transferFrom",
      "outputs": [],
      "stateMutability": "nonpayable",
      "type": "function"
    },
    {
      "inputs": [
        {
          "internalType": "address",
          "name": "newOwner",
          "type": "address"
        }
      ],
      "name": "transferOwnership",
      "outputs": [],
      "stateMutability": "nonpayable",
      "type": "function"
    },
    {
      "inputs": [
        {
          "internalType": "address[]",
          "name": "_addresses",
          "type": "address[]"
        }
      ],
      "name": "whitelistSet",
      "outputs": [],
      "stateMutability": "nonpayable",
      "type": "function"
    },
    {
      "inputs": [],
      "name": "whitelistStatus",
      "outputs": [
        {
          "internalType": "bool",
          "name": "",
          "type": "bool"
        }
      ],
      "stateMutability": "view",
      "type": "function"
    },
    {
      "inputs": [],
      "name": "withdraw",
      "outputs": [],
      "stateMutability": "payable",
      "type": "function"
    },
    {
      "stateMutability": "payable",
      "type": "receive"
    }
  ],
  "bytecode": "0x60806040526101316014556000601560006101000a81548160ff0219169083151502179055506000601560016101000a81548160ff02191690831515021790555067016345785d8a0000601755600a60185560405180604001604052807367b6a6a88de218114ea2a58f5970ccc71215624773ffffffffffffffffffffffffffffffffffffffff1673ffffffffffffffffffffffffffffffffffffffff168152602001731ec0ea2c067e5e87fca9c54e4eef14041018978973ffffffffffffffffffffffffffffffffffffffff1673ffffffffffffffffffffffffffffffffffffffff168152506019906002620000f8929190620007d5565b506040518060400160405280603260ff168152602001603260ff16815250601a9060026200012892919062000864565b503480156200013657600080fd5b5060405162006b9038038062006b9083398181016040528101906200015c9190620009dd565b6019805480602002602001604051908101604052809291908181526020018280548015620001e057602002820191906000526020600020905b8160009054906101000a900473ffffffffffffffffffffffffffffffffffffffff1673ffffffffffffffffffffffffffffffffffffffff168152602001906001019080831162000195575b5050505050601a8054806020026020016040519081016040528092919081815260200182805480156200023357602002820191906000526020600020905b8154815260200190600101908083116200021e575b50505050508484816000908051906020019062000252929190620008bb565b5080600190805190602001906200026b929190620008bb565b5050506200028e62000282620003f860201b60201c565b6200040060201b60201c565b8051825114620002d5576040517f08c379a0000000000000000000000000000000000000000000000000000000008152600401620002cc9062000d0f565b60405180910390fd5b60008251116200031c576040517f08c379a0000000000000000000000000000000000000000000000000000000008152600401620003139062000d53565b60405180910390fd5b60005b8251811015620003d357620003bd83828151811062000367577f4e487b7100000000000000000000000000000000000000000000000000000000600052603260045260246000fd5b6020026020010151838381518110620003a9577f4e487b7100000000000000000000000000000000000000000000000000000000600052603260045260246000fd5b6020026020010151620004c660201b60201c565b8080620003ca9062000f16565b9150506200031f565b5050506001601281905550620003ef816200070060201b60201c565b50505062000ff1565b600033905090565b6000600a60009054906101000a900473ffffffffffffffffffffffffffffffffffffffff16905081600a60006101000a81548173ffffffffffffffffffffffffffffffffffffffff021916908373ffffffffffffffffffffffffffffffffffffffff1602179055508173ffffffffffffffffffffffffffffffffffffffff168173ffffffffffffffffffffffffffffffffffffffff167f8be0079c531659141344cd1fd0a4f28419497f9722a3daafe3b4186f6b6457e060405160405180910390a35050565b600073ffffffffffffffffffffffffffffffffffffffff168273ffffffffffffffffffffffffffffffffffffffff16141562000539576040517f08c379a0000000000000000000000000000000000000000000000000000000008152600401620005309062000ccb565b60405180910390fd5b600081116200057f576040517f08c379a0000000000000000000000000000000000000000000000000000000008152600401620005769062000d75565b60405180910390fd5b6000600d60008473ffffffffffffffffffffffffffffffffffffffff1673ffffffffffffffffffffffffffffffffffffffff168152602001908152602001600020541462000604576040517f08c379a0000000000000000000000000000000000000000000000000000000008152600401620005fb9062000d31565b60405180910390fd5b600f829080600181540180825580915050600190039060005260206000200160009091909190916101000a81548173ffffffffffffffffffffffffffffffffffffffff021916908373ffffffffffffffffffffffffffffffffffffffff16021790555080600d60008473ffffffffffffffffffffffffffffffffffffffff1673ffffffffffffffffffffffffffffffffffffffff1681526020019081526020016000208190555080600b54620006bb919062000e0f565b600b819055507f40c340f65e17194d14ddddb073d3c9f888e3cb52b5aae0c6c7706b4fbc905fac8282604051620006f492919062000c9e565b60405180910390a15050565b62000710620003f860201b60201c565b73ffffffffffffffffffffffffffffffffffffffff1662000736620007ab60201b60201c565b73ffffffffffffffffffffffffffffffffffffffff16146200078f576040517f08c379a0000000000000000000000000000000000000000000000000000000008152600401620007869062000ced565b60405180910390fd5b8060139080519060200190620007a7929190620008bb565b5050565b6000600a60009054906101000a900473ffffffffffffffffffffffffffffffffffffffff16905090565b82805482825590600052602060002090810192821562000851579160200282015b82811115620008505782518260006101000a81548173ffffffffffffffffffffffffffffffffffffffff021916908373ffffffffffffffffffffffffffffffffffffffff16021790555091602001919060010190620007f6565b5b5090506200086091906200094c565b5090565b828054828255906000526020600020908101928215620008a8579160200282015b82811115620008a7578251829060ff1690559160200191906001019062000885565b5b509050620008b791906200094c565b5090565b828054620008c99062000ee0565b90600052602060002090601f016020900481019282620008ed576000855562000939565b82601f106200090857805160ff191683800117855562000939565b8280016001018555821562000939579182015b82811115620009385782518255916020019190600101906200091b565b5b5090506200094891906200094c565b5090565b5b80821115620009675760008160009055506001016200094d565b5090565b6000620009826200097c8462000dcb565b62000d97565b9050828152602081018484840111156200099b57600080fd5b620009a884828562000eaa565b509392505050565b600082601f830112620009c257600080fd5b8151620009d48482602086016200096b565b91505092915050565b600080600060608486031215620009f357600080fd5b600084015167ffffffffffffffff81111562000a0e57600080fd5b62000a1c86828701620009b0565b935050602084015167ffffffffffffffff81111562000a3a57600080fd5b62000a4886828701620009b0565b925050604084015167ffffffffffffffff81111562000a6657600080fd5b62000a7486828701620009b0565b9150509250925092565b62000a898162000e6c565b82525050565b600062000a9e602c8362000dfe565b91507f5061796d656e7453706c69747465723a206163636f756e74206973207468652060008301527f7a65726f206164647265737300000000000000000000000000000000000000006020830152604082019050919050565b600062000b0660208362000dfe565b91507f4f776e61626c653a2063616c6c6572206973206e6f7420746865206f776e65726000830152602082019050919050565b600062000b4860328362000dfe565b91507f5061796d656e7453706c69747465723a2070617965657320616e64207368617260008301527f6573206c656e677468206d69736d6174636800000000000000000000000000006020830152604082019050919050565b600062000bb0602b8362000dfe565b91507f5061796d656e7453706c69747465723a206163636f756e7420616c726561647960008301527f20686173207368617265730000000000000000000000000000000000000000006020830152604082019050919050565b600062000c18601a8362000dfe565b91507f5061796d656e7453706c69747465723a206e6f207061796565730000000000006000830152602082019050919050565b600062000c5a601d8362000dfe565b91507f5061796d656e7453706c69747465723a207368617265732061726520300000006000830152602082019050919050565b62000c988162000ea0565b82525050565b600060408201905062000cb5600083018562000a7e565b62000cc4602083018462000c8d565b9392505050565b6000602082019050818103600083015262000ce68162000a8f565b9050919050565b6000602082019050818103600083015262000d088162000af7565b9050919050565b6000602082019050818103600083015262000d2a8162000b39565b9050919050565b6000602082019050818103600083015262000d4c8162000ba1565b9050919050565b6000602082019050818103600083015262000d6e8162000c09565b9050919050565b6000602082019050818103600083015262000d908162000c4b565b9050919050565b6000604051905081810181811067ffffffffffffffff8211171562000dc15762000dc062000fc2565b5b8060405250919050565b600067ffffffffffffffff82111562000de95762000de862000fc2565b5b601f19601f8301169050602081019050919050565b600082825260208201905092915050565b600062000e1c8262000ea0565b915062000e298362000ea0565b9250827fffffffffffffffffffffffffffffffffffffffffffffffffffffffffffffffff0382111562000e615762000e6062000f64565b5b828201905092915050565b600062000e798262000e80565b9050919050565b600073ffffffffffffffffffffffffffffffffffffffff82169050919050565b6000819050919050565b60005b8381101562000eca57808201518184015260208101905062000ead565b8381111562000eda576000848401525b50505050565b6000600282049050600182168062000ef957607f821691505b6020821081141562000f105762000f0f62000f93565b5b50919050565b600062000f238262000ea0565b91507fffffffffffffffffffffffffffffffffffffffffffffffffffffffffffffffff82141562000f595762000f5862000f64565b5b600182019050919050565b7f4e487b7100000000000000000000000000000000000000000000000000000000600052601160045260246000fd5b7f4e487b7100000000000000000000000000000000000000000000000000000000600052602260045260246000fd5b7f4e487b7100000000000000000000000000000000000000000000000000000000600052604160045260246000fd5b615b8f80620010016000396000f3fe6080604052600436106102765760003560e01c80637501f7411161014f578063b88d4fde116100c1578063e00cd1811161007a578063e00cd181146109db578063e33b7de314610a04578063e985e9c514610a2f578063efd0cbf914610a6c578063f2fde38b14610a88578063f91798b114610ab1576102bd565b8063b88d4fde146108a7578063bd986a2c146108d0578063c87b56dd146108f9578063ce7c2ac214610936578063d5abeb0114610973578063d79779b21461099e576102bd565b806395d89b411161011357806395d89b411461079757806396ea3a47146107c25780639852595c146107eb57806398d5fdca146108285780639ddf7ad314610853578063a22cb4651461087e576102bd565b80637501f741146106b257806384a303d6146106dd5780638b83209b146107065780638da5cb5b1461074357806391b7f5ed1461076e576102bd565b80633a98ef39116101e857806348b75044116101ac57806348b75044146105905780634f6ccce7146105b95780636352211e146105f65780636c0360eb1461063357806370a082311461065e578063715018a61461069b576102bd565b80633a98ef39146104d95780633ccfd60b14610504578063406072a91461050e57806342842e0e1461054b5780634618163e14610574576102bd565b806318160ddd1161023a57806318160ddd146103b957806319165587146103e45780631d6086591461040d5780631fe9eabc1461044a57806323b872dd146104735780632f745c591461049c576102bd565b806301ffc9a7146102c257806302fe5305146102ff57806306fdde0314610328578063081812fc14610353578063095ea7b314610390576102bd565b366102bd577f6ef95f06320e7a25a04a175ca677b7052bdd97131872c2192525a629f51be7706102a4610adc565b346040516102b39291906151f1565b60405180910390a1005b600080fd5b3480156102ce57600080fd5b506102e960048036038101906102e49190614431565b610ae4565b6040516102f6919061521a565b60405180910390f35b34801561030b57600080fd5b50610326600480360381019061032191906144e8565b610b5e565b005b34801561033457600080fd5b5061033d610bf4565b60405161034a9190615235565b60405180910390f35b34801561035f57600080fd5b5061037a60048036038101906103759190614529565b610c86565b6040516103879190615161565b60405180910390f35b34801561039c57600080fd5b506103b760048036038101906103b291906142e9565b610d0b565b005b3480156103c557600080fd5b506103ce610e23565b6040516103db9190615637565b60405180910390f35b3480156103f057600080fd5b5061040b6004803603810190610406919061417e565b610e30565b005b34801561041957600080fd5b50610434600480360381019061042f9190614155565b610fdb565b6040516104419190615637565b60405180910390f35b34801561045657600080fd5b50610471600480360381019061046c9190614529565b610ff3565b005b34801561047f57600080fd5b5061049a600480360381019061049591906141e3565b611079565b005b3480156104a857600080fd5b506104c360048036038101906104be91906142e9565b6110d9565b6040516104d09190615637565b60405180910390f35b3480156104e557600080fd5b506104ee61117e565b6040516104fb9190615637565b60405180910390f35b61050c611188565b005b34801561051a57600080fd5b50610535600480360381019061053091906144ac565b61127d565b6040516105429190615637565b60405180910390f35b34801561055757600080fd5b50610572600480360381019061056d91906141e3565b611304565b005b61058e60048036038101906105899190614529565b611324565b005b34801561059c57600080fd5b506105b760048036038101906105b291906144ac565b611553565b005b3480156105c557600080fd5b506105e060048036038101906105db9190614529565b61181b565b6040516105ed9190615637565b60405180910390f35b34801561060257600080fd5b5061061d60048036038101906106189190614529565b6118b2565b60405161062a9190615161565b60405180910390f35b34801561063f57600080fd5b50610648611964565b6040516106559190615235565b60405180910390f35b34801561066a57600080fd5b5061068560048036038101906106809190614155565b6119f2565b6040516106929190615637565b60405180910390f35b3480156106a757600080fd5b506106b0611aaa565b005b3480156106be57600080fd5b506106c7611b32565b6040516106d49190615637565b60405180910390f35b3480156106e957600080fd5b5061070460048036038101906106ff91906143df565b611b38565b005b34801561071257600080fd5b5061072d60048036038101906107289190614529565b611bd1565b60405161073a9190615161565b60405180910390f35b34801561074f57600080fd5b50610758611c3f565b6040516107659190615161565b60405180910390f35b34801561077a57600080fd5b5061079560048036038101906107909190614529565b611c69565b005b3480156107a357600080fd5b506107ac611cef565b6040516107b99190615235565b60405180910390f35b3480156107ce57600080fd5b506107e960048036038101906107e4919061436a565b611d81565b005b3480156107f757600080fd5b50610812600480360381019061080d9190614155565b611fe4565b60405161081f9190615637565b60405180910390f35b34801561083457600080fd5b5061083d61202d565b60405161084a9190615637565b60405180910390f35b34801561085f57600080fd5b50610868612037565b604051610875919061521a565b60405180910390f35b34801561088a57600080fd5b506108a560048036038101906108a091906142ad565b61204a565b005b3480156108b357600080fd5b506108ce60048036038101906108c99190614232565b612060565b005b3480156108dc57600080fd5b506108f760048036038101906108f291906143df565b6120c2565b005b34801561090557600080fd5b50610920600480360381019061091b9190614529565b61215b565b60405161092d9190615235565b60405180910390f35b34801561094257600080fd5b5061095d60048036038101906109589190614155565b6121c9565b60405161096a9190615637565b60405180910390f35b34801561097f57600080fd5b50610988612212565b6040516109959190615637565b60405180910390f35b3480156109aa57600080fd5b506109c560048036038101906109c09190614483565b612218565b6040516109d29190615637565b60405180910390f35b3480156109e757600080fd5b50610a0260048036038101906109fd9190614325565b612261565b005b348015610a1057600080fd5b50610a19612396565b604051610a269190615637565b60405180910390f35b348015610a3b57600080fd5b50610a566004803603810190610a5191906141a7565b6123a0565b604051610a63919061521a565b60405180910390f35b610a866004803603810190610a819190614529565b612434565b005b348015610a9457600080fd5b50610aaf6004803603810190610aaa9190614155565b612667565b005b348015610abd57600080fd5b50610ac661275f565b604051610ad3919061521a565b60405180910390f35b600033905090565b60007f780e9d63000000000000000000000000000000000000000000000000000000007bffffffffffffffffffffffffffffffffffffffffffffffffffffffff1916827bffffffffffffffffffffffffffffffffffffffffffffffffffffffff19161480610b575750610b5682612772565b5b9050919050565b610b66610adc565b73ffffffffffffffffffffffffffffffffffffffff16610b84611c3f565b73ffffffffffffffffffffffffffffffffffffffff1614610bda576040517f08c379a0000000000000000000000000000000000000000000000000000000008152600401610bd190615517565b60405180910390fd5b8060139080519060200190610bf0929190613e91565b5050565b606060008054610c0390615956565b80601f0160208091040260200160405190810160405280929190818152602001828054610c2f90615956565b8015610c7c5780601f10610c5157610100808354040283529160200191610c7c565b820191906000526020600020905b815481529060010190602001808311610c5f57829003601f168201915b5050505050905090565b6000610c9182612854565b610cd0576040517f08c379a0000000000000000000000000000000000000000000000000000000008152600401610cc7906154d7565b60405180910390fd5b6004600083815260200190815260200160002060009054906101000a900473ffffffffffffffffffffffffffffffffffffffff169050919050565b6000610d16826118b2565b90508073ffffffffffffffffffffffffffffffffffffffff168373ffffffffffffffffffffffffffffffffffffffff161415610d87576040517f08c379a0000000000000000000000000000000000000000000000000000000008152600401610d7e90615557565b60405180910390fd5b8073ffffffffffffffffffffffffffffffffffffffff16610da6610adc565b73ffffffffffffffffffffffffffffffffffffffff161480610dd55750610dd481610dcf610adc565b6123a0565b5b610e14576040517f08c379a0000000000000000000000000000000000000000000000000000000008152600401610e0b90615417565b60405180910390fd5b610e1e83836128c0565b505050565b6000600880549050905090565b6000600d60008373ffffffffffffffffffffffffffffffffffffffff1673ffffffffffffffffffffffffffffffffffffffff1681526020019081526020016000205411610eb2576040517f08c379a0000000000000000000000000000000000000000000000000000000008152600401610ea990615317565b60405180910390fd5b6000610ebc612396565b47610ec79190615731565b90506000610ede8383610ed986611fe4565b612979565b90506000811415610f24576040517f08c379a0000000000000000000000000000000000000000000000000000000008152600401610f1b906153f7565b60405180910390fd5b80600e60008573ffffffffffffffffffffffffffffffffffffffff1673ffffffffffffffffffffffffffffffffffffffff1681526020019081526020016000206000828254610f739190615731565b9250508190555080600c6000828254610f8c9190615731565b92505081905550610f9d83826129e7565b7fdf20fd1e76bc69d672e4814fafb2c449bba3a5369d8359adf9e05e6fde87b0568382604051610fce92919061517c565b60405180910390a1505050565b60166020528060005260406000206000915090505481565b610ffb610adc565b73ffffffffffffffffffffffffffffffffffffffff16611019611c3f565b73ffffffffffffffffffffffffffffffffffffffff161461106f576040517f08c379a000000000000000000000000000000000000000000000000000000000815260040161106690615517565b60405180910390fd5b8060188190555050565b61108a611084610adc565b82612adb565b6110c9576040517f08c379a00000000000000000000000000000000000000000000000000000000081526004016110c090615597565b60405180910390fd5b6110d4838383612bb9565b505050565b60006110e4836119f2565b8210611125576040517f08c379a000000000000000000000000000000000000000000000000000000000815260040161111c90615277565b60405180910390fd5b600660008473ffffffffffffffffffffffffffffffffffffffff1673ffffffffffffffffffffffffffffffffffffffff168152602001908152602001600020600083815260200190815260200160002054905092915050565b6000600b54905090565b611190610adc565b73ffffffffffffffffffffffffffffffffffffffff166111ae611c3f565b73ffffffffffffffffffffffffffffffffffffffff1614611204576040517f08c379a00000000000000000000000000000000000000000000000000000000081526004016111fb90615517565b60405180910390fd5b60003373ffffffffffffffffffffffffffffffffffffffff164760405161122a9061514c565b60006040518083038185875af1925050503d8060008114611267576040519150601f19603f3d011682016040523d82523d6000602084013e61126c565b606091505b505090508061127a57600080fd5b50565b6000601160008473ffffffffffffffffffffffffffffffffffffffff1673ffffffffffffffffffffffffffffffffffffffff16815260200190815260200160002060008373ffffffffffffffffffffffffffffffffffffffff1673ffffffffffffffffffffffffffffffffffffffff16815260200190815260200160002054905092915050565b61131f83838360405180602001604052806000815250612060565b505050565b60006001611330610e23565b61133a9190615731565b90506000601660003373ffffffffffffffffffffffffffffffffffffffff1673ffffffffffffffffffffffffffffffffffffffff168152602001908152602001600020549050601560009054906101000a900460ff166113cf576040517f08c379a00000000000000000000000000000000000000000000000000000000081526004016113c690615257565b60405180910390fd5b60008311611412576040517f08c379a000000000000000000000000000000000000000000000000000000000815260040161140990615577565b60405180910390fd5b601854831115611457576040517f08c379a000000000000000000000000000000000000000000000000000000000815260040161144e90615617565b60405180910390fd5b60145483836114669190615731565b11156114a7576040517f08c379a000000000000000000000000000000000000000000000000000000000815260040161149e90615617565b60405180910390fd5b826017546114b591906157b8565b3410156114f7576040517f08c379a00000000000000000000000000000000000000000000000000000000081526004016114ee906152f7565b60405180910390fd5b6000811161150457600080fd5b6000905060005b83811015611549576115383382856115239190615731565b60405180602001604052806000815250612e15565b8061154290615988565b905061150b565b5060009150505050565b6000600d60008373ffffffffffffffffffffffffffffffffffffffff1673ffffffffffffffffffffffffffffffffffffffff16815260200190815260200160002054116115d5576040517f08c379a00000000000000000000000000000000000000000000000000000000081526004016115cc90615317565b60405180910390fd5b60006115e083612218565b8373ffffffffffffffffffffffffffffffffffffffff166370a08231306040518263ffffffff1660e01b81526004016116199190615161565b60206040518083038186803b15801561163157600080fd5b505afa158015611645573d6000803e3d6000fd5b505050506040513d601f19601f820116820180604052508101906116699190614552565b6116739190615731565b9050600061168b8383611686878761127d565b612979565b905060008114156116d1576040517f08c379a00000000000000000000000000000000000000000000000000000000081526004016116c8906153f7565b60405180910390fd5b80601160008673ffffffffffffffffffffffffffffffffffffffff1673ffffffffffffffffffffffffffffffffffffffff16815260200190815260200160002060008573ffffffffffffffffffffffffffffffffffffffff1673ffffffffffffffffffffffffffffffffffffffff168152602001908152602001600020600082825461175d9190615731565b9250508190555080601060008673ffffffffffffffffffffffffffffffffffffffff1673ffffffffffffffffffffffffffffffffffffffff16815260200190815260200160002060008282546117b39190615731565b925050819055506117c5848483612e70565b8373ffffffffffffffffffffffffffffffffffffffff167f3be5b7a71e84ed12875d241991c70855ac5817d847039e17a9d895c1ceb0f18a848360405161180d9291906151f1565b60405180910390a250505050565b6000611825610e23565b8210611866576040517f08c379a000000000000000000000000000000000000000000000000000000000815260040161185d906155d7565b60405180910390fd5b600882815481106118a0577f4e487b7100000000000000000000000000000000000000000000000000000000600052603260045260246000fd5b90600052602060002001549050919050565b6000806002600084815260200190815260200160002060009054906101000a900473ffffffffffffffffffffffffffffffffffffffff169050600073ffffffffffffffffffffffffffffffffffffffff168173ffffffffffffffffffffffffffffffffffffffff16141561195b576040517f08c379a000000000000000000000000000000000000000000000000000000000815260040161195290615477565b60405180910390fd5b80915050919050565b6013805461197190615956565b80601f016020809104026020016040519081016040528092919081815260200182805461199d90615956565b80156119ea5780601f106119bf576101008083540402835291602001916119ea565b820191906000526020600020905b8154815290600101906020018083116119cd57829003601f168201915b505050505081565b60008073ffffffffffffffffffffffffffffffffffffffff168273ffffffffffffffffffffffffffffffffffffffff161415611a63576040517f08c379a0000000000000000000000000000000000000000000000000000000008152600401611a5a90615457565b60405180910390fd5b600360008373ffffffffffffffffffffffffffffffffffffffff1673ffffffffffffffffffffffffffffffffffffffff168152602001908152602001600020549050919050565b611ab2610adc565b73ffffffffffffffffffffffffffffffffffffffff16611ad0611c3f565b73ffffffffffffffffffffffffffffffffffffffff1614611b26576040517f08c379a0000000000000000000000000000000000000000000000000000000008152600401611b1d90615517565b60405180910390fd5b611b306000612ef6565b565b60185481565b611b40610adc565b73ffffffffffffffffffffffffffffffffffffffff16611b5e611c3f565b73ffffffffffffffffffffffffffffffffffffffff1614611bb4576040517f08c379a0000000000000000000000000000000000000000000000000000000008152600401611bab90615517565b60405180910390fd5b80601560016101000a81548160ff02191690831515021790555050565b6000600f8281548110611c0d577f4e487b7100000000000000000000000000000000000000000000000000000000600052603260045260246000fd5b9060005260206000200160009054906101000a900473ffffffffffffffffffffffffffffffffffffffff169050919050565b6000600a60009054906101000a900473ffffffffffffffffffffffffffffffffffffffff16905090565b611c71610adc565b73ffffffffffffffffffffffffffffffffffffffff16611c8f611c3f565b73ffffffffffffffffffffffffffffffffffffffff1614611ce5576040517f08c379a0000000000000000000000000000000000000000000000000000000008152600401611cdc90615517565b60405180910390fd5b8060178190555050565b606060018054611cfe90615956565b80601f0160208091040260200160405190810160405280929190818152602001828054611d2a90615956565b8015611d775780601f10611d4c57610100808354040283529160200191611d77565b820191906000526020600020905b815481529060010190602001808311611d5a57829003601f168201915b5050505050905090565b611d89610adc565b73ffffffffffffffffffffffffffffffffffffffff16611da7611c3f565b73ffffffffffffffffffffffffffffffffffffffff1614611dfd576040517f08c379a0000000000000000000000000000000000000000000000000000000008152600401611df490615517565b60405180910390fd5b818190508484905014611e0f57600080fd5b6000806001611e1c610e23565b611e269190615731565b905060005b86869050811015611e9457868682818110611e6f577f4e487b7100000000000000000000000000000000000000000000000000000000600052603260045260246000fd5b9050602002013583611e819190615731565b925080611e8d90615988565b9050611e2b565b506014548282611ea49190615731565b1115611ee5576040517f08c379a0000000000000000000000000000000000000000000000000000000008152600401611edc906154f7565b60405180910390fd5b6000915060005b84849050811015611fd75760005b878783818110611f33577f4e487b7100000000000000000000000000000000000000000000000000000000600052603260045260246000fd5b90506020020135811015611fc557611fb4868684818110611f7d577f4e487b7100000000000000000000000000000000000000000000000000000000600052603260045260246000fd5b9050602002016020810190611f929190614155565b8480611f9d90615988565b955060405180602001604052806000815250612e15565b80611fbe90615988565b9050611efa565b5080611fd090615988565b9050611eec565b5060009050505050505050565b6000600e60008373ffffffffffffffffffffffffffffffffffffffff1673ffffffffffffffffffffffffffffffffffffffff168152602001908152602001600020549050919050565b6000601754905090565b601560009054906101000a900460ff1681565b61205c612055610adc565b8383612fbc565b5050565b61207161206b610adc565b83612adb565b6120b0576040517f08c379a00000000000000000000000000000000000000000000000000000000081526004016120a790615597565b60405180910390fd5b6120bc84848484613129565b50505050565b6120ca610adc565b73ffffffffffffffffffffffffffffffffffffffff166120e8611c3f565b73ffffffffffffffffffffffffffffffffffffffff161461213e576040517f08c379a000000000000000000000000000000000000000000000000000000000815260040161213590615517565b60405180910390fd5b80601560006101000a81548160ff02191690831515021790555050565b606060145482111561216c57600080fd5b6000612176613185565b9050600081511161219657604051806020016040528060008152506121c1565b806121a084613217565b6040516020016121b1929190615128565b6040516020818303038152906040525b915050919050565b6000600d60008373ffffffffffffffffffffffffffffffffffffffff1673ffffffffffffffffffffffffffffffffffffffff168152602001908152602001600020549050919050565b60145481565b6000601060008373ffffffffffffffffffffffffffffffffffffffff1673ffffffffffffffffffffffffffffffffffffffff168152602001908152602001600020549050919050565b612269610adc565b73ffffffffffffffffffffffffffffffffffffffff16612287611c3f565b73ffffffffffffffffffffffffffffffffffffffff16146122dd576040517f08c379a00000000000000000000000000000000000000000000000000000000081526004016122d490615517565b60405180910390fd5b60005b82829050811015612391576018546016600085858581811061232b577f4e487b7100000000000000000000000000000000000000000000000000000000600052603260045260246000fd5b90506020020160208101906123409190614155565b73ffffffffffffffffffffffffffffffffffffffff1673ffffffffffffffffffffffffffffffffffffffff16815260200190815260200160002081905550808061238990615988565b9150506122e0565b505050565b6000600c54905090565b6000600560008473ffffffffffffffffffffffffffffffffffffffff1673ffffffffffffffffffffffffffffffffffffffff16815260200190815260200160002060008373ffffffffffffffffffffffffffffffffffffffff1673ffffffffffffffffffffffffffffffffffffffff16815260200190815260200160002060009054906101000a900460ff16905092915050565b60006001612440610e23565b61244a9190615731565b9050601560019054906101000a900460ff1661249b576040517f08c379a000000000000000000000000000000000000000000000000000000000815260040161249290615497565b60405180910390fd5b60003373ffffffffffffffffffffffffffffffffffffffff1631116124f5576040517f08c379a00000000000000000000000000000000000000000000000000000000081526004016124ec90615437565b60405180910390fd5b60008211612538576040517f08c379a000000000000000000000000000000000000000000000000000000000815260040161252f90615577565b60405180910390fd5b60185482111561257d576040517f08c379a000000000000000000000000000000000000000000000000000000000815260040161257490615617565b60405180910390fd5b601454828261258c9190615731565b11156125cd576040517f08c379a00000000000000000000000000000000000000000000000000000000081526004016125c490615617565b60405180910390fd5b816017546125db91906157b8565b34101561261d576040517f08c379a0000000000000000000000000000000000000000000000000000000008152600401612614906152f7565b60405180910390fd5b60005b8281101561265e5761264d3382846126389190615731565b60405180602001604052806000815250612e15565b8061265790615988565b9050612620565b50600090505050565b61266f610adc565b73ffffffffffffffffffffffffffffffffffffffff1661268d611c3f565b73ffffffffffffffffffffffffffffffffffffffff16146126e3576040517f08c379a00000000000000000000000000000000000000000000000000000000081526004016126da90615517565b60405180910390fd5b600073ffffffffffffffffffffffffffffffffffffffff168173ffffffffffffffffffffffffffffffffffffffff161415612753576040517f08c379a000000000000000000000000000000000000000000000000000000000815260040161274a906152b7565b60405180910390fd5b61275c81612ef6565b50565b601560019054906101000a900460ff1681565b60007f80ac58cd000000000000000000000000000000000000000000000000000000007bffffffffffffffffffffffffffffffffffffffffffffffffffffffff1916827bffffffffffffffffffffffffffffffffffffffffffffffffffffffff1916148061283d57507f5b5e139f000000000000000000000000000000000000000000000000000000007bffffffffffffffffffffffffffffffffffffffffffffffffffffffff1916827bffffffffffffffffffffffffffffffffffffffffffffffffffffffff1916145b8061284d575061284c826133c4565b5b9050919050565b60008073ffffffffffffffffffffffffffffffffffffffff166002600084815260200190815260200160002060009054906101000a900473ffffffffffffffffffffffffffffffffffffffff1673ffffffffffffffffffffffffffffffffffffffff1614159050919050565b816004600083815260200190815260200160002060006101000a81548173ffffffffffffffffffffffffffffffffffffffff021916908373ffffffffffffffffffffffffffffffffffffffff160217905550808273ffffffffffffffffffffffffffffffffffffffff16612933836118b2565b73ffffffffffffffffffffffffffffffffffffffff167f8c5be1e5ebec7d5bd14f71427d1e84f3dd0314c0f7b2291e5b200ac8c7c3b92560405160405180910390a45050565b600081600b54600d60008773ffffffffffffffffffffffffffffffffffffffff1673ffffffffffffffffffffffffffffffffffffffff16815260200190815260200160002054856129ca91906157b8565b6129d49190615787565b6129de9190615812565b90509392505050565b80471015612a2a576040517f08c379a0000000000000000000000000000000000000000000000000000000008152600401612a2190615397565b60405180910390fd5b60008273ffffffffffffffffffffffffffffffffffffffff1682604051612a509061514c565b60006040518083038185875af1925050503d8060008114612a8d576040519150601f19603f3d011682016040523d82523d6000602084013e612a92565b606091505b5050905080612ad6576040517f08c379a0000000000000000000000000000000000000000000000000000000008152600401612acd90615377565b60405180910390fd5b505050565b6000612ae682612854565b612b25576040517f08c379a0000000000000000000000000000000000000000000000000000000008152600401612b1c906153d7565b60405180910390fd5b6000612b30836118b2565b90508073ffffffffffffffffffffffffffffffffffffffff168473ffffffffffffffffffffffffffffffffffffffff161480612b9f57508373ffffffffffffffffffffffffffffffffffffffff16612b8784610c86565b73ffffffffffffffffffffffffffffffffffffffff16145b80612bb05750612baf81856123a0565b5b91505092915050565b8273ffffffffffffffffffffffffffffffffffffffff16612bd9826118b2565b73ffffffffffffffffffffffffffffffffffffffff1614612c2f576040517f08c379a0000000000000000000000000000000000000000000000000000000008152600401612c2690615537565b60405180910390fd5b600073ffffffffffffffffffffffffffffffffffffffff168273ffffffffffffffffffffffffffffffffffffffff161415612c9f576040517f08c379a0000000000000000000000000000000000000000000000000000000008152600401612c9690615337565b60405180910390fd5b612caa83838361342e565b612cb56000826128c0565b6001600360008573ffffffffffffffffffffffffffffffffffffffff1673ffffffffffffffffffffffffffffffffffffffff1681526020019081526020016000206000828254612d059190615812565b925050819055506001600360008473ffffffffffffffffffffffffffffffffffffffff1673ffffffffffffffffffffffffffffffffffffffff1681526020019081526020016000206000828254612d5c9190615731565b92505081905550816002600083815260200190815260200160002060006101000a81548173ffffffffffffffffffffffffffffffffffffffff021916908373ffffffffffffffffffffffffffffffffffffffff160217905550808273ffffffffffffffffffffffffffffffffffffffff168473ffffffffffffffffffffffffffffffffffffffff167fddf252ad1be2c89b69c2b068fc378daa952ba7f163c4a11628f55a4df523b3ef60405160405180910390a4505050565b612e1f8383613542565b612e2c6000848484613710565b612e6b576040517f08c379a0000000000000000000000000000000000000000000000000000000008152600401612e6290615297565b60405180910390fd5b505050565b612ef18363a9059cbb60e01b8484604051602401612e8f9291906151f1565b604051602081830303815290604052907bffffffffffffffffffffffffffffffffffffffffffffffffffffffff19166020820180517bffffffffffffffffffffffffffffffffffffffffffffffffffffffff83818316178352505050506138a7565b505050565b6000600a60009054906101000a900473ffffffffffffffffffffffffffffffffffffffff16905081600a60006101000a81548173ffffffffffffffffffffffffffffffffffffffff021916908373ffffffffffffffffffffffffffffffffffffffff1602179055508173ffffffffffffffffffffffffffffffffffffffff168173ffffffffffffffffffffffffffffffffffffffff167f8be0079c531659141344cd1fd0a4f28419497f9722a3daafe3b4186f6b6457e060405160405180910390a35050565b8173ffffffffffffffffffffffffffffffffffffffff168373ffffffffffffffffffffffffffffffffffffffff16141561302b576040517f08c379a000000000000000000000000000000000000000000000000000000000815260040161302290615357565b60405180910390fd5b80600560008573ffffffffffffffffffffffffffffffffffffffff1673ffffffffffffffffffffffffffffffffffffffff16815260200190815260200160002060008473ffffffffffffffffffffffffffffffffffffffff1673ffffffffffffffffffffffffffffffffffffffff16815260200190815260200160002060006101000a81548160ff0219169083151502179055508173ffffffffffffffffffffffffffffffffffffffff168373ffffffffffffffffffffffffffffffffffffffff167f17307eab39ab6107e8899845ad3d59bd9653f200f220920489ca2b5937696c318360405161311c919061521a565b60405180910390a3505050565b613134848484612bb9565b61314084848484613710565b61317f576040517f08c379a000000000000000000000000000000000000000000000000000000000815260040161317690615297565b60405180910390fd5b50505050565b60606013805461319490615956565b80601f01602080910402602001604051908101604052809291908181526020018280546131c090615956565b801561320d5780601f106131e25761010080835404028352916020019161320d565b820191906000526020600020905b8154815290600101906020018083116131f057829003601f168201915b5050505050905090565b6060600082141561325f576040518060400160405280600181526020017f300000000000000000000000000000000000000000000000000000000000000081525090506133bf565b600082905060005b6000821461329157808061327a90615988565b915050600a8261328a9190615787565b9150613267565b60008167ffffffffffffffff8111156132d3577f4e487b7100000000000000000000000000000000000000000000000000000000600052604160045260246000fd5b6040519080825280601f01601f1916602001820160405280156133055781602001600182028036833780820191505090505b5090505b600085146133b85760018261331e9190615812565b9150600a8561332d91906159d1565b60306133399190615731565b60f81b818381518110613375577f4e487b7100000000000000000000000000000000000000000000000000000000600052603260045260246000fd5b60200101907effffffffffffffffffffffffffffffffffffffffffffffffffffffffffffff1916908160001a905350600a856133b19190615787565b9450613309565b8093505050505b919050565b60007f01ffc9a7000000000000000000000000000000000000000000000000000000007bffffffffffffffffffffffffffffffffffffffffffffffffffffffff1916827bffffffffffffffffffffffffffffffffffffffffffffffffffffffff1916149050919050565b61343983838361396e565b600073ffffffffffffffffffffffffffffffffffffffff168373ffffffffffffffffffffffffffffffffffffffff16141561347c5761347781613973565b6134bb565b8173ffffffffffffffffffffffffffffffffffffffff168373ffffffffffffffffffffffffffffffffffffffff16146134ba576134b983826139bc565b5b5b600073ffffffffffffffffffffffffffffffffffffffff168273ffffffffffffffffffffffffffffffffffffffff1614156134fe576134f981613b29565b61353d565b8273ffffffffffffffffffffffffffffffffffffffff168273ffffffffffffffffffffffffffffffffffffffff161461353c5761353b8282613c6c565b5b5b505050565b600073ffffffffffffffffffffffffffffffffffffffff168273ffffffffffffffffffffffffffffffffffffffff1614156135b2576040517f08c379a00000000000000000000000000000000000000000000000000000000081526004016135a9906154b7565b60405180910390fd5b6135bb81612854565b156135fb576040517f08c379a00000000000000000000000000000000000000000000000000000000081526004016135f2906152d7565b60405180910390fd5b6136076000838361342e565b6001600360008473ffffffffffffffffffffffffffffffffffffffff1673ffffffffffffffffffffffffffffffffffffffff16815260200190815260200160002060008282546136579190615731565b92505081905550816002600083815260200190815260200160002060006101000a81548173ffffffffffffffffffffffffffffffffffffffff021916908373ffffffffffffffffffffffffffffffffffffffff160217905550808273ffffffffffffffffffffffffffffffffffffffff16600073ffffffffffffffffffffffffffffffffffffffff167fddf252ad1be2c89b69c2b068fc378daa952ba7f163c4a11628f55a4df523b3ef60405160405180910390a45050565b60006137318473ffffffffffffffffffffffffffffffffffffffff16613ceb565b1561389a578373ffffffffffffffffffffffffffffffffffffffff1663150b7a0261375a610adc565b8786866040518563ffffffff1660e01b815260040161377c94939291906151a5565b602060405180830381600087803b15801561379657600080fd5b505af19250505080156137c757506040513d601f19601f820116820180604052508101906137c4919061445a565b60015b61384a573d80600081146137f7576040519150601f19603f3d011682016040523d82523d6000602084013e6137fc565b606091505b50600081511415613842576040517f08c379a000000000000000000000000000000000000000000000000000000000815260040161383990615297565b60405180910390fd5b805181602001fd5b63150b7a0260e01b7bffffffffffffffffffffffffffffffffffffffffffffffffffffffff1916817bffffffffffffffffffffffffffffffffffffffffffffffffffffffff19161491505061389f565b600190505b949350505050565b6000613909826040518060400160405280602081526020017f5361666545524332303a206c6f772d6c6576656c2063616c6c206661696c65648152508573ffffffffffffffffffffffffffffffffffffffff16613cfe9092919063ffffffff16565b905060008151111561396957808060200190518101906139299190614408565b613968576040517f08c379a000000000000000000000000000000000000000000000000000000000815260040161395f906155f7565b60405180910390fd5b5b505050565b505050565b6008805490506009600083815260200190815260200160002081905550600881908060018154018082558091505060019003906000526020600020016000909190919091505550565b600060016139c9846119f2565b6139d39190615812565b9050600060076000848152602001908152602001600020549050818114613ab8576000600660008673ffffffffffffffffffffffffffffffffffffffff1673ffffffffffffffffffffffffffffffffffffffff168152602001908152602001600020600084815260200190815260200160002054905080600660008773ffffffffffffffffffffffffffffffffffffffff1673ffffffffffffffffffffffffffffffffffffffff168152602001908152602001600020600084815260200190815260200160002081905550816007600083815260200190815260200160002081905550505b6007600084815260200190815260200160002060009055600660008573ffffffffffffffffffffffffffffffffffffffff1673ffffffffffffffffffffffffffffffffffffffff16815260200190815260200160002060008381526020019081526020016000206000905550505050565b60006001600880549050613b3d9190615812565b9050600060096000848152602001908152602001600020549050600060088381548110613b93577f4e487b7100000000000000000000000000000000000000000000000000000000600052603260045260246000fd5b906000526020600020015490508060088381548110613bdb577f4e487b7100000000000000000000000000000000000000000000000000000000600052603260045260246000fd5b906000526020600020018190555081600960008381526020019081526020016000208190555060096000858152602001908152602001600020600090556008805480613c50577f4e487b7100000000000000000000000000000000000000000000000000000000600052603160045260246000fd5b6001900381819060005260206000200160009055905550505050565b6000613c77836119f2565b905081600660008573ffffffffffffffffffffffffffffffffffffffff1673ffffffffffffffffffffffffffffffffffffffff168152602001908152602001600020600083815260200190815260200160002081905550806007600084815260200190815260200160002081905550505050565b600080823b905060008111915050919050565b6060613d0d8484600085613d16565b90509392505050565b606082471015613d5b576040517f08c379a0000000000000000000000000000000000000000000000000000000008152600401613d52906153b7565b60405180910390fd5b613d6485613ceb565b613da3576040517f08c379a0000000000000000000000000000000000000000000000000000000008152600401613d9a906155b7565b60405180910390fd5b6000808673ffffffffffffffffffffffffffffffffffffffff168587604051613dcc9190615111565b60006040518083038185875af1925050503d8060008114613e09576040519150601f19603f3d011682016040523d82523d6000602084013e613e0e565b606091505b5091509150613e1e828286613e2a565b92505050949350505050565b60608315613e3a57829050613e8a565b600083511115613e4d5782518084602001fd5b816040517f08c379a0000000000000000000000000000000000000000000000000000000008152600401613e819190615235565b60405180910390fd5b9392505050565b828054613e9d90615956565b90600052602060002090601f016020900481019282613ebf5760008555613f06565b82601f10613ed857805160ff1916838001178555613f06565b82800160010185558215613f06579182015b82811115613f05578251825591602001919060010190613eea565b5b509050613f139190613f17565b5090565b5b80821115613f30576000816000905550600101613f18565b5090565b6000613f47613f4284615683565b615652565b905082815260208101848484011115613f5f57600080fd5b613f6a848285615914565b509392505050565b6000613f85613f80846156b3565b615652565b905082815260208101848484011115613f9d57600080fd5b613fa8848285615914565b509392505050565b600081359050613fbf81615acf565b92915050565b600081359050613fd481615ae6565b92915050565b60008083601f840112613fec57600080fd5b8235905067ffffffffffffffff81111561400557600080fd5b60208301915083602082028301111561401d57600080fd5b9250929050565b60008083601f84011261403657600080fd5b8235905067ffffffffffffffff81111561404f57600080fd5b60208301915083602082028301111561406757600080fd5b9250929050565b60008135905061407d81615afd565b92915050565b60008151905061409281615afd565b92915050565b6000813590506140a781615b14565b92915050565b6000815190506140bc81615b14565b92915050565b600082601f8301126140d357600080fd5b81356140e3848260208601613f34565b91505092915050565b6000813590506140fb81615b2b565b92915050565b600082601f83011261411257600080fd5b8135614122848260208601613f72565b91505092915050565b60008135905061413a81615b42565b92915050565b60008151905061414f81615b42565b92915050565b60006020828403121561416757600080fd5b600061417584828501613fb0565b91505092915050565b60006020828403121561419057600080fd5b600061419e84828501613fc5565b91505092915050565b600080604083850312156141ba57600080fd5b60006141c885828601613fb0565b92505060206141d985828601613fb0565b9150509250929050565b6000806000606084860312156141f857600080fd5b600061420686828701613fb0565b935050602061421786828701613fb0565b92505060406142288682870161412b565b9150509250925092565b6000806000806080858703121561424857600080fd5b600061425687828801613fb0565b945050602061426787828801613fb0565b93505060406142788782880161412b565b925050606085013567ffffffffffffffff81111561429557600080fd5b6142a1878288016140c2565b91505092959194509250565b600080604083850312156142c057600080fd5b60006142ce85828601613fb0565b92505060206142df8582860161406e565b9150509250929050565b600080604083850312156142fc57600080fd5b600061430a85828601613fb0565b925050602061431b8582860161412b565b9150509250929050565b6000806020838503121561433857600080fd5b600083013567ffffffffffffffff81111561435257600080fd5b61435e85828601613fda565b92509250509250929050565b6000806000806040858703121561438057600080fd5b600085013567ffffffffffffffff81111561439a57600080fd5b6143a687828801614024565b9450945050602085013567ffffffffffffffff8111156143c557600080fd5b6143d187828801613fda565b925092505092959194509250565b6000602082840312156143f157600080fd5b60006143ff8482850161406e565b91505092915050565b60006020828403121561441a57600080fd5b600061442884828501614083565b91505092915050565b60006020828403121561444357600080fd5b600061445184828501614098565b91505092915050565b60006020828403121561446c57600080fd5b600061447a848285016140ad565b91505092915050565b60006020828403121561449557600080fd5b60006144a3848285016140ec565b91505092915050565b600080604083850312156144bf57600080fd5b60006144cd858286016140ec565b92505060206144de85828601613fb0565b9150509250929050565b6000602082840312156144fa57600080fd5b600082013567ffffffffffffffff81111561451457600080fd5b61452084828501614101565b91505092915050565b60006020828403121561453b57600080fd5b60006145498482850161412b565b91505092915050565b60006020828403121561456457600080fd5b600061457284828501614140565b91505092915050565b614584816158de565b82525050565b61459381615846565b82525050565b6145a28161586a565b82525050565b60006145b3826156e3565b6145bd81856156f9565b93506145cd818560208601615923565b6145d681615abe565b840191505092915050565b60006145ec826156e3565b6145f6818561570a565b9350614606818560208601615923565b80840191505092915050565b600061461d826156ee565b6146278185615715565b9350614637818560208601615923565b61464081615abe565b840191505092915050565b6000614656826156ee565b6146608185615726565b9350614670818560208601615923565b80840191505092915050565b6000614689601783615715565b91507f57686974656c697374206973206e6f74206163746976650000000000000000006000830152602082019050919050565b60006146c9602b83615715565b91507f455243373231456e756d657261626c653a206f776e657220696e646578206f7560008301527f74206f6620626f756e64730000000000000000000000000000000000000000006020830152604082019050919050565b600061472f603283615715565b91507f4552433732313a207472616e7366657220746f206e6f6e20455243373231526560008301527f63656976657220696d706c656d656e74657200000000000000000000000000006020830152604082019050919050565b6000614795602683615715565b91507f4f776e61626c653a206e6577206f776e657220697320746865207a65726f206160008301527f64647265737300000000000000000000000000000000000000000000000000006020830152604082019050919050565b60006147fb601c83615715565b91507f4552433732313a20746f6b656e20616c7265616479206d696e746564000000006000830152602082019050919050565b600061483b601283615715565b91507f45544820696e7075742069732077726f6e6700000000000000000000000000006000830152602082019050919050565b600061487b602683615715565b91507f5061796d656e7453706c69747465723a206163636f756e7420686173206e6f2060008301527f73686172657300000000000000000000000000000000000000000000000000006020830152604082019050919050565b60006148e1602483615715565b91507f4552433732313a207472616e7366657220746f20746865207a65726f2061646460008301527f72657373000000000000000000000000000000000000000000000000000000006020830152604082019050919050565b6000614947601983615715565b91507f4552433732313a20617070726f766520746f2063616c6c6572000000000000006000830152602082019050919050565b6000614987603a83615715565b91507f416464726573733a20756e61626c6520746f2073656e642076616c75652c207260008301527f6563697069656e74206d617920686176652072657665727465640000000000006020830152604082019050919050565b60006149ed601d83615715565b91507f416464726573733a20696e73756666696369656e742062616c616e63650000006000830152602082019050919050565b6000614a2d602683615715565b91507f416464726573733a20696e73756666696369656e742062616c616e636520666f60008301527f722063616c6c00000000000000000000000000000000000000000000000000006020830152604082019050919050565b6000614a93602c83615715565b91507f4552433732313a206f70657261746f7220717565727920666f72206e6f6e657860008301527f697374656e7420746f6b656e00000000000000000000000000000000000000006020830152604082019050919050565b6000614af9602b83615715565b91507f5061796d656e7453706c69747465723a206163636f756e74206973206e6f742060008301527f647565207061796d656e740000000000000000000000000000000000000000006020830152604082019050919050565b6000614b5f603883615715565b91507f4552433732313a20617070726f76652063616c6c6572206973206e6f74206f7760008301527f6e6572206e6f7220617070726f76656420666f7220616c6c00000000000000006020830152604082019050919050565b6000614bc5601383615715565b91507f476f6e6e61206e65656420736f6d6520455448000000000000000000000000006000830152602082019050919050565b6000614c05602a83615715565b91507f4552433732313a2062616c616e636520717565727920666f7220746865207a6560008301527f726f2061646472657373000000000000000000000000000000000000000000006020830152604082019050919050565b6000614c6b602983615715565b91507f4552433732313a206f776e657220717565727920666f72206e6f6e657869737460008301527f656e7420746f6b656e00000000000000000000000000000000000000000000006020830152604082019050919050565b6000614cd1601983615715565b91507f5075626c69632073616c65206973206e6f7420616374697665000000000000006000830152602082019050919050565b6000614d11602083615715565b91507f4552433732313a206d696e7420746f20746865207a65726f20616464726573736000830152602082019050919050565b6000614d51602c83615715565b91507f4552433732313a20617070726f76656420717565727920666f72206e6f6e657860008301527f697374656e7420746f6b656e00000000000000000000000000000000000000006020830152604082019050919050565b6000614db7600883615715565b91507f546f6f206d616e790000000000000000000000000000000000000000000000006000830152602082019050919050565b6000614df7602083615715565b91507f4f776e61626c653a2063616c6c6572206973206e6f7420746865206f776e65726000830152602082019050919050565b6000614e37602983615715565b91507f4552433732313a207472616e73666572206f6620746f6b656e2074686174206960008301527f73206e6f74206f776e00000000000000000000000000000000000000000000006020830152604082019050919050565b6000614e9d602183615715565b91507f4552433732313a20617070726f76616c20746f2063757272656e74206f776e6560008301527f72000000000000000000000000000000000000000000000000000000000000006020830152604082019050919050565b6000614f03601083615715565b91507f4d696e74206d6f7265207468616e2030000000000000000000000000000000006000830152602082019050919050565b6000614f4360008361570a565b9150600082019050919050565b6000614f5d603183615715565b91507f4552433732313a207472616e736665722063616c6c6572206973206e6f74206f60008301527f776e6572206e6f7220617070726f7665640000000000000000000000000000006020830152604082019050919050565b6000614fc3601d83615715565b91507f416464726573733a2063616c6c20746f206e6f6e2d636f6e74726163740000006000830152602082019050919050565b6000615003602c83615715565b91507f455243373231456e756d657261626c653a20676c6f62616c20696e646578206f60008301527f7574206f6620626f756e647300000000000000000000000000000000000000006020830152604082019050919050565b6000615069602a83615715565b91507f5361666545524332303a204552433230206f7065726174696f6e20646964206e60008301527f6f742073756363656564000000000000000000000000000000000000000000006020830152604082019050919050565b60006150cf600983615715565b91507f4d696e74206c65737300000000000000000000000000000000000000000000006000830152602082019050919050565b61510b816158d4565b82525050565b600061511d82846145e1565b915081905092915050565b6000615134828561464b565b9150615140828461464b565b91508190509392505050565b600061515782614f36565b9150819050919050565b6000602082019050615176600083018461458a565b92915050565b6000604082019050615191600083018561457b565b61519e6020830184615102565b9392505050565b60006080820190506151ba600083018761458a565b6151c7602083018661458a565b6151d46040830185615102565b81810360608301526151e681846145a8565b905095945050505050565b6000604082019050615206600083018561458a565b6152136020830184615102565b9392505050565b600060208201905061522f6000830184614599565b92915050565b6000602082019050818103600083015261524f8184614612565b905092915050565b600060208201905081810360008301526152708161467c565b9050919050565b60006020820190508181036000830152615290816146bc565b9050919050565b600060208201905081810360008301526152b081614722565b9050919050565b600060208201905081810360008301526152d081614788565b9050919050565b600060208201905081810360008301526152f0816147ee565b9050919050565b600060208201905081810360008301526153108161482e565b9050919050565b600060208201905081810360008301526153308161486e565b9050919050565b60006020820190508181036000830152615350816148d4565b9050919050565b600060208201905081810360008301526153708161493a565b9050919050565b600060208201905081810360008301526153908161497a565b9050919050565b600060208201905081810360008301526153b0816149e0565b9050919050565b600060208201905081810360008301526153d081614a20565b9050919050565b600060208201905081810360008301526153f081614a86565b9050919050565b6000602082019050818103600083015261541081614aec565b9050919050565b6000602082019050818103600083015261543081614b52565b9050919050565b6000602082019050818103600083015261545081614bb8565b9050919050565b6000602082019050818103600083015261547081614bf8565b9050919050565b6000602082019050818103600083015261549081614c5e565b9050919050565b600060208201905081810360008301526154b081614cc4565b9050919050565b600060208201905081810360008301526154d081614d04565b9050919050565b600060208201905081810360008301526154f081614d44565b9050919050565b6000602082019050818103600083015261551081614daa565b9050919050565b6000602082019050818103600083015261553081614dea565b9050919050565b6000602082019050818103600083015261555081614e2a565b9050919050565b6000602082019050818103600083015261557081614e90565b9050919050565b6000602082019050818103600083015261559081614ef6565b9050919050565b600060208201905081810360008301526155b081614f50565b9050919050565b600060208201905081810360008301526155d081614fb6565b9050919050565b600060208201905081810360008301526155f081614ff6565b9050919050565b600060208201905081810360008301526156108161505c565b9050919050565b60006020820190508181036000830152615630816150c2565b9050919050565b600060208201905061564c6000830184615102565b92915050565b6000604051905081810181811067ffffffffffffffff8211171561567957615678615a8f565b5b8060405250919050565b600067ffffffffffffffff82111561569e5761569d615a8f565b5b601f19601f8301169050602081019050919050565b600067ffffffffffffffff8211156156ce576156cd615a8f565b5b601f19601f8301169050602081019050919050565b600081519050919050565b600081519050919050565b600082825260208201905092915050565b600081905092915050565b600082825260208201905092915050565b600081905092915050565b600061573c826158d4565b9150615747836158d4565b9250827fffffffffffffffffffffffffffffffffffffffffffffffffffffffffffffffff0382111561577c5761577b615a02565b5b828201905092915050565b6000615792826158d4565b915061579d836158d4565b9250826157ad576157ac615a31565b5b828204905092915050565b60006157c3826158d4565b91506157ce836158d4565b9250817fffffffffffffffffffffffffffffffffffffffffffffffffffffffffffffffff048311821515161561580757615806615a02565b5b828202905092915050565b600061581d826158d4565b9150615828836158d4565b92508282101561583b5761583a615a02565b5b828203905092915050565b6000615851826158b4565b9050919050565b6000615863826158b4565b9050919050565b60008115159050919050565b60007fffffffff0000000000000000000000000000000000000000000000000000000082169050919050565b60006158ad82615846565b9050919050565b600073ffffffffffffffffffffffffffffffffffffffff82169050919050565b6000819050919050565b60006158e9826158f0565b9050919050565b60006158fb82615902565b9050919050565b600061590d826158b4565b9050919050565b82818337600083830152505050565b60005b83811015615941578082015181840152602081019050615926565b83811115615950576000848401525b50505050565b6000600282049050600182168061596e57607f821691505b6020821081141561598257615981615a60565b5b50919050565b6000615993826158d4565b91507fffffffffffffffffffffffffffffffffffffffffffffffffffffffffffffffff8214156159c6576159c5615a02565b5b600182019050919050565b60006159dc826158d4565b91506159e7836158d4565b9250826159f7576159f6615a31565b5b828206905092915050565b7f4e487b7100000000000000000000000000000000000000000000000000000000600052601160045260246000fd5b7f4e487b7100000000000000000000000000000000000000000000000000000000600052601260045260246000fd5b7f4e487b7100000000000000000000000000000000000000000000000000000000600052602260045260246000fd5b7f4e487b7100000000000000000000000000000000000000000000000000000000600052604160045260246000fd5b6000601f19601f8301169050919050565b615ad881615846565b8114615ae357600080fd5b50565b615aef81615858565b8114615afa57600080fd5b50565b615b068161586a565b8114615b1157600080fd5b50565b615b1d81615876565b8114615b2857600080fd5b50565b615b34816158a2565b8114615b3f57600080fd5b50565b615b4b816158d4565b8114615b5657600080fd5b5056fea2646970667358221220ca5783ec2d81c9211cef2419eaf6ac8a5c659fd878ec667c5a6a5c0d7261133e64736f6c63430008000033",
  "linkReferences": {},
  "deployedLinkReferences": {}
}