{
  "_format": "hh-sol-artifact-1",
  "contractName": "FreshmanYear",
  "sourceName": "contracts/FreshmanYear.sol",
  "abi": [
    {
      "inputs": [
        {
          "internalType": "string",
          "name": "_name",
          "type": "string"
        },
        {
          "internalType": "string",
          "name": "_symbol",
          "type": "string"
        },
        {
          "internalType": "string",
          "name": "_initBaseURI",
          "type": "string"
        }
      ],
      "stateMutability": "nonpayable",
      "type": "constructor"
    },
    {
      "anonymous": false,
      "inputs": [
        {
          "indexed": true,
          "internalType": "address",
          "name": "owner",
          "type": "address"
        },
        {
          "indexed": true,
          "internalType": "address",
          "name": "approved",
          "type": "address"
        },
        {
          "indexed": true,
          "internalType": "uint256",
          "name": "tokenId",
          "type": "uint256"
        }
      ],
      "name": "Approval",
      "type": "event"
    },
    {
      "anonymous": false,
      "inputs": [
        {
          "indexed": true,
          "internalType": "address",
          "name": "owner",
          "type": "address"
        },
        {
          "indexed": true,
          "internalType": "address",
          "name": "operator",
          "type": "address"
        },
        {
          "indexed": false,
          "internalType": "bool",
          "name": "approved",
          "type": "bool"
        }
      ],
      "name": "ApprovalForAll",
      "type": "event"
    },
    {
      "anonymous": false,
      "inputs": [
        {
          "indexed": true,
          "internalType": "contract IERC20",
          "name": "token",
          "type": "address"
        },
        {
          "indexed": false,
          "internalType": "address",
          "name": "to",
          "type": "address"
        },
        {
          "indexed": false,
          "internalType": "uint256",
          "name": "amount",
          "type": "uint256"
        }
      ],
      "name": "ERC20PaymentReleased",
      "type": "event"
    },
    {
      "anonymous": false,
      "inputs": [
        {
          "indexed": true,
          "internalType": "address",
          "name": "previousOwner",
          "type": "address"
        },
        {
          "indexed": true,
          "internalType": "address",
          "name": "newOwner",
          "type": "address"
        }
      ],
      "name": "OwnershipTransferred",
      "type": "event"
    },
    {
      "anonymous": false,
      "inputs": [
        {
          "indexed": false,
          "internalType": "address",
          "name": "account",
          "type": "address"
        },
        {
          "indexed": false,
          "internalType": "uint256",
          "name": "shares",
          "type": "uint256"
        }
      ],
      "name": "PayeeAdded",
      "type": "event"
    },
    {
      "anonymous": false,
      "inputs": [
        {
          "indexed": false,
          "internalType": "address",
          "name": "from",
          "type": "address"
        },
        {
          "indexed": false,
          "internalType": "uint256",
          "name": "amount",
          "type": "uint256"
        }
      ],
      "name": "PaymentReceived",
      "type": "event"
    },
    {
      "anonymous": false,
      "inputs": [
        {
          "indexed": false,
          "internalType": "address",
          "name": "to",
          "type": "address"
        },
        {
          "indexed": false,
          "internalType": "uint256",
          "name": "amount",
          "type": "uint256"
        }
      ],
      "name": "PaymentReleased",
      "type": "event"
    },
    {
      "anonymous": false,
      "inputs": [
        {
          "indexed": true,
          "internalType": "address",
          "name": "from",
          "type": "address"
        },
        {
          "indexed": true,
          "internalType": "address",
          "name": "to",
          "type": "address"
        },
        {
          "indexed": true,
          "internalType": "uint256",
          "name": "tokenId",
          "type": "uint256"
        }
      ],
      "name": "Transfer",
      "type": "event"
    },
    {
      "inputs": [
        {
          "internalType": "address",
          "name": "to",
          "type": "address"
        },
        {
          "internalType": "uint256",
          "name": "tokenId",
          "type": "uint256"
        }
      ],
      "name": "approve",
      "outputs": [],
      "stateMutability": "nonpayable",
      "type": "function"
    },
    {
      "inputs": [
        {
          "internalType": "address",
          "name": "owner",
          "type": "address"
        }
      ],
      "name": "balanceOf",
      "outputs": [
        {
          "internalType": "uint256",
          "name": "",
          "type": "uint256"
        }
      ],
      "stateMutability": "view",
      "type": "function"
    },
    {
      "inputs": [],
      "name": "baseURI",
      "outputs": [
        {
          "internalType": "string",
          "name": "",
          "type": "string"
        }
      ],
      "stateMutability": "view",
      "type": "function"
    },
    {
      "inputs": [
        {
          "internalType": "uint256",
          "name": "tokenId",
          "type": "uint256"
        }
      ],
      "name": "getApproved",
      "outputs": [
        {
          "internalType": "address",
          "name": "",
          "type": "address"
        }
      ],
      "stateMutability": "view",
      "type": "function"
    },
    {
      "inputs": [
        {
          "internalType": "uint256[]",
          "name": "gifts",
          "type": "uint256[]"
        },
        {
          "internalType": "address[]",
          "name": "recipient",
          "type": "address[]"
        }
      ],
      "name": "gift",
      "outputs": [],
      "stateMutability": "nonpayable",
      "type": "function"
    },
    {
      "inputs": [
        {
          "internalType": "address",
          "name": "owner",
          "type": "address"
        },
        {
          "internalType": "address",
          "name": "operator",
          "type": "address"
        }
      ],
      "name": "isApprovedForAll",
      "outputs": [
        {
          "internalType": "bool",
          "name": "",
          "type": "bool"
        }
      ],
      "stateMutability": "view",
      "type": "function"
    },
    {
      "inputs": [],
      "name": "maxMint",
      "outputs": [
        {
          "internalType": "uint256",
          "name": "",
          "type": "uint256"
        }
      ],
      "stateMutability": "view",
      "type": "function"
    },
    {
      "inputs": [],
      "name": "maxSupply",
      "outputs": [
        {
          "internalType": "uint256",
          "name": "",
          "type": "uint256"
        }
      ],
      "stateMutability": "view",
      "type": "function"
    },
    {
      "inputs": [
        {
          "internalType": "uint256",
          "name": "_tokenAmount",
          "type": "uint256"
        }
      ],
      "name": "mintPublic",
      "outputs": [],
      "stateMutability": "payable",
      "type": "function"
    },
    {
      "inputs": [
        {
          "internalType": "uint256",
          "name": "_tokenAmount",
          "type": "uint256"
        }
      ],
      "name": "mintWhitelist",
      "outputs": [],
      "stateMutability": "payable",
      "type": "function"
    },
    {
      "inputs": [],
      "name": "name",
      "outputs": [
        {
          "internalType": "string",
          "name": "",
          "type": "string"
        }
      ],
      "stateMutability": "view",
      "type": "function"
    },
    {
      "inputs": [
        {
          "internalType": "address",
          "name": "",
          "type": "address"
        }
      ],
      "name": "onWhitelist",
      "outputs": [
        {
          "internalType": "uint256",
          "name": "",
          "type": "uint256"
        }
      ],
      "stateMutability": "view",
      "type": "function"
    },
    {
      "inputs": [],
      "name": "owner",
      "outputs": [
        {
          "internalType": "address",
          "name": "",
          "type": "address"
        }
      ],
      "stateMutability": "view",
      "type": "function"
    },
    {
      "inputs": [
        {
          "internalType": "uint256",
          "name": "tokenId",
          "type": "uint256"
        }
      ],
      "name": "ownerOf",
      "outputs": [
        {
          "internalType": "address",
          "name": "",
          "type": "address"
        }
      ],
      "stateMutability": "view",
      "type": "function"
    },
    {
      "inputs": [
        {
          "internalType": "uint256",
          "name": "index",
          "type": "uint256"
        }
      ],
      "name": "payee",
      "outputs": [
        {
          "internalType": "address",
          "name": "",
          "type": "address"
        }
      ],
      "stateMutability": "view",
      "type": "function"
    },
    {
      "inputs": [],
      "name": "publicStatus",
      "outputs": [
        {
          "internalType": "bool",
          "name": "",
          "type": "bool"
        }
      ],
      "stateMutability": "view",
      "type": "function"
    },
    {
      "inputs": [
        {
          "internalType": "address payable",
          "name": "account",
          "type": "address"
        }
      ],
      "name": "release",
      "outputs": [],
      "stateMutability": "nonpayable",
      "type": "function"
    },
    {
      "inputs": [
        {
          "internalType": "contract IERC20",
          "name": "token",
          "type": "address"
        },
        {
          "internalType": "address",
          "name": "account",
          "type": "address"
        }
      ],
      "name": "release",
      "outputs": [],
      "stateMutability": "nonpayable",
      "type": "function"
    },
    {
      "inputs": [
        {
          "internalType": "contract IERC20",
          "name": "token",
          "type": "address"
        },
        {
          "internalType": "address",
          "name": "account",
          "type": "address"
        }
      ],
      "name": "released",
      "outputs": [
        {
          "internalType": "uint256",
          "name": "",
          "type": "uint256"
        }
      ],
      "stateMutability": "view",
      "type": "function"
    },
    {
      "inputs": [
        {
          "internalType": "address",
          "name": "account",
          "type": "address"
        }
      ],
      "name": "released",
      "outputs": [
        {
          "internalType": "uint256",
          "name": "",
          "type": "uint256"
        }
      ],
      "stateMutability": "view",
      "type": "function"
    },
    {
      "inputs": [],
      "name": "renounceOwnership",
      "outputs": [],
      "stateMutability": "nonpayable",
      "type": "function"
    },
    {
      "inputs": [
        {
          "internalType": "address",
          "name": "from",
          "type": "address"
        },
        {
          "internalType": "address",
          "name": "to",
          "type": "address"
        },
        {
          "internalType": "uint256",
          "name": "tokenId",
          "type": "uint256"
        }
      ],
      "name": "safeTransferFrom",
      "outputs": [],
      "stateMutability": "nonpayable",
      "type": "function"
    },
    {
      "inputs": [
        {
          "internalType": "address",
          "name": "from",
          "type": "address"
        },
        {
          "internalType": "address",
          "name": "to",
          "type": "address"
        },
        {
          "internalType": "uint256",
          "name": "tokenId",
          "type": "uint256"
        },
        {
          "internalType": "bytes",
          "name": "_data",
          "type": "bytes"
        }
      ],
      "name": "safeTransferFrom",
      "outputs": [],
      "stateMutability": "nonpayable",
      "type": "function"
    },
    {
      "inputs": [
        {
          "internalType": "address",
          "name": "operator",
          "type": "address"
        },
        {
          "internalType": "bool",
          "name": "approved",
          "type": "bool"
        }
      ],
      "name": "setApprovalForAll",
      "outputs": [],
      "stateMutability": "nonpayable",
      "type": "function"
    },
    {
      "inputs": [
        {
          "internalType": "uint256",
          "name": "_newMaxMintAmount",
          "type": "uint256"
        }
      ],
      "name": "setMax",
      "outputs": [],
      "stateMutability": "nonpayable",
      "type": "function"
    },
    {
      "inputs": [
        {
          "internalType": "bool",
          "name": "_pstatus",
          "type": "bool"
        }
      ],
      "name": "setP",
      "outputs": [],
      "stateMutability": "nonpayable",
      "type": "function"
    },
    {
      "inputs": [
        {
          "internalType": "uint256",
          "name": "_newPrice",
          "type": "uint256"
        }
      ],
      "name": "setPrice",
      "outputs": [],
      "stateMutability": "nonpayable",
      "type": "function"
    },
    {
      "inputs": [
        {
          "internalType": "string",
          "name": "_newBaseURI",
          "type": "string"
        }
      ],
      "name": "setURI",
      "outputs": [],
      "stateMutability": "nonpayable",
      "type": "function"
    },
    {
      "inputs": [
        {
          "internalType": "bool",
          "name": "_wlstatus",
          "type": "bool"
        }
      ],
      "name": "setWL",
      "outputs": [],
      "stateMutability": "nonpayable",
      "type": "function"
    },
    {
      "inputs": [
        {
          "internalType": "address",
          "name": "account",
          "type": "address"
        }
      ],
      "name": "shares",
      "outputs": [
        {
          "internalType": "uint256",
          "name": "",
          "type": "uint256"
        }
      ],
      "stateMutability": "view",
      "type": "function"
    },
    {
      "inputs": [
        {
          "internalType": "bytes4",
          "name": "interfaceId",
          "type": "bytes4"
        }
      ],
      "name": "supportsInterface",
      "outputs": [
        {
          "internalType": "bool",
          "name": "",
          "type": "bool"
        }
      ],
      "stateMutability": "view",
      "type": "function"
    },
    {
      "inputs": [],
      "name": "symbol",
      "outputs": [
        {
          "internalType": "string",
          "name": "",
          "type": "string"
        }
      ],
      "stateMutability": "view",
      "type": "function"
    },
    {
      "inputs": [
        {
          "internalType": "uint256",
          "name": "index",
          "type": "uint256"
        }
      ],
      "name": "tokenByIndex",
      "outputs": [
        {
          "internalType": "uint256",
          "name": "",
          "type": "uint256"
        }
      ],
      "stateMutability": "view",
      "type": "function"
    },
    {
      "inputs": [
        {
          "internalType": "address",
          "name": "owner",
          "type": "address"
        },
        {
          "internalType": "uint256",
          "name": "index",
          "type": "uint256"
        }
      ],
      "name": "tokenOfOwnerByIndex",
      "outputs": [
        {
          "internalType": "uint256",
          "name": "",
          "type": "uint256"
        }
      ],
      "stateMutability": "view",
      "type": "function"
    },
    {
      "inputs": [
        {
          "internalType": "uint256",
          "name": "tokenId",
          "type": "uint256"
        }
      ],
      "name": "tokenURI",
      "outputs": [
        {
          "internalType": "string",
          "name": "",
          "type": "string"
        }
      ],
      "stateMutability": "view",
      "type": "function"
    },
    {
      "inputs": [
        {
          "internalType": "contract IERC20",
          "name": "token",
          "type": "address"
        }
      ],
      "name": "totalReleased",
      "outputs": [
        {
          "internalType": "uint256",
          "name": "",
          "type": "uint256"
        }
      ],
      "stateMutability": "view",
      "type": "function"
    },
    {
      "inputs": [],
      "name": "totalReleased",
      "outputs": [
        {
          "internalType": "uint256",
          "name": "",
          "type": "uint256"
        }
      ],
      "stateMutability": "view",
      "type": "function"
    },
    {
      "inputs": [],
      "name": "totalShares",
      "outputs": [
        {
          "internalType": "uint256",
          "name": "",
          "type": "uint256"
        }
      ],
      "stateMutability": "view",
      "type": "function"
    },
    {
      "inputs": [],
      "name": "totalSupply",
      "outputs": [
        {
          "internalType": "uint256",
          "name": "",
          "type": "uint256"
        }
      ],
      "stateMutability": "view",
      "type": "function"
    },
    {
      "inputs": [
        {
          "internalType": "address",
          "name": "from",
          "type": "address"
        },
        {
          "internalType": "address",
          "name": "to",
          "type": "address"
        },
        {
          "internalType": "uint256",
          "name": "tokenId",
          "type": "uint256"
        }
      ],
      "name": "transferFrom",
      "outputs": [],
      "stateMutability": "nonpayable",
      "type": "function"
    },
    {
      "inputs": [
        {
          "internalType": "address",
          "name": "newOwner",
          "type": "address"
        }
      ],
      "name": "transferOwnership",
      "outputs": [],
      "stateMutability": "nonpayable",
      "type": "function"
    },
    {
      "inputs": [
        {
          "internalType": "address[]",
          "name": "_addresses",
          "type": "address[]"
        }
      ],
      "name": "whitelistSet",
      "outputs": [],
      "stateMutability": "nonpayable",
      "type": "function"
    },
    {
      "inputs": [],
      "name": "whitelistStatus",
      "outputs": [
        {
          "internalType": "bool",
          "name": "",
          "type": "bool"
        }
      ],
      "stateMutability": "view",
      "type": "function"
    },
    {
      "inputs": [],
      "name": "withdraw",
      "outputs": [],
      "stateMutability": "payable",
      "type": "function"
    },
    {
      "stateMutability": "payable",
      "type": "receive"
    }
  ],
  "bytecode": "0x60806040526101316014556000601560006101000a81548160ff0219169083151502179055506000601560016101000a81548160ff02191690831515021790555067016345785d8a0000601755600a60185560405180604001604052807367b6a6a88de218114ea2a58f5970ccc71215624773ffffffffffffffffffffffffffffffffffffffff1673ffffffffffffffffffffffffffffffffffffffff168152602001731ec0ea2c067e5e87fca9c54e4eef14041018978973ffffffffffffffffffffffffffffffffffffffff1673ffffffffffffffffffffffffffffffffffffffff168152506019906002620000f8929190620007d5565b506040518060400160405280603260ff168152602001603260ff16815250601a9060026200012892919062000864565b503480156200013657600080fd5b5060405162006b2c38038062006b2c83398181016040528101906200015c9190620009dd565b6019805480602002602001604051908101604052809291908181526020018280548015620001e057602002820191906000526020600020905b8160009054906101000a900473ffffffffffffffffffffffffffffffffffffffff1673ffffffffffffffffffffffffffffffffffffffff168152602001906001019080831162000195575b5050505050601a8054806020026020016040519081016040528092919081815260200182805480156200023357602002820191906000526020600020905b8154815260200190600101908083116200021e575b50505050508484816000908051906020019062000252929190620008bb565b5080600190805190602001906200026b929190620008bb565b5050506200028e62000282620003f860201b60201c565b6200040060201b60201c565b8051825114620002d5576040517f08c379a0000000000000000000000000000000000000000000000000000000008152600401620002cc9062000d0f565b60405180910390fd5b60008251116200031c576040517f08c379a0000000000000000000000000000000000000000000000000000000008152600401620003139062000d53565b60405180910390fd5b60005b8251811015620003d357620003bd83828151811062000367577f4e487b7100000000000000000000000000000000000000000000000000000000600052603260045260246000fd5b6020026020010151838381518110620003a9577f4e487b7100000000000000000000000000000000000000000000000000000000600052603260045260246000fd5b6020026020010151620004c660201b60201c565b8080620003ca9062000f16565b9150506200031f565b5050506001601281905550620003ef816200070060201b60201c565b50505062000ff1565b600033905090565b6000600a60009054906101000a900473ffffffffffffffffffffffffffffffffffffffff16905081600a60006101000a81548173ffffffffffffffffffffffffffffffffffffffff021916908373ffffffffffffffffffffffffffffffffffffffff1602179055508173ffffffffffffffffffffffffffffffffffffffff168173ffffffffffffffffffffffffffffffffffffffff167f8be0079c531659141344cd1fd0a4f28419497f9722a3daafe3b4186f6b6457e060405160405180910390a35050565b600073ffffffffffffffffffffffffffffffffffffffff168273ffffffffffffffffffffffffffffffffffffffff16141562000539576040517f08c379a0000000000000000000000000000000000000000000000000000000008152600401620005309062000ccb565b60405180910390fd5b600081116200057f576040517f08c379a0000000000000000000000000000000000000000000000000000000008152600401620005769062000d75565b60405180910390fd5b6000600d60008473ffffffffffffffffffffffffffffffffffffffff1673ffffffffffffffffffffffffffffffffffffffff168152602001908152602001600020541462000604576040517f08c379a0000000000000000000000000000000000000000000000000000000008152600401620005fb9062000d31565b60405180910390fd5b600f829080600181540180825580915050600190039060005260206000200160009091909190916101000a81548173ffffffffffffffffffffffffffffffffffffffff021916908373ffffffffffffffffffffffffffffffffffffffff16021790555080600d60008473ffffffffffffffffffffffffffffffffffffffff1673ffffffffffffffffffffffffffffffffffffffff1681526020019081526020016000208190555080600b54620006bb919062000e0f565b600b819055507f40c340f65e17194d14ddddb073d3c9f888e3cb52b5aae0c6c7706b4fbc905fac8282604051620006f492919062000c9e565b60405180910390a15050565b62000710620003f860201b60201c565b73ffffffffffffffffffffffffffffffffffffffff1662000736620007ab60201b60201c565b73ffffffffffffffffffffffffffffffffffffffff16146200078f576040517f08c379a0000000000000000000000000000000000000000000000000000000008152600401620007869062000ced565b60405180910390fd5b8060139080519060200190620007a7929190620008bb565b5050565b6000600a60009054906101000a900473ffffffffffffffffffffffffffffffffffffffff16905090565b82805482825590600052602060002090810192821562000851579160200282015b82811115620008505782518260006101000a81548173ffffffffffffffffffffffffffffffffffffffff021916908373ffffffffffffffffffffffffffffffffffffffff16021790555091602001919060010190620007f6565b5b5090506200086091906200094c565b5090565b828054828255906000526020600020908101928215620008a8579160200282015b82811115620008a7578251829060ff1690559160200191906001019062000885565b5b509050620008b791906200094c565b5090565b828054620008c99062000ee0565b90600052602060002090601f016020900481019282620008ed576000855562000939565b82601f106200090857805160ff191683800117855562000939565b8280016001018555821562000939579182015b82811115620009385782518255916020019190600101906200091b565b5b5090506200094891906200094c565b5090565b5b80821115620009675760008160009055506001016200094d565b5090565b6000620009826200097c8462000dcb565b62000d97565b9050828152602081018484840111156200099b57600080fd5b620009a884828562000eaa565b509392505050565b600082601f830112620009c257600080fd5b8151620009d48482602086016200096b565b91505092915050565b600080600060608486031215620009f357600080fd5b600084015167ffffffffffffffff81111562000a0e57600080fd5b62000a1c86828701620009b0565b935050602084015167ffffffffffffffff81111562000a3a57600080fd5b62000a4886828701620009b0565b925050604084015167ffffffffffffffff81111562000a6657600080fd5b62000a7486828701620009b0565b9150509250925092565b62000a898162000e6c565b82525050565b600062000a9e602c8362000dfe565b91507f5061796d656e7453706c69747465723a206163636f756e74206973207468652060008301527f7a65726f206164647265737300000000000000000000000000000000000000006020830152604082019050919050565b600062000b0660208362000dfe565b91507f4f776e61626c653a2063616c6c6572206973206e6f7420746865206f776e65726000830152602082019050919050565b600062000b4860328362000dfe565b91507f5061796d656e7453706c69747465723a2070617965657320616e64207368617260008301527f6573206c656e677468206d69736d6174636800000000000000000000000000006020830152604082019050919050565b600062000bb0602b8362000dfe565b91507f5061796d656e7453706c69747465723a206163636f756e7420616c726561647960008301527f20686173207368617265730000000000000000000000000000000000000000006020830152604082019050919050565b600062000c18601a8362000dfe565b91507f5061796d656e7453706c69747465723a206e6f207061796565730000000000006000830152602082019050919050565b600062000c5a601d8362000dfe565b91507f5061796d656e7453706c69747465723a207368617265732061726520300000006000830152602082019050919050565b62000c988162000ea0565b82525050565b600060408201905062000cb5600083018562000a7e565b62000cc4602083018462000c8d565b9392505050565b6000602082019050818103600083015262000ce68162000a8f565b9050919050565b6000602082019050818103600083015262000d088162000af7565b9050919050565b6000602082019050818103600083015262000d2a8162000b39565b9050919050565b6000602082019050818103600083015262000d4c8162000ba1565b9050919050565b6000602082019050818103600083015262000d6e8162000c09565b9050919050565b6000602082019050818103600083015262000d908162000c4b565b9050919050565b6000604051905081810181811067ffffffffffffffff8211171562000dc15762000dc062000fc2565b5b8060405250919050565b600067ffffffffffffffff82111562000de95762000de862000fc2565b5b601f19601f8301169050602081019050919050565b600082825260208201905092915050565b600062000e1c8262000ea0565b915062000e298362000ea0565b9250827fffffffffffffffffffffffffffffffffffffffffffffffffffffffffffffffff0382111562000e615762000e6062000f64565b5b828201905092915050565b600062000e798262000e80565b9050919050565b600073ffffffffffffffffffffffffffffffffffffffff82169050919050565b6000819050919050565b60005b8381101562000eca57808201518184015260208101905062000ead565b8381111562000eda576000848401525b50505050565b6000600282049050600182168062000ef957607f821691505b6020821081141562000f105762000f0f62000f93565b5b50919050565b600062000f238262000ea0565b91507fffffffffffffffffffffffffffffffffffffffffffffffffffffffffffffffff82141562000f595762000f5862000f64565b5b600182019050919050565b7f4e487b7100000000000000000000000000000000000000000000000000000000600052601160045260246000fd5b7f4e487b7100000000000000000000000000000000000000000000000000000000600052602260045260246000fd5b7f4e487b7100000000000000000000000000000000000000000000000000000000600052604160045260246000fd5b615b2b80620010016000396000f3fe60806040526004361061026b5760003560e01c80637501f74111610144578063bd986a2c116100b6578063e00cd1811161007a578063e00cd181146109a5578063e33b7de3146109ce578063e985e9c5146109f9578063efd0cbf914610a36578063f2fde38b14610a52578063f91798b114610a7b576102b2565b8063bd986a2c1461089a578063c87b56dd146108c3578063ce7c2ac214610900578063d5abeb011461093d578063d79779b214610968576102b2565b806395d89b411161010857806395d89b411461078c57806396ea3a47146107b75780639852595c146107e05780639ddf7ad31461081d578063a22cb46514610848578063b88d4fde14610871576102b2565b80637501f741146106a757806384a303d6146106d25780638b83209b146106fb5780638da5cb5b1461073857806391b7f5ed14610763576102b2565b80633a98ef39116101dd57806348b75044116101a157806348b75044146105855780634f6ccce7146105ae5780636352211e146105eb5780636c0360eb1461062857806370a0823114610653578063715018a614610690576102b2565b80633a98ef39146104ce5780633ccfd60b146104f9578063406072a91461050357806342842e0e146105405780634618163e14610569576102b2565b806318160ddd1161022f57806318160ddd146103ae57806319165587146103d95780631d608659146104025780631fe9eabc1461043f57806323b872dd146104685780632f745c5914610491576102b2565b806301ffc9a7146102b757806302fe5305146102f457806306fdde031461031d578063081812fc14610348578063095ea7b314610385576102b2565b366102b2577f6ef95f06320e7a25a04a175ca677b7052bdd97131872c2192525a629f51be770610299610aa6565b346040516102a892919061518d565b60405180910390a1005b600080fd5b3480156102c357600080fd5b506102de60048036038101906102d991906143cd565b610aae565b6040516102eb91906151b6565b60405180910390f35b34801561030057600080fd5b5061031b60048036038101906103169190614484565b610b28565b005b34801561032957600080fd5b50610332610bbe565b60405161033f91906151d1565b60405180910390f35b34801561035457600080fd5b5061036f600480360381019061036a91906144c5565b610c50565b60405161037c91906150fd565b60405180910390f35b34801561039157600080fd5b506103ac60048036038101906103a79190614285565b610cd5565b005b3480156103ba57600080fd5b506103c3610ded565b6040516103d091906155d3565b60405180910390f35b3480156103e557600080fd5b5061040060048036038101906103fb919061411a565b610dfa565b005b34801561040e57600080fd5b50610429600480360381019061042491906140f1565b610fa5565b60405161043691906155d3565b60405180910390f35b34801561044b57600080fd5b50610466600480360381019061046191906144c5565b610fbd565b005b34801561047457600080fd5b5061048f600480360381019061048a919061417f565b611043565b005b34801561049d57600080fd5b506104b860048036038101906104b39190614285565b6110a3565b6040516104c591906155d3565b60405180910390f35b3480156104da57600080fd5b506104e3611148565b6040516104f091906155d3565b60405180910390f35b610501611152565b005b34801561050f57600080fd5b5061052a60048036038101906105259190614448565b611247565b60405161053791906155d3565b60405180910390f35b34801561054c57600080fd5b506105676004803603810190610562919061417f565b6112ce565b005b610583600480360381019061057e91906144c5565b6112ee565b005b34801561059157600080fd5b506105ac60048036038101906105a79190614448565b611511565b005b3480156105ba57600080fd5b506105d560048036038101906105d091906144c5565b6117d9565b6040516105e291906155d3565b60405180910390f35b3480156105f757600080fd5b50610612600480360381019061060d91906144c5565b611870565b60405161061f91906150fd565b60405180910390f35b34801561063457600080fd5b5061063d611922565b60405161064a91906151d1565b60405180910390f35b34801561065f57600080fd5b5061067a600480360381019061067591906140f1565b6119b0565b60405161068791906155d3565b60405180910390f35b34801561069c57600080fd5b506106a5611a68565b005b3480156106b357600080fd5b506106bc611af0565b6040516106c991906155d3565b60405180910390f35b3480156106de57600080fd5b506106f960048036038101906106f4919061437b565b611af6565b005b34801561070757600080fd5b50610722600480360381019061071d91906144c5565b611b8f565b60405161072f91906150fd565b60405180910390f35b34801561074457600080fd5b5061074d611bfd565b60405161075a91906150fd565b60405180910390f35b34801561076f57600080fd5b5061078a600480360381019061078591906144c5565b611c27565b005b34801561079857600080fd5b506107a1611cad565b6040516107ae91906151d1565b60405180910390f35b3480156107c357600080fd5b506107de60048036038101906107d99190614306565b611d3f565b005b3480156107ec57600080fd5b50610807600480360381019061080291906140f1565b611f96565b60405161081491906155d3565b60405180910390f35b34801561082957600080fd5b50610832611fdf565b60405161083f91906151b6565b60405180910390f35b34801561085457600080fd5b5061086f600480360381019061086a9190614249565b611ff2565b005b34801561087d57600080fd5b50610898600480360381019061089391906141ce565b612008565b005b3480156108a657600080fd5b506108c160048036038101906108bc919061437b565b61206a565b005b3480156108cf57600080fd5b506108ea60048036038101906108e591906144c5565b612103565b6040516108f791906151d1565b60405180910390f35b34801561090c57600080fd5b50610927600480360381019061092291906140f1565b612171565b60405161093491906155d3565b60405180910390f35b34801561094957600080fd5b506109526121ba565b60405161095f91906155d3565b60405180910390f35b34801561097457600080fd5b5061098f600480360381019061098a919061441f565b6121c0565b60405161099c91906155d3565b60405180910390f35b3480156109b157600080fd5b506109cc60048036038101906109c791906142c1565b612209565b005b3480156109da57600080fd5b506109e361233e565b6040516109f091906155d3565b60405180910390f35b348015610a0557600080fd5b50610a206004803603810190610a1b9190614143565b612348565b604051610a2d91906151b6565b60405180910390f35b610a506004803603810190610a4b91906144c5565b6123dc565b005b348015610a5e57600080fd5b50610a796004803603810190610a7491906140f1565b612603565b005b348015610a8757600080fd5b50610a906126fb565b604051610a9d91906151b6565b60405180910390f35b600033905090565b60007f780e9d63000000000000000000000000000000000000000000000000000000007bffffffffffffffffffffffffffffffffffffffffffffffffffffffff1916827bffffffffffffffffffffffffffffffffffffffffffffffffffffffff19161480610b215750610b208261270e565b5b9050919050565b610b30610aa6565b73ffffffffffffffffffffffffffffffffffffffff16610b4e611bfd565b73ffffffffffffffffffffffffffffffffffffffff1614610ba4576040517f08c379a0000000000000000000000000000000000000000000000000000000008152600401610b9b90615493565b60405180910390fd5b8060139080519060200190610bba929190613e2d565b5050565b606060008054610bcd906158f2565b80601f0160208091040260200160405190810160405280929190818152602001828054610bf9906158f2565b8015610c465780601f10610c1b57610100808354040283529160200191610c46565b820191906000526020600020905b815481529060010190602001808311610c2957829003601f168201915b5050505050905090565b6000610c5b826127f0565b610c9a576040517f08c379a0000000000000000000000000000000000000000000000000000000008152600401610c9190615453565b60405180910390fd5b6004600083815260200190815260200160002060009054906101000a900473ffffffffffffffffffffffffffffffffffffffff169050919050565b6000610ce082611870565b90508073ffffffffffffffffffffffffffffffffffffffff168373ffffffffffffffffffffffffffffffffffffffff161415610d51576040517f08c379a0000000000000000000000000000000000000000000000000000000008152600401610d48906154f3565b60405180910390fd5b8073ffffffffffffffffffffffffffffffffffffffff16610d70610aa6565b73ffffffffffffffffffffffffffffffffffffffff161480610d9f5750610d9e81610d99610aa6565b612348565b5b610dde576040517f08c379a0000000000000000000000000000000000000000000000000000000008152600401610dd5906153b3565b60405180910390fd5b610de8838361285c565b505050565b6000600880549050905090565b6000600d60008373ffffffffffffffffffffffffffffffffffffffff1673ffffffffffffffffffffffffffffffffffffffff1681526020019081526020016000205411610e7c576040517f08c379a0000000000000000000000000000000000000000000000000000000008152600401610e73906152b3565b60405180910390fd5b6000610e8661233e565b47610e9191906156cd565b90506000610ea88383610ea386611f96565b612915565b90506000811415610eee576040517f08c379a0000000000000000000000000000000000000000000000000000000008152600401610ee590615393565b60405180910390fd5b80600e60008573ffffffffffffffffffffffffffffffffffffffff1673ffffffffffffffffffffffffffffffffffffffff1681526020019081526020016000206000828254610f3d91906156cd565b9250508190555080600c6000828254610f5691906156cd565b92505081905550610f678382612983565b7fdf20fd1e76bc69d672e4814fafb2c449bba3a5369d8359adf9e05e6fde87b0568382604051610f98929190615118565b60405180910390a1505050565b60166020528060005260406000206000915090505481565b610fc5610aa6565b73ffffffffffffffffffffffffffffffffffffffff16610fe3611bfd565b73ffffffffffffffffffffffffffffffffffffffff1614611039576040517f08c379a000000000000000000000000000000000000000000000000000000000815260040161103090615493565b60405180910390fd5b8060188190555050565b61105461104e610aa6565b82612a77565b611093576040517f08c379a000000000000000000000000000000000000000000000000000000000815260040161108a90615533565b60405180910390fd5b61109e838383612b55565b505050565b60006110ae836119b0565b82106110ef576040517f08c379a00000000000000000000000000000000000000000000000000000000081526004016110e690615213565b60405180910390fd5b600660008473ffffffffffffffffffffffffffffffffffffffff1673ffffffffffffffffffffffffffffffffffffffff168152602001908152602001600020600083815260200190815260200160002054905092915050565b6000600b54905090565b61115a610aa6565b73ffffffffffffffffffffffffffffffffffffffff16611178611bfd565b73ffffffffffffffffffffffffffffffffffffffff16146111ce576040517f08c379a00000000000000000000000000000000000000000000000000000000081526004016111c590615493565b60405180910390fd5b60003373ffffffffffffffffffffffffffffffffffffffff16476040516111f4906150e8565b60006040518083038185875af1925050503d8060008114611231576040519150601f19603f3d011682016040523d82523d6000602084013e611236565b606091505b505090508061124457600080fd5b50565b6000601160008473ffffffffffffffffffffffffffffffffffffffff1673ffffffffffffffffffffffffffffffffffffffff16815260200190815260200160002060008373ffffffffffffffffffffffffffffffffffffffff1673ffffffffffffffffffffffffffffffffffffffff16815260200190815260200160002054905092915050565b6112e983838360405180602001604052806000815250612008565b505050565b60006112f8610ded565b90506000601660003373ffffffffffffffffffffffffffffffffffffffff1673ffffffffffffffffffffffffffffffffffffffff168152602001908152602001600020549050601560009054906101000a900460ff1661138d576040517f08c379a0000000000000000000000000000000000000000000000000000000008152600401611384906151f3565b60405180910390fd5b600083116113d0576040517f08c379a00000000000000000000000000000000000000000000000000000000081526004016113c790615513565b60405180910390fd5b601854831115611415576040517f08c379a000000000000000000000000000000000000000000000000000000000815260040161140c906155b3565b60405180910390fd5b601454838361142491906156cd565b1115611465576040517f08c379a000000000000000000000000000000000000000000000000000000000815260040161145c906155b3565b60405180910390fd5b826017546114739190615754565b3410156114b5576040517f08c379a00000000000000000000000000000000000000000000000000000000081526004016114ac90615293565b60405180910390fd5b600081116114c257600080fd5b6000905060005b83811015611507576114f63382856114e191906156cd565b60405180602001604052806000815250612db1565b8061150090615924565b90506114c9565b5060009150505050565b6000600d60008373ffffffffffffffffffffffffffffffffffffffff1673ffffffffffffffffffffffffffffffffffffffff1681526020019081526020016000205411611593576040517f08c379a000000000000000000000000000000000000000000000000000000000815260040161158a906152b3565b60405180910390fd5b600061159e836121c0565b8373ffffffffffffffffffffffffffffffffffffffff166370a08231306040518263ffffffff1660e01b81526004016115d791906150fd565b60206040518083038186803b1580156115ef57600080fd5b505afa158015611603573d6000803e3d6000fd5b505050506040513d601f19601f8201168201806040525081019061162791906144ee565b61163191906156cd565b9050600061164983836116448787611247565b612915565b9050600081141561168f576040517f08c379a000000000000000000000000000000000000000000000000000000000815260040161168690615393565b60405180910390fd5b80601160008673ffffffffffffffffffffffffffffffffffffffff1673ffffffffffffffffffffffffffffffffffffffff16815260200190815260200160002060008573ffffffffffffffffffffffffffffffffffffffff1673ffffffffffffffffffffffffffffffffffffffff168152602001908152602001600020600082825461171b91906156cd565b9250508190555080601060008673ffffffffffffffffffffffffffffffffffffffff1673ffffffffffffffffffffffffffffffffffffffff168152602001908152602001600020600082825461177191906156cd565b92505081905550611783848483612e0c565b8373ffffffffffffffffffffffffffffffffffffffff167f3be5b7a71e84ed12875d241991c70855ac5817d847039e17a9d895c1ceb0f18a84836040516117cb92919061518d565b60405180910390a250505050565b60006117e3610ded565b8210611824576040517f08c379a000000000000000000000000000000000000000000000000000000000815260040161181b90615573565b60405180910390fd5b6008828154811061185e577f4e487b7100000000000000000000000000000000000000000000000000000000600052603260045260246000fd5b90600052602060002001549050919050565b6000806002600084815260200190815260200160002060009054906101000a900473ffffffffffffffffffffffffffffffffffffffff169050600073ffffffffffffffffffffffffffffffffffffffff168173ffffffffffffffffffffffffffffffffffffffff161415611919576040517f08c379a0000000000000000000000000000000000000000000000000000000008152600401611910906153f3565b60405180910390fd5b80915050919050565b6013805461192f906158f2565b80601f016020809104026020016040519081016040528092919081815260200182805461195b906158f2565b80156119a85780601f1061197d576101008083540402835291602001916119a8565b820191906000526020600020905b81548152906001019060200180831161198b57829003601f168201915b505050505081565b60008073ffffffffffffffffffffffffffffffffffffffff168273ffffffffffffffffffffffffffffffffffffffff161415611a21576040517f08c379a0000000000000000000000000000000000000000000000000000000008152600401611a18906153d3565b60405180910390fd5b600360008373ffffffffffffffffffffffffffffffffffffffff1673ffffffffffffffffffffffffffffffffffffffff168152602001908152602001600020549050919050565b611a70610aa6565b73ffffffffffffffffffffffffffffffffffffffff16611a8e611bfd565b73ffffffffffffffffffffffffffffffffffffffff1614611ae4576040517f08c379a0000000000000000000000000000000000000000000000000000000008152600401611adb90615493565b60405180910390fd5b611aee6000612e92565b565b60185481565b611afe610aa6565b73ffffffffffffffffffffffffffffffffffffffff16611b1c611bfd565b73ffffffffffffffffffffffffffffffffffffffff1614611b72576040517f08c379a0000000000000000000000000000000000000000000000000000000008152600401611b6990615493565b60405180910390fd5b80601560016101000a81548160ff02191690831515021790555050565b6000600f8281548110611bcb577f4e487b7100000000000000000000000000000000000000000000000000000000600052603260045260246000fd5b9060005260206000200160009054906101000a900473ffffffffffffffffffffffffffffffffffffffff169050919050565b6000600a60009054906101000a900473ffffffffffffffffffffffffffffffffffffffff16905090565b611c2f610aa6565b73ffffffffffffffffffffffffffffffffffffffff16611c4d611bfd565b73ffffffffffffffffffffffffffffffffffffffff1614611ca3576040517f08c379a0000000000000000000000000000000000000000000000000000000008152600401611c9a90615493565b60405180910390fd5b8060178190555050565b606060018054611cbc906158f2565b80601f0160208091040260200160405190810160405280929190818152602001828054611ce8906158f2565b8015611d355780601f10611d0a57610100808354040283529160200191611d35565b820191906000526020600020905b815481529060010190602001808311611d1857829003601f168201915b5050505050905090565b611d47610aa6565b73ffffffffffffffffffffffffffffffffffffffff16611d65611bfd565b73ffffffffffffffffffffffffffffffffffffffff1614611dbb576040517f08c379a0000000000000000000000000000000000000000000000000000000008152600401611db290615493565b60405180910390fd5b818190508484905014611dcd57600080fd5b600080611dd8610ded565b905060005b86869050811015611e4657868682818110611e21577f4e487b7100000000000000000000000000000000000000000000000000000000600052603260045260246000fd5b9050602002013583611e3391906156cd565b925080611e3f90615924565b9050611ddd565b506014548282611e5691906156cd565b1115611e97576040517f08c379a0000000000000000000000000000000000000000000000000000000008152600401611e8e90615473565b60405180910390fd5b6000915060005b84849050811015611f895760005b878783818110611ee5577f4e487b7100000000000000000000000000000000000000000000000000000000600052603260045260246000fd5b90506020020135811015611f7757611f66868684818110611f2f577f4e487b7100000000000000000000000000000000000000000000000000000000600052603260045260246000fd5b9050602002016020810190611f4491906140f1565b8480611f4f90615924565b955060405180602001604052806000815250612db1565b80611f7090615924565b9050611eac565b5080611f8290615924565b9050611e9e565b5060009050505050505050565b6000600e60008373ffffffffffffffffffffffffffffffffffffffff1673ffffffffffffffffffffffffffffffffffffffff168152602001908152602001600020549050919050565b601560009054906101000a900460ff1681565b612004611ffd610aa6565b8383612f58565b5050565b612019612013610aa6565b83612a77565b612058576040517f08c379a000000000000000000000000000000000000000000000000000000000815260040161204f90615533565b60405180910390fd5b612064848484846130c5565b50505050565b612072610aa6565b73ffffffffffffffffffffffffffffffffffffffff16612090611bfd565b73ffffffffffffffffffffffffffffffffffffffff16146120e6576040517f08c379a00000000000000000000000000000000000000000000000000000000081526004016120dd90615493565b60405180910390fd5b80601560006101000a81548160ff02191690831515021790555050565b606060145482111561211457600080fd5b600061211e613121565b9050600081511161213e5760405180602001604052806000815250612169565b80612148846131b3565b6040516020016121599291906150c4565b6040516020818303038152906040525b915050919050565b6000600d60008373ffffffffffffffffffffffffffffffffffffffff1673ffffffffffffffffffffffffffffffffffffffff168152602001908152602001600020549050919050565b60145481565b6000601060008373ffffffffffffffffffffffffffffffffffffffff1673ffffffffffffffffffffffffffffffffffffffff168152602001908152602001600020549050919050565b612211610aa6565b73ffffffffffffffffffffffffffffffffffffffff1661222f611bfd565b73ffffffffffffffffffffffffffffffffffffffff1614612285576040517f08c379a000000000000000000000000000000000000000000000000000000000815260040161227c90615493565b60405180910390fd5b60005b8282905081101561233957601854601660008585858181106122d3577f4e487b7100000000000000000000000000000000000000000000000000000000600052603260045260246000fd5b90506020020160208101906122e891906140f1565b73ffffffffffffffffffffffffffffffffffffffff1673ffffffffffffffffffffffffffffffffffffffff16815260200190815260200160002081905550808061233190615924565b915050612288565b505050565b6000600c54905090565b6000600560008473ffffffffffffffffffffffffffffffffffffffff1673ffffffffffffffffffffffffffffffffffffffff16815260200190815260200160002060008373ffffffffffffffffffffffffffffffffffffffff1673ffffffffffffffffffffffffffffffffffffffff16815260200190815260200160002060009054906101000a900460ff16905092915050565b60006123e6610ded565b9050601560019054906101000a900460ff16612437576040517f08c379a000000000000000000000000000000000000000000000000000000000815260040161242e90615413565b60405180910390fd5b60003373ffffffffffffffffffffffffffffffffffffffff163111612491576040517f08c379a0000000000000000000000000000000000000000000000000000000008152600401612488906154d3565b60405180910390fd5b600082116124d4576040517f08c379a00000000000000000000000000000000000000000000000000000000081526004016124cb90615513565b60405180910390fd5b601854821115612519576040517f08c379a0000000000000000000000000000000000000000000000000000000008152600401612510906155b3565b60405180910390fd5b601454828261252891906156cd565b1115612569576040517f08c379a0000000000000000000000000000000000000000000000000000000008152600401612560906155b3565b60405180910390fd5b816017546125779190615754565b3410156125b9576040517f08c379a00000000000000000000000000000000000000000000000000000000081526004016125b090615293565b60405180910390fd5b60005b828110156125fa576125e93382846125d491906156cd565b60405180602001604052806000815250612db1565b806125f390615924565b90506125bc565b50600090505050565b61260b610aa6565b73ffffffffffffffffffffffffffffffffffffffff16612629611bfd565b73ffffffffffffffffffffffffffffffffffffffff161461267f576040517f08c379a000000000000000000000000000000000000000000000000000000000815260040161267690615493565b60405180910390fd5b600073ffffffffffffffffffffffffffffffffffffffff168173ffffffffffffffffffffffffffffffffffffffff1614156126ef576040517f08c379a00000000000000000000000000000000000000000000000000000000081526004016126e690615253565b60405180910390fd5b6126f881612e92565b50565b601560019054906101000a900460ff1681565b60007f80ac58cd000000000000000000000000000000000000000000000000000000007bffffffffffffffffffffffffffffffffffffffffffffffffffffffff1916827bffffffffffffffffffffffffffffffffffffffffffffffffffffffff191614806127d957507f5b5e139f000000000000000000000000000000000000000000000000000000007bffffffffffffffffffffffffffffffffffffffffffffffffffffffff1916827bffffffffffffffffffffffffffffffffffffffffffffffffffffffff1916145b806127e957506127e882613360565b5b9050919050565b60008073ffffffffffffffffffffffffffffffffffffffff166002600084815260200190815260200160002060009054906101000a900473ffffffffffffffffffffffffffffffffffffffff1673ffffffffffffffffffffffffffffffffffffffff1614159050919050565b816004600083815260200190815260200160002060006101000a81548173ffffffffffffffffffffffffffffffffffffffff021916908373ffffffffffffffffffffffffffffffffffffffff160217905550808273ffffffffffffffffffffffffffffffffffffffff166128cf83611870565b73ffffffffffffffffffffffffffffffffffffffff167f8c5be1e5ebec7d5bd14f71427d1e84f3dd0314c0f7b2291e5b200ac8c7c3b92560405160405180910390a45050565b600081600b54600d60008773ffffffffffffffffffffffffffffffffffffffff1673ffffffffffffffffffffffffffffffffffffffff16815260200190815260200160002054856129669190615754565b6129709190615723565b61297a91906157ae565b90509392505050565b804710156129c6576040517f08c379a00000000000000000000000000000000000000000000000000000000081526004016129bd90615333565b60405180910390fd5b60008273ffffffffffffffffffffffffffffffffffffffff16826040516129ec906150e8565b60006040518083038185875af1925050503d8060008114612a29576040519150601f19603f3d011682016040523d82523d6000602084013e612a2e565b606091505b5050905080612a72576040517f08c379a0000000000000000000000000000000000000000000000000000000008152600401612a6990615313565b60405180910390fd5b505050565b6000612a82826127f0565b612ac1576040517f08c379a0000000000000000000000000000000000000000000000000000000008152600401612ab890615373565b60405180910390fd5b6000612acc83611870565b90508073ffffffffffffffffffffffffffffffffffffffff168473ffffffffffffffffffffffffffffffffffffffff161480612b3b57508373ffffffffffffffffffffffffffffffffffffffff16612b2384610c50565b73ffffffffffffffffffffffffffffffffffffffff16145b80612b4c5750612b4b8185612348565b5b91505092915050565b8273ffffffffffffffffffffffffffffffffffffffff16612b7582611870565b73ffffffffffffffffffffffffffffffffffffffff1614612bcb576040517f08c379a0000000000000000000000000000000000000000000000000000000008152600401612bc2906154b3565b60405180910390fd5b600073ffffffffffffffffffffffffffffffffffffffff168273ffffffffffffffffffffffffffffffffffffffff161415612c3b576040517f08c379a0000000000000000000000000000000000000000000000000000000008152600401612c32906152d3565b60405180910390fd5b612c468383836133ca565b612c5160008261285c565b6001600360008573ffffffffffffffffffffffffffffffffffffffff1673ffffffffffffffffffffffffffffffffffffffff1681526020019081526020016000206000828254612ca191906157ae565b925050819055506001600360008473ffffffffffffffffffffffffffffffffffffffff1673ffffffffffffffffffffffffffffffffffffffff1681526020019081526020016000206000828254612cf891906156cd565b92505081905550816002600083815260200190815260200160002060006101000a81548173ffffffffffffffffffffffffffffffffffffffff021916908373ffffffffffffffffffffffffffffffffffffffff160217905550808273ffffffffffffffffffffffffffffffffffffffff168473ffffffffffffffffffffffffffffffffffffffff167fddf252ad1be2c89b69c2b068fc378daa952ba7f163c4a11628f55a4df523b3ef60405160405180910390a4505050565b612dbb83836134de565b612dc860008484846136ac565b612e07576040517f08c379a0000000000000000000000000000000000000000000000000000000008152600401612dfe90615233565b60405180910390fd5b505050565b612e8d8363a9059cbb60e01b8484604051602401612e2b92919061518d565b604051602081830303815290604052907bffffffffffffffffffffffffffffffffffffffffffffffffffffffff19166020820180517bffffffffffffffffffffffffffffffffffffffffffffffffffffffff8381831617835250505050613843565b505050565b6000600a60009054906101000a900473ffffffffffffffffffffffffffffffffffffffff16905081600a60006101000a81548173ffffffffffffffffffffffffffffffffffffffff021916908373ffffffffffffffffffffffffffffffffffffffff1602179055508173ffffffffffffffffffffffffffffffffffffffff168173ffffffffffffffffffffffffffffffffffffffff167f8be0079c531659141344cd1fd0a4f28419497f9722a3daafe3b4186f6b6457e060405160405180910390a35050565b8173ffffffffffffffffffffffffffffffffffffffff168373ffffffffffffffffffffffffffffffffffffffff161415612fc7576040517f08c379a0000000000000000000000000000000000000000000000000000000008152600401612fbe906152f3565b60405180910390fd5b80600560008573ffffffffffffffffffffffffffffffffffffffff1673ffffffffffffffffffffffffffffffffffffffff16815260200190815260200160002060008473ffffffffffffffffffffffffffffffffffffffff1673ffffffffffffffffffffffffffffffffffffffff16815260200190815260200160002060006101000a81548160ff0219169083151502179055508173ffffffffffffffffffffffffffffffffffffffff168373ffffffffffffffffffffffffffffffffffffffff167f17307eab39ab6107e8899845ad3d59bd9653f200f220920489ca2b5937696c31836040516130b891906151b6565b60405180910390a3505050565b6130d0848484612b55565b6130dc848484846136ac565b61311b576040517f08c379a000000000000000000000000000000000000000000000000000000000815260040161311290615233565b60405180910390fd5b50505050565b606060138054613130906158f2565b80601f016020809104026020016040519081016040528092919081815260200182805461315c906158f2565b80156131a95780601f1061317e576101008083540402835291602001916131a9565b820191906000526020600020905b81548152906001019060200180831161318c57829003601f168201915b5050505050905090565b606060008214156131fb576040518060400160405280600181526020017f3000000000000000000000000000000000000000000000000000000000000000815250905061335b565b600082905060005b6000821461322d57808061321690615924565b915050600a826132269190615723565b9150613203565b60008167ffffffffffffffff81111561326f577f4e487b7100000000000000000000000000000000000000000000000000000000600052604160045260246000fd5b6040519080825280601f01601f1916602001820160405280156132a15781602001600182028036833780820191505090505b5090505b60008514613354576001826132ba91906157ae565b9150600a856132c9919061596d565b60306132d591906156cd565b60f81b818381518110613311577f4e487b7100000000000000000000000000000000000000000000000000000000600052603260045260246000fd5b60200101907effffffffffffffffffffffffffffffffffffffffffffffffffffffffffffff1916908160001a905350600a8561334d9190615723565b94506132a5565b8093505050505b919050565b60007f01ffc9a7000000000000000000000000000000000000000000000000000000007bffffffffffffffffffffffffffffffffffffffffffffffffffffffff1916827bffffffffffffffffffffffffffffffffffffffffffffffffffffffff1916149050919050565b6133d583838361390a565b600073ffffffffffffffffffffffffffffffffffffffff168373ffffffffffffffffffffffffffffffffffffffff161415613418576134138161390f565b613457565b8173ffffffffffffffffffffffffffffffffffffffff168373ffffffffffffffffffffffffffffffffffffffff1614613456576134558382613958565b5b5b600073ffffffffffffffffffffffffffffffffffffffff168273ffffffffffffffffffffffffffffffffffffffff16141561349a5761349581613ac5565b6134d9565b8273ffffffffffffffffffffffffffffffffffffffff168273ffffffffffffffffffffffffffffffffffffffff16146134d8576134d78282613c08565b5b5b505050565b600073ffffffffffffffffffffffffffffffffffffffff168273ffffffffffffffffffffffffffffffffffffffff16141561354e576040517f08c379a000000000000000000000000000000000000000000000000000000000815260040161354590615433565b60405180910390fd5b613557816127f0565b15613597576040517f08c379a000000000000000000000000000000000000000000000000000000000815260040161358e90615273565b60405180910390fd5b6135a3600083836133ca565b6001600360008473ffffffffffffffffffffffffffffffffffffffff1673ffffffffffffffffffffffffffffffffffffffff16815260200190815260200160002060008282546135f391906156cd565b92505081905550816002600083815260200190815260200160002060006101000a81548173ffffffffffffffffffffffffffffffffffffffff021916908373ffffffffffffffffffffffffffffffffffffffff160217905550808273ffffffffffffffffffffffffffffffffffffffff16600073ffffffffffffffffffffffffffffffffffffffff167fddf252ad1be2c89b69c2b068fc378daa952ba7f163c4a11628f55a4df523b3ef60405160405180910390a45050565b60006136cd8473ffffffffffffffffffffffffffffffffffffffff16613c87565b15613836578373ffffffffffffffffffffffffffffffffffffffff1663150b7a026136f6610aa6565b8786866040518563ffffffff1660e01b81526004016137189493929190615141565b602060405180830381600087803b15801561373257600080fd5b505af192505050801561376357506040513d601f19601f8201168201806040525081019061376091906143f6565b60015b6137e6573d8060008114613793576040519150601f19603f3d011682016040523d82523d6000602084013e613798565b606091505b506000815114156137de576040517f08c379a00000000000000000000000000000000000000000000000000000000081526004016137d590615233565b60405180910390fd5b805181602001fd5b63150b7a0260e01b7bffffffffffffffffffffffffffffffffffffffffffffffffffffffff1916817bffffffffffffffffffffffffffffffffffffffffffffffffffffffff19161491505061383b565b600190505b949350505050565b60006138a5826040518060400160405280602081526020017f5361666545524332303a206c6f772d6c6576656c2063616c6c206661696c65648152508573ffffffffffffffffffffffffffffffffffffffff16613c9a9092919063ffffffff16565b905060008151111561390557808060200190518101906138c591906143a4565b613904576040517f08c379a00000000000000000000000000000000000000000000000000000000081526004016138fb90615593565b60405180910390fd5b5b505050565b505050565b6008805490506009600083815260200190815260200160002081905550600881908060018154018082558091505060019003906000526020600020016000909190919091505550565b60006001613965846119b0565b61396f91906157ae565b9050600060076000848152602001908152602001600020549050818114613a54576000600660008673ffffffffffffffffffffffffffffffffffffffff1673ffffffffffffffffffffffffffffffffffffffff168152602001908152602001600020600084815260200190815260200160002054905080600660008773ffffffffffffffffffffffffffffffffffffffff1673ffffffffffffffffffffffffffffffffffffffff168152602001908152602001600020600084815260200190815260200160002081905550816007600083815260200190815260200160002081905550505b6007600084815260200190815260200160002060009055600660008573ffffffffffffffffffffffffffffffffffffffff1673ffffffffffffffffffffffffffffffffffffffff16815260200190815260200160002060008381526020019081526020016000206000905550505050565b60006001600880549050613ad991906157ae565b9050600060096000848152602001908152602001600020549050600060088381548110613b2f577f4e487b7100000000000000000000000000000000000000000000000000000000600052603260045260246000fd5b906000526020600020015490508060088381548110613b77577f4e487b7100000000000000000000000000000000000000000000000000000000600052603260045260246000fd5b906000526020600020018190555081600960008381526020019081526020016000208190555060096000858152602001908152602001600020600090556008805480613bec577f4e487b7100000000000000000000000000000000000000000000000000000000600052603160045260246000fd5b6001900381819060005260206000200160009055905550505050565b6000613c13836119b0565b905081600660008573ffffffffffffffffffffffffffffffffffffffff1673ffffffffffffffffffffffffffffffffffffffff168152602001908152602001600020600083815260200190815260200160002081905550806007600084815260200190815260200160002081905550505050565b600080823b905060008111915050919050565b6060613ca98484600085613cb2565b90509392505050565b606082471015613cf7576040517f08c379a0000000000000000000000000000000000000000000000000000000008152600401613cee90615353565b60405180910390fd5b613d0085613c87565b613d3f576040517f08c379a0000000000000000000000000000000000000000000000000000000008152600401613d3690615553565b60405180910390fd5b6000808673ffffffffffffffffffffffffffffffffffffffff168587604051613d6891906150ad565b60006040518083038185875af1925050503d8060008114613da5576040519150601f19603f3d011682016040523d82523d6000602084013e613daa565b606091505b5091509150613dba828286613dc6565b92505050949350505050565b60608315613dd657829050613e26565b600083511115613de95782518084602001fd5b816040517f08c379a0000000000000000000000000000000000000000000000000000000008152600401613e1d91906151d1565b60405180910390fd5b9392505050565b828054613e39906158f2565b90600052602060002090601f016020900481019282613e5b5760008555613ea2565b82601f10613e7457805160ff1916838001178555613ea2565b82800160010185558215613ea2579182015b82811115613ea1578251825591602001919060010190613e86565b5b509050613eaf9190613eb3565b5090565b5b80821115613ecc576000816000905550600101613eb4565b5090565b6000613ee3613ede8461561f565b6155ee565b905082815260208101848484011115613efb57600080fd5b613f068482856158b0565b509392505050565b6000613f21613f1c8461564f565b6155ee565b905082815260208101848484011115613f3957600080fd5b613f448482856158b0565b509392505050565b600081359050613f5b81615a6b565b92915050565b600081359050613f7081615a82565b92915050565b60008083601f840112613f8857600080fd5b8235905067ffffffffffffffff811115613fa157600080fd5b602083019150836020820283011115613fb957600080fd5b9250929050565b60008083601f840112613fd257600080fd5b8235905067ffffffffffffffff811115613feb57600080fd5b60208301915083602082028301111561400357600080fd5b9250929050565b60008135905061401981615a99565b92915050565b60008151905061402e81615a99565b92915050565b60008135905061404381615ab0565b92915050565b60008151905061405881615ab0565b92915050565b600082601f83011261406f57600080fd5b813561407f848260208601613ed0565b91505092915050565b60008135905061409781615ac7565b92915050565b600082601f8301126140ae57600080fd5b81356140be848260208601613f0e565b91505092915050565b6000813590506140d681615ade565b92915050565b6000815190506140eb81615ade565b92915050565b60006020828403121561410357600080fd5b600061411184828501613f4c565b91505092915050565b60006020828403121561412c57600080fd5b600061413a84828501613f61565b91505092915050565b6000806040838503121561415657600080fd5b600061416485828601613f4c565b925050602061417585828601613f4c565b9150509250929050565b60008060006060848603121561419457600080fd5b60006141a286828701613f4c565b93505060206141b386828701613f4c565b92505060406141c4868287016140c7565b9150509250925092565b600080600080608085870312156141e457600080fd5b60006141f287828801613f4c565b945050602061420387828801613f4c565b9350506040614214878288016140c7565b925050606085013567ffffffffffffffff81111561423157600080fd5b61423d8782880161405e565b91505092959194509250565b6000806040838503121561425c57600080fd5b600061426a85828601613f4c565b925050602061427b8582860161400a565b9150509250929050565b6000806040838503121561429857600080fd5b60006142a685828601613f4c565b92505060206142b7858286016140c7565b9150509250929050565b600080602083850312156142d457600080fd5b600083013567ffffffffffffffff8111156142ee57600080fd5b6142fa85828601613f76565b92509250509250929050565b6000806000806040858703121561431c57600080fd5b600085013567ffffffffffffffff81111561433657600080fd5b61434287828801613fc0565b9450945050602085013567ffffffffffffffff81111561436157600080fd5b61436d87828801613f76565b925092505092959194509250565b60006020828403121561438d57600080fd5b600061439b8482850161400a565b91505092915050565b6000602082840312156143b657600080fd5b60006143c48482850161401f565b91505092915050565b6000602082840312156143df57600080fd5b60006143ed84828501614034565b91505092915050565b60006020828403121561440857600080fd5b600061441684828501614049565b91505092915050565b60006020828403121561443157600080fd5b600061443f84828501614088565b91505092915050565b6000806040838503121561445b57600080fd5b600061446985828601614088565b925050602061447a85828601613f4c565b9150509250929050565b60006020828403121561449657600080fd5b600082013567ffffffffffffffff8111156144b057600080fd5b6144bc8482850161409d565b91505092915050565b6000602082840312156144d757600080fd5b60006144e5848285016140c7565b91505092915050565b60006020828403121561450057600080fd5b600061450e848285016140dc565b91505092915050565b6145208161587a565b82525050565b61452f816157e2565b82525050565b61453e81615806565b82525050565b600061454f8261567f565b6145598185615695565b93506145698185602086016158bf565b61457281615a5a565b840191505092915050565b60006145888261567f565b61459281856156a6565b93506145a28185602086016158bf565b80840191505092915050565b60006145b98261568a565b6145c381856156b1565b93506145d38185602086016158bf565b6145dc81615a5a565b840191505092915050565b60006145f28261568a565b6145fc81856156c2565b935061460c8185602086016158bf565b80840191505092915050565b60006146256017836156b1565b91507f57686974656c697374206973206e6f74206163746976650000000000000000006000830152602082019050919050565b6000614665602b836156b1565b91507f455243373231456e756d657261626c653a206f776e657220696e646578206f7560008301527f74206f6620626f756e64730000000000000000000000000000000000000000006020830152604082019050919050565b60006146cb6032836156b1565b91507f4552433732313a207472616e7366657220746f206e6f6e20455243373231526560008301527f63656976657220696d706c656d656e74657200000000000000000000000000006020830152604082019050919050565b60006147316026836156b1565b91507f4f776e61626c653a206e6577206f776e657220697320746865207a65726f206160008301527f64647265737300000000000000000000000000000000000000000000000000006020830152604082019050919050565b6000614797601c836156b1565b91507f4552433732313a20746f6b656e20616c7265616479206d696e746564000000006000830152602082019050919050565b60006147d76012836156b1565b91507f45544820696e7075742069732077726f6e6700000000000000000000000000006000830152602082019050919050565b60006148176026836156b1565b91507f5061796d656e7453706c69747465723a206163636f756e7420686173206e6f2060008301527f73686172657300000000000000000000000000000000000000000000000000006020830152604082019050919050565b600061487d6024836156b1565b91507f4552433732313a207472616e7366657220746f20746865207a65726f2061646460008301527f72657373000000000000000000000000000000000000000000000000000000006020830152604082019050919050565b60006148e36019836156b1565b91507f4552433732313a20617070726f766520746f2063616c6c6572000000000000006000830152602082019050919050565b6000614923603a836156b1565b91507f416464726573733a20756e61626c6520746f2073656e642076616c75652c207260008301527f6563697069656e74206d617920686176652072657665727465640000000000006020830152604082019050919050565b6000614989601d836156b1565b91507f416464726573733a20696e73756666696369656e742062616c616e63650000006000830152602082019050919050565b60006149c96026836156b1565b91507f416464726573733a20696e73756666696369656e742062616c616e636520666f60008301527f722063616c6c00000000000000000000000000000000000000000000000000006020830152604082019050919050565b6000614a2f602c836156b1565b91507f4552433732313a206f70657261746f7220717565727920666f72206e6f6e657860008301527f697374656e7420746f6b656e00000000000000000000000000000000000000006020830152604082019050919050565b6000614a95602b836156b1565b91507f5061796d656e7453706c69747465723a206163636f756e74206973206e6f742060008301527f647565207061796d656e740000000000000000000000000000000000000000006020830152604082019050919050565b6000614afb6038836156b1565b91507f4552433732313a20617070726f76652063616c6c6572206973206e6f74206f7760008301527f6e6572206e6f7220617070726f76656420666f7220616c6c00000000000000006020830152604082019050919050565b6000614b61602a836156b1565b91507f4552433732313a2062616c616e636520717565727920666f7220746865207a6560008301527f726f2061646472657373000000000000000000000000000000000000000000006020830152604082019050919050565b6000614bc76029836156b1565b91507f4552433732313a206f776e657220717565727920666f72206e6f6e657869737460008301527f656e7420746f6b656e00000000000000000000000000000000000000000000006020830152604082019050919050565b6000614c2d6019836156b1565b91507f5075626c69632073616c65206973206e6f7420616374697665000000000000006000830152602082019050919050565b6000614c6d6020836156b1565b91507f4552433732313a206d696e7420746f20746865207a65726f20616464726573736000830152602082019050919050565b6000614cad602c836156b1565b91507f4552433732313a20617070726f76656420717565727920666f72206e6f6e657860008301527f697374656e7420746f6b656e00000000000000000000000000000000000000006020830152604082019050919050565b6000614d136008836156b1565b91507f546f6f206d616e790000000000000000000000000000000000000000000000006000830152602082019050919050565b6000614d536020836156b1565b91507f4f776e61626c653a2063616c6c6572206973206e6f7420746865206f776e65726000830152602082019050919050565b6000614d936029836156b1565b91507f4552433732313a207472616e73666572206f6620746f6b656e2074686174206960008301527f73206e6f74206f776e00000000000000000000000000000000000000000000006020830152604082019050919050565b6000614df9600a836156b1565b91507f596f75202042726f6b65000000000000000000000000000000000000000000006000830152602082019050919050565b6000614e396021836156b1565b91507f4552433732313a20617070726f76616c20746f2063757272656e74206f776e6560008301527f72000000000000000000000000000000000000000000000000000000000000006020830152604082019050919050565b6000614e9f6010836156b1565b91507f4d696e74206d6f7265207468616e2030000000000000000000000000000000006000830152602082019050919050565b6000614edf6000836156a6565b9150600082019050919050565b6000614ef96031836156b1565b91507f4552433732313a207472616e736665722063616c6c6572206973206e6f74206f60008301527f776e6572206e6f7220617070726f7665640000000000000000000000000000006020830152604082019050919050565b6000614f5f601d836156b1565b91507f416464726573733a2063616c6c20746f206e6f6e2d636f6e74726163740000006000830152602082019050919050565b6000614f9f602c836156b1565b91507f455243373231456e756d657261626c653a20676c6f62616c20696e646578206f60008301527f7574206f6620626f756e647300000000000000000000000000000000000000006020830152604082019050919050565b6000615005602a836156b1565b91507f5361666545524332303a204552433230206f7065726174696f6e20646964206e60008301527f6f742073756363656564000000000000000000000000000000000000000000006020830152604082019050919050565b600061506b6009836156b1565b91507f4d696e74206c65737300000000000000000000000000000000000000000000006000830152602082019050919050565b6150a781615870565b82525050565b60006150b9828461457d565b915081905092915050565b60006150d082856145e7565b91506150dc82846145e7565b91508190509392505050565b60006150f382614ed2565b9150819050919050565b60006020820190506151126000830184614526565b92915050565b600060408201905061512d6000830185614517565b61513a602083018461509e565b9392505050565b60006080820190506151566000830187614526565b6151636020830186614526565b615170604083018561509e565b81810360608301526151828184614544565b905095945050505050565b60006040820190506151a26000830185614526565b6151af602083018461509e565b9392505050565b60006020820190506151cb6000830184614535565b92915050565b600060208201905081810360008301526151eb81846145ae565b905092915050565b6000602082019050818103600083015261520c81614618565b9050919050565b6000602082019050818103600083015261522c81614658565b9050919050565b6000602082019050818103600083015261524c816146be565b9050919050565b6000602082019050818103600083015261526c81614724565b9050919050565b6000602082019050818103600083015261528c8161478a565b9050919050565b600060208201905081810360008301526152ac816147ca565b9050919050565b600060208201905081810360008301526152cc8161480a565b9050919050565b600060208201905081810360008301526152ec81614870565b9050919050565b6000602082019050818103600083015261530c816148d6565b9050919050565b6000602082019050818103600083015261532c81614916565b9050919050565b6000602082019050818103600083015261534c8161497c565b9050919050565b6000602082019050818103600083015261536c816149bc565b9050919050565b6000602082019050818103600083015261538c81614a22565b9050919050565b600060208201905081810360008301526153ac81614a88565b9050919050565b600060208201905081810360008301526153cc81614aee565b9050919050565b600060208201905081810360008301526153ec81614b54565b9050919050565b6000602082019050818103600083015261540c81614bba565b9050919050565b6000602082019050818103600083015261542c81614c20565b9050919050565b6000602082019050818103600083015261544c81614c60565b9050919050565b6000602082019050818103600083015261546c81614ca0565b9050919050565b6000602082019050818103600083015261548c81614d06565b9050919050565b600060208201905081810360008301526154ac81614d46565b9050919050565b600060208201905081810360008301526154cc81614d86565b9050919050565b600060208201905081810360008301526154ec81614dec565b9050919050565b6000602082019050818103600083015261550c81614e2c565b9050919050565b6000602082019050818103600083015261552c81614e92565b9050919050565b6000602082019050818103600083015261554c81614eec565b9050919050565b6000602082019050818103600083015261556c81614f52565b9050919050565b6000602082019050818103600083015261558c81614f92565b9050919050565b600060208201905081810360008301526155ac81614ff8565b9050919050565b600060208201905081810360008301526155cc8161505e565b9050919050565b60006020820190506155e8600083018461509e565b92915050565b6000604051905081810181811067ffffffffffffffff8211171561561557615614615a2b565b5b8060405250919050565b600067ffffffffffffffff82111561563a57615639615a2b565b5b601f19601f8301169050602081019050919050565b600067ffffffffffffffff82111561566a57615669615a2b565b5b601f19601f8301169050602081019050919050565b600081519050919050565b600081519050919050565b600082825260208201905092915050565b600081905092915050565b600082825260208201905092915050565b600081905092915050565b60006156d882615870565b91506156e383615870565b9250827fffffffffffffffffffffffffffffffffffffffffffffffffffffffffffffffff038211156157185761571761599e565b5b828201905092915050565b600061572e82615870565b915061573983615870565b925082615749576157486159cd565b5b828204905092915050565b600061575f82615870565b915061576a83615870565b9250817fffffffffffffffffffffffffffffffffffffffffffffffffffffffffffffffff04831182151516156157a3576157a261599e565b5b828202905092915050565b60006157b982615870565b91506157c483615870565b9250828210156157d7576157d661599e565b5b828203905092915050565b60006157ed82615850565b9050919050565b60006157ff82615850565b9050919050565b60008115159050919050565b60007fffffffff0000000000000000000000000000000000000000000000000000000082169050919050565b6000615849826157e2565b9050919050565b600073ffffffffffffffffffffffffffffffffffffffff82169050919050565b6000819050919050565b60006158858261588c565b9050919050565b60006158978261589e565b9050919050565b60006158a982615850565b9050919050565b82818337600083830152505050565b60005b838110156158dd5780820151818401526020810190506158c2565b838111156158ec576000848401525b50505050565b6000600282049050600182168061590a57607f821691505b6020821081141561591e5761591d6159fc565b5b50919050565b600061592f82615870565b91507fffffffffffffffffffffffffffffffffffffffffffffffffffffffffffffffff8214156159625761596161599e565b5b600182019050919050565b600061597882615870565b915061598383615870565b925082615993576159926159cd565b5b828206905092915050565b7f4e487b7100000000000000000000000000000000000000000000000000000000600052601160045260246000fd5b7f4e487b7100000000000000000000000000000000000000000000000000000000600052601260045260246000fd5b7f4e487b7100000000000000000000000000000000000000000000000000000000600052602260045260246000fd5b7f4e487b7100000000000000000000000000000000000000000000000000000000600052604160045260246000fd5b6000601f19601f8301169050919050565b615a74816157e2565b8114615a7f57600080fd5b50565b615a8b816157f4565b8114615a9657600080fd5b50565b615aa281615806565b8114615aad57600080fd5b50565b615ab981615812565b8114615ac457600080fd5b50565b615ad08161583e565b8114615adb57600080fd5b50565b615ae781615870565b8114615af257600080fd5b5056fea264697066735822122085f809b05262b0b2ee174a3e0ebf002fa3c18bf11bc4b5bb20b4343c8aa98d4164736f6c63430008000033",
  "linkReferences": {},
  "deployedLinkReferences": {}
}