{
  "_format": "hh-sol-artifact-1",
  "contractName": "FreshmanYear",
  "sourceName": "contracts/FreshmanYear.sol",
  "abi": [
    {
      "inputs": [
        {
          "internalType": "string",
          "name": "_name",
          "type": "string"
        },
        {
          "internalType": "string",
          "name": "_symbol",
          "type": "string"
        },
        {
          "internalType": "string",
          "name": "_initBaseURI",
          "type": "string"
        }
      ],
      "stateMutability": "nonpayable",
      "type": "constructor"
    },
    {
      "anonymous": false,
      "inputs": [
        {
          "indexed": true,
          "internalType": "address",
          "name": "owner",
          "type": "address"
        },
        {
          "indexed": true,
          "internalType": "address",
          "name": "approved",
          "type": "address"
        },
        {
          "indexed": true,
          "internalType": "uint256",
          "name": "tokenId",
          "type": "uint256"
        }
      ],
      "name": "Approval",
      "type": "event"
    },
    {
      "anonymous": false,
      "inputs": [
        {
          "indexed": true,
          "internalType": "address",
          "name": "owner",
          "type": "address"
        },
        {
          "indexed": true,
          "internalType": "address",
          "name": "operator",
          "type": "address"
        },
        {
          "indexed": false,
          "internalType": "bool",
          "name": "approved",
          "type": "bool"
        }
      ],
      "name": "ApprovalForAll",
      "type": "event"
    },
    {
      "anonymous": false,
      "inputs": [
        {
          "indexed": true,
          "internalType": "contract IERC20",
          "name": "token",
          "type": "address"
        },
        {
          "indexed": false,
          "internalType": "address",
          "name": "to",
          "type": "address"
        },
        {
          "indexed": false,
          "internalType": "uint256",
          "name": "amount",
          "type": "uint256"
        }
      ],
      "name": "ERC20PaymentReleased",
      "type": "event"
    },
    {
      "anonymous": false,
      "inputs": [
        {
          "indexed": true,
          "internalType": "address",
          "name": "previousOwner",
          "type": "address"
        },
        {
          "indexed": true,
          "internalType": "address",
          "name": "newOwner",
          "type": "address"
        }
      ],
      "name": "OwnershipTransferred",
      "type": "event"
    },
    {
      "anonymous": false,
      "inputs": [
        {
          "indexed": false,
          "internalType": "address",
          "name": "account",
          "type": "address"
        },
        {
          "indexed": false,
          "internalType": "uint256",
          "name": "shares",
          "type": "uint256"
        }
      ],
      "name": "PayeeAdded",
      "type": "event"
    },
    {
      "anonymous": false,
      "inputs": [
        {
          "indexed": false,
          "internalType": "address",
          "name": "from",
          "type": "address"
        },
        {
          "indexed": false,
          "internalType": "uint256",
          "name": "amount",
          "type": "uint256"
        }
      ],
      "name": "PaymentReceived",
      "type": "event"
    },
    {
      "anonymous": false,
      "inputs": [
        {
          "indexed": false,
          "internalType": "address",
          "name": "to",
          "type": "address"
        },
        {
          "indexed": false,
          "internalType": "uint256",
          "name": "amount",
          "type": "uint256"
        }
      ],
      "name": "PaymentReleased",
      "type": "event"
    },
    {
      "anonymous": false,
      "inputs": [
        {
          "indexed": true,
          "internalType": "address",
          "name": "from",
          "type": "address"
        },
        {
          "indexed": true,
          "internalType": "address",
          "name": "to",
          "type": "address"
        },
        {
          "indexed": true,
          "internalType": "uint256",
          "name": "tokenId",
          "type": "uint256"
        }
      ],
      "name": "Transfer",
      "type": "event"
    },
    {
      "inputs": [
        {
          "internalType": "address",
          "name": "to",
          "type": "address"
        },
        {
          "internalType": "uint256",
          "name": "tokenId",
          "type": "uint256"
        }
      ],
      "name": "approve",
      "outputs": [],
      "stateMutability": "nonpayable",
      "type": "function"
    },
    {
      "inputs": [
        {
          "internalType": "address",
          "name": "owner",
          "type": "address"
        }
      ],
      "name": "balanceOf",
      "outputs": [
        {
          "internalType": "uint256",
          "name": "",
          "type": "uint256"
        }
      ],
      "stateMutability": "view",
      "type": "function"
    },
    {
      "inputs": [],
      "name": "baseURI",
      "outputs": [
        {
          "internalType": "string",
          "name": "",
          "type": "string"
        }
      ],
      "stateMutability": "view",
      "type": "function"
    },
    {
      "inputs": [
        {
          "internalType": "uint256",
          "name": "tokenId",
          "type": "uint256"
        }
      ],
      "name": "getApproved",
      "outputs": [
        {
          "internalType": "address",
          "name": "",
          "type": "address"
        }
      ],
      "stateMutability": "view",
      "type": "function"
    },
    {
      "inputs": [
        {
          "internalType": "uint256[]",
          "name": "gifts",
          "type": "uint256[]"
        },
        {
          "internalType": "address[]",
          "name": "recipient",
          "type": "address[]"
        }
      ],
      "name": "gift",
      "outputs": [],
      "stateMutability": "nonpayable",
      "type": "function"
    },
    {
      "inputs": [
        {
          "internalType": "address",
          "name": "owner",
          "type": "address"
        },
        {
          "internalType": "address",
          "name": "operator",
          "type": "address"
        }
      ],
      "name": "isApprovedForAll",
      "outputs": [
        {
          "internalType": "bool",
          "name": "",
          "type": "bool"
        }
      ],
      "stateMutability": "view",
      "type": "function"
    },
    {
      "inputs": [],
      "name": "maxMint",
      "outputs": [
        {
          "internalType": "uint256",
          "name": "",
          "type": "uint256"
        }
      ],
      "stateMutability": "view",
      "type": "function"
    },
    {
      "inputs": [],
      "name": "maxSupply",
      "outputs": [
        {
          "internalType": "uint256",
          "name": "",
          "type": "uint256"
        }
      ],
      "stateMutability": "view",
      "type": "function"
    },
    {
      "inputs": [
        {
          "internalType": "uint256",
          "name": "_tokenAmount",
          "type": "uint256"
        }
      ],
      "name": "mintPublic",
      "outputs": [],
      "stateMutability": "payable",
      "type": "function"
    },
    {
      "inputs": [
        {
          "internalType": "uint256",
          "name": "_tokenAmount",
          "type": "uint256"
        }
      ],
      "name": "mintWhitelist",
      "outputs": [],
      "stateMutability": "payable",
      "type": "function"
    },
    {
      "inputs": [],
      "name": "name",
      "outputs": [
        {
          "internalType": "string",
          "name": "",
          "type": "string"
        }
      ],
      "stateMutability": "view",
      "type": "function"
    },
    {
      "inputs": [
        {
          "internalType": "address",
          "name": "",
          "type": "address"
        }
      ],
      "name": "onWhitelist",
      "outputs": [
        {
          "internalType": "uint256",
          "name": "",
          "type": "uint256"
        }
      ],
      "stateMutability": "view",
      "type": "function"
    },
    {
      "inputs": [],
      "name": "owner",
      "outputs": [
        {
          "internalType": "address",
          "name": "",
          "type": "address"
        }
      ],
      "stateMutability": "view",
      "type": "function"
    },
    {
      "inputs": [
        {
          "internalType": "uint256",
          "name": "tokenId",
          "type": "uint256"
        }
      ],
      "name": "ownerOf",
      "outputs": [
        {
          "internalType": "address",
          "name": "",
          "type": "address"
        }
      ],
      "stateMutability": "view",
      "type": "function"
    },
    {
      "inputs": [
        {
          "internalType": "uint256",
          "name": "index",
          "type": "uint256"
        }
      ],
      "name": "payee",
      "outputs": [
        {
          "internalType": "address",
          "name": "",
          "type": "address"
        }
      ],
      "stateMutability": "view",
      "type": "function"
    },
    {
      "inputs": [],
      "name": "publicStatus",
      "outputs": [
        {
          "internalType": "bool",
          "name": "",
          "type": "bool"
        }
      ],
      "stateMutability": "view",
      "type": "function"
    },
    {
      "inputs": [
        {
          "internalType": "address payable",
          "name": "account",
          "type": "address"
        }
      ],
      "name": "release",
      "outputs": [],
      "stateMutability": "nonpayable",
      "type": "function"
    },
    {
      "inputs": [
        {
          "internalType": "contract IERC20",
          "name": "token",
          "type": "address"
        },
        {
          "internalType": "address",
          "name": "account",
          "type": "address"
        }
      ],
      "name": "release",
      "outputs": [],
      "stateMutability": "nonpayable",
      "type": "function"
    },
    {
      "inputs": [
        {
          "internalType": "contract IERC20",
          "name": "token",
          "type": "address"
        },
        {
          "internalType": "address",
          "name": "account",
          "type": "address"
        }
      ],
      "name": "released",
      "outputs": [
        {
          "internalType": "uint256",
          "name": "",
          "type": "uint256"
        }
      ],
      "stateMutability": "view",
      "type": "function"
    },
    {
      "inputs": [
        {
          "internalType": "address",
          "name": "account",
          "type": "address"
        }
      ],
      "name": "released",
      "outputs": [
        {
          "internalType": "uint256",
          "name": "",
          "type": "uint256"
        }
      ],
      "stateMutability": "view",
      "type": "function"
    },
    {
      "inputs": [],
      "name": "renounceOwnership",
      "outputs": [],
      "stateMutability": "nonpayable",
      "type": "function"
    },
    {
      "inputs": [
        {
          "internalType": "address",
          "name": "from",
          "type": "address"
        },
        {
          "internalType": "address",
          "name": "to",
          "type": "address"
        },
        {
          "internalType": "uint256",
          "name": "tokenId",
          "type": "uint256"
        }
      ],
      "name": "safeTransferFrom",
      "outputs": [],
      "stateMutability": "nonpayable",
      "type": "function"
    },
    {
      "inputs": [
        {
          "internalType": "address",
          "name": "from",
          "type": "address"
        },
        {
          "internalType": "address",
          "name": "to",
          "type": "address"
        },
        {
          "internalType": "uint256",
          "name": "tokenId",
          "type": "uint256"
        },
        {
          "internalType": "bytes",
          "name": "_data",
          "type": "bytes"
        }
      ],
      "name": "safeTransferFrom",
      "outputs": [],
      "stateMutability": "nonpayable",
      "type": "function"
    },
    {
      "inputs": [
        {
          "internalType": "address",
          "name": "operator",
          "type": "address"
        },
        {
          "internalType": "bool",
          "name": "approved",
          "type": "bool"
        }
      ],
      "name": "setApprovalForAll",
      "outputs": [],
      "stateMutability": "nonpayable",
      "type": "function"
    },
    {
      "inputs": [
        {
          "internalType": "uint256",
          "name": "_newMaxMintAmount",
          "type": "uint256"
        }
      ],
      "name": "setMax",
      "outputs": [],
      "stateMutability": "nonpayable",
      "type": "function"
    },
    {
      "inputs": [
        {
          "internalType": "bool",
          "name": "_pstatus",
          "type": "bool"
        }
      ],
      "name": "setP",
      "outputs": [],
      "stateMutability": "nonpayable",
      "type": "function"
    },
    {
      "inputs": [
        {
          "internalType": "uint256",
          "name": "_newPrice",
          "type": "uint256"
        }
      ],
      "name": "setPrice",
      "outputs": [],
      "stateMutability": "nonpayable",
      "type": "function"
    },
    {
      "inputs": [
        {
          "internalType": "string",
          "name": "_newBaseURI",
          "type": "string"
        }
      ],
      "name": "setURI",
      "outputs": [],
      "stateMutability": "nonpayable",
      "type": "function"
    },
    {
      "inputs": [
        {
          "internalType": "bool",
          "name": "_wlstatus",
          "type": "bool"
        }
      ],
      "name": "setWL",
      "outputs": [],
      "stateMutability": "nonpayable",
      "type": "function"
    },
    {
      "inputs": [
        {
          "internalType": "address",
          "name": "account",
          "type": "address"
        }
      ],
      "name": "shares",
      "outputs": [
        {
          "internalType": "uint256",
          "name": "",
          "type": "uint256"
        }
      ],
      "stateMutability": "view",
      "type": "function"
    },
    {
      "inputs": [
        {
          "internalType": "bytes4",
          "name": "interfaceId",
          "type": "bytes4"
        }
      ],
      "name": "supportsInterface",
      "outputs": [
        {
          "internalType": "bool",
          "name": "",
          "type": "bool"
        }
      ],
      "stateMutability": "view",
      "type": "function"
    },
    {
      "inputs": [],
      "name": "symbol",
      "outputs": [
        {
          "internalType": "string",
          "name": "",
          "type": "string"
        }
      ],
      "stateMutability": "view",
      "type": "function"
    },
    {
      "inputs": [
        {
          "internalType": "uint256",
          "name": "index",
          "type": "uint256"
        }
      ],
      "name": "tokenByIndex",
      "outputs": [
        {
          "internalType": "uint256",
          "name": "",
          "type": "uint256"
        }
      ],
      "stateMutability": "view",
      "type": "function"
    },
    {
      "inputs": [
        {
          "internalType": "address",
          "name": "owner",
          "type": "address"
        },
        {
          "internalType": "uint256",
          "name": "index",
          "type": "uint256"
        }
      ],
      "name": "tokenOfOwnerByIndex",
      "outputs": [
        {
          "internalType": "uint256",
          "name": "",
          "type": "uint256"
        }
      ],
      "stateMutability": "view",
      "type": "function"
    },
    {
      "inputs": [
        {
          "internalType": "uint256",
          "name": "tokenId",
          "type": "uint256"
        }
      ],
      "name": "tokenURI",
      "outputs": [
        {
          "internalType": "string",
          "name": "",
          "type": "string"
        }
      ],
      "stateMutability": "view",
      "type": "function"
    },
    {
      "inputs": [
        {
          "internalType": "contract IERC20",
          "name": "token",
          "type": "address"
        }
      ],
      "name": "totalReleased",
      "outputs": [
        {
          "internalType": "uint256",
          "name": "",
          "type": "uint256"
        }
      ],
      "stateMutability": "view",
      "type": "function"
    },
    {
      "inputs": [],
      "name": "totalReleased",
      "outputs": [
        {
          "internalType": "uint256",
          "name": "",
          "type": "uint256"
        }
      ],
      "stateMutability": "view",
      "type": "function"
    },
    {
      "inputs": [],
      "name": "totalShares",
      "outputs": [
        {
          "internalType": "uint256",
          "name": "",
          "type": "uint256"
        }
      ],
      "stateMutability": "view",
      "type": "function"
    },
    {
      "inputs": [],
      "name": "totalSupply",
      "outputs": [
        {
          "internalType": "uint256",
          "name": "",
          "type": "uint256"
        }
      ],
      "stateMutability": "view",
      "type": "function"
    },
    {
      "inputs": [
        {
          "internalType": "address",
          "name": "from",
          "type": "address"
        },
        {
          "internalType": "address",
          "name": "to",
          "type": "address"
        },
        {
          "internalType": "uint256",
          "name": "tokenId",
          "type": "uint256"
        }
      ],
      "name": "transferFrom",
      "outputs": [],
      "stateMutability": "nonpayable",
      "type": "function"
    },
    {
      "inputs": [
        {
          "internalType": "address",
          "name": "newOwner",
          "type": "address"
        }
      ],
      "name": "transferOwnership",
      "outputs": [],
      "stateMutability": "nonpayable",
      "type": "function"
    },
    {
      "inputs": [
        {
          "internalType": "address[]",
          "name": "_addresses",
          "type": "address[]"
        }
      ],
      "name": "whitelistSet",
      "outputs": [],
      "stateMutability": "nonpayable",
      "type": "function"
    },
    {
      "inputs": [],
      "name": "whitelistStatus",
      "outputs": [
        {
          "internalType": "bool",
          "name": "",
          "type": "bool"
        }
      ],
      "stateMutability": "view",
      "type": "function"
    },
    {
      "inputs": [],
      "name": "withdraw",
      "outputs": [],
      "stateMutability": "payable",
      "type": "function"
    },
    {
      "stateMutability": "payable",
      "type": "receive"
    }
  ],
  "bytecode": "0x60806040526101316014556000601560006101000a81548160ff0219169083151502179055506000601560016101000a81548160ff02191690831515021790555067016345785d8a0000601755600a60185560405180604001604052807367b6a6a88de218114ea2a58f5970ccc71215624773ffffffffffffffffffffffffffffffffffffffff1673ffffffffffffffffffffffffffffffffffffffff168152602001731ec0ea2c067e5e87fca9c54e4eef14041018978973ffffffffffffffffffffffffffffffffffffffff1673ffffffffffffffffffffffffffffffffffffffff168152506019906002620000f8929190620007d5565b506040518060400160405280603260ff168152602001603260ff16815250601a9060026200012892919062000864565b503480156200013657600080fd5b5060405162006a7238038062006a7283398181016040528101906200015c9190620009dd565b6019805480602002602001604051908101604052809291908181526020018280548015620001e057602002820191906000526020600020905b8160009054906101000a900473ffffffffffffffffffffffffffffffffffffffff1673ffffffffffffffffffffffffffffffffffffffff168152602001906001019080831162000195575b5050505050601a8054806020026020016040519081016040528092919081815260200182805480156200023357602002820191906000526020600020905b8154815260200190600101908083116200021e575b50505050508484816000908051906020019062000252929190620008bb565b5080600190805190602001906200026b929190620008bb565b5050506200028e62000282620003f860201b60201c565b6200040060201b60201c565b8051825114620002d5576040517f08c379a0000000000000000000000000000000000000000000000000000000008152600401620002cc9062000d0f565b60405180910390fd5b60008251116200031c576040517f08c379a0000000000000000000000000000000000000000000000000000000008152600401620003139062000d53565b60405180910390fd5b60005b8251811015620003d357620003bd83828151811062000367577f4e487b7100000000000000000000000000000000000000000000000000000000600052603260045260246000fd5b6020026020010151838381518110620003a9577f4e487b7100000000000000000000000000000000000000000000000000000000600052603260045260246000fd5b6020026020010151620004c660201b60201c565b8080620003ca9062000f16565b9150506200031f565b5050506001601281905550620003ef816200070060201b60201c565b50505062000ff1565b600033905090565b6000600a60009054906101000a900473ffffffffffffffffffffffffffffffffffffffff16905081600a60006101000a81548173ffffffffffffffffffffffffffffffffffffffff021916908373ffffffffffffffffffffffffffffffffffffffff1602179055508173ffffffffffffffffffffffffffffffffffffffff168173ffffffffffffffffffffffffffffffffffffffff167f8be0079c531659141344cd1fd0a4f28419497f9722a3daafe3b4186f6b6457e060405160405180910390a35050565b600073ffffffffffffffffffffffffffffffffffffffff168273ffffffffffffffffffffffffffffffffffffffff16141562000539576040517f08c379a0000000000000000000000000000000000000000000000000000000008152600401620005309062000ccb565b60405180910390fd5b600081116200057f576040517f08c379a0000000000000000000000000000000000000000000000000000000008152600401620005769062000d75565b60405180910390fd5b6000600d60008473ffffffffffffffffffffffffffffffffffffffff1673ffffffffffffffffffffffffffffffffffffffff168152602001908152602001600020541462000604576040517f08c379a0000000000000000000000000000000000000000000000000000000008152600401620005fb9062000d31565b60405180910390fd5b600f829080600181540180825580915050600190039060005260206000200160009091909190916101000a81548173ffffffffffffffffffffffffffffffffffffffff021916908373ffffffffffffffffffffffffffffffffffffffff16021790555080600d60008473ffffffffffffffffffffffffffffffffffffffff1673ffffffffffffffffffffffffffffffffffffffff1681526020019081526020016000208190555080600b54620006bb919062000e0f565b600b819055507f40c340f65e17194d14ddddb073d3c9f888e3cb52b5aae0c6c7706b4fbc905fac8282604051620006f492919062000c9e565b60405180910390a15050565b62000710620003f860201b60201c565b73ffffffffffffffffffffffffffffffffffffffff1662000736620007ab60201b60201c565b73ffffffffffffffffffffffffffffffffffffffff16146200078f576040517f08c379a0000000000000000000000000000000000000000000000000000000008152600401620007869062000ced565b60405180910390fd5b8060139080519060200190620007a7929190620008bb565b5050565b6000600a60009054906101000a900473ffffffffffffffffffffffffffffffffffffffff16905090565b82805482825590600052602060002090810192821562000851579160200282015b82811115620008505782518260006101000a81548173ffffffffffffffffffffffffffffffffffffffff021916908373ffffffffffffffffffffffffffffffffffffffff16021790555091602001919060010190620007f6565b5b5090506200086091906200094c565b5090565b828054828255906000526020600020908101928215620008a8579160200282015b82811115620008a7578251829060ff1690559160200191906001019062000885565b5b509050620008b791906200094c565b5090565b828054620008c99062000ee0565b90600052602060002090601f016020900481019282620008ed576000855562000939565b82601f106200090857805160ff191683800117855562000939565b8280016001018555821562000939579182015b82811115620009385782518255916020019190600101906200091b565b5b5090506200094891906200094c565b5090565b5b80821115620009675760008160009055506001016200094d565b5090565b6000620009826200097c8462000dcb565b62000d97565b9050828152602081018484840111156200099b57600080fd5b620009a884828562000eaa565b509392505050565b600082601f830112620009c257600080fd5b8151620009d48482602086016200096b565b91505092915050565b600080600060608486031215620009f357600080fd5b600084015167ffffffffffffffff81111562000a0e57600080fd5b62000a1c86828701620009b0565b935050602084015167ffffffffffffffff81111562000a3a57600080fd5b62000a4886828701620009b0565b925050604084015167ffffffffffffffff81111562000a6657600080fd5b62000a7486828701620009b0565b9150509250925092565b62000a898162000e6c565b82525050565b600062000a9e602c8362000dfe565b91507f5061796d656e7453706c69747465723a206163636f756e74206973207468652060008301527f7a65726f206164647265737300000000000000000000000000000000000000006020830152604082019050919050565b600062000b0660208362000dfe565b91507f4f776e61626c653a2063616c6c6572206973206e6f7420746865206f776e65726000830152602082019050919050565b600062000b4860328362000dfe565b91507f5061796d656e7453706c69747465723a2070617965657320616e64207368617260008301527f6573206c656e677468206d69736d6174636800000000000000000000000000006020830152604082019050919050565b600062000bb0602b8362000dfe565b91507f5061796d656e7453706c69747465723a206163636f756e7420616c726561647960008301527f20686173207368617265730000000000000000000000000000000000000000006020830152604082019050919050565b600062000c18601a8362000dfe565b91507f5061796d656e7453706c69747465723a206e6f207061796565730000000000006000830152602082019050919050565b600062000c5a601d8362000dfe565b91507f5061796d656e7453706c69747465723a207368617265732061726520300000006000830152602082019050919050565b62000c988162000ea0565b82525050565b600060408201905062000cb5600083018562000a7e565b62000cc4602083018462000c8d565b9392505050565b6000602082019050818103600083015262000ce68162000a8f565b9050919050565b6000602082019050818103600083015262000d088162000af7565b9050919050565b6000602082019050818103600083015262000d2a8162000b39565b9050919050565b6000602082019050818103600083015262000d4c8162000ba1565b9050919050565b6000602082019050818103600083015262000d6e8162000c09565b9050919050565b6000602082019050818103600083015262000d908162000c4b565b9050919050565b6000604051905081810181811067ffffffffffffffff8211171562000dc15762000dc062000fc2565b5b8060405250919050565b600067ffffffffffffffff82111562000de95762000de862000fc2565b5b601f19601f8301169050602081019050919050565b600082825260208201905092915050565b600062000e1c8262000ea0565b915062000e298362000ea0565b9250827fffffffffffffffffffffffffffffffffffffffffffffffffffffffffffffffff0382111562000e615762000e6062000f64565b5b828201905092915050565b600062000e798262000e80565b9050919050565b600073ffffffffffffffffffffffffffffffffffffffff82169050919050565b6000819050919050565b60005b8381101562000eca57808201518184015260208101905062000ead565b8381111562000eda576000848401525b50505050565b6000600282049050600182168062000ef957607f821691505b6020821081141562000f105762000f0f62000f93565b5b50919050565b600062000f238262000ea0565b91507fffffffffffffffffffffffffffffffffffffffffffffffffffffffffffffffff82141562000f595762000f5862000f64565b5b600182019050919050565b7f4e487b7100000000000000000000000000000000000000000000000000000000600052601160045260246000fd5b7f4e487b7100000000000000000000000000000000000000000000000000000000600052602260045260246000fd5b7f4e487b7100000000000000000000000000000000000000000000000000000000600052604160045260246000fd5b615a7180620010016000396000f3fe60806040526004361061026b5760003560e01c80637501f74111610144578063bd986a2c116100b6578063e00cd1811161007a578063e00cd181146109a5578063e33b7de3146109ce578063e985e9c5146109f9578063efd0cbf914610a36578063f2fde38b14610a52578063f91798b114610a7b576102b2565b8063bd986a2c1461089a578063c87b56dd146108c3578063ce7c2ac214610900578063d5abeb011461093d578063d79779b214610968576102b2565b806395d89b411161010857806395d89b411461078c57806396ea3a47146107b75780639852595c146107e05780639ddf7ad31461081d578063a22cb46514610848578063b88d4fde14610871576102b2565b80637501f741146106a757806384a303d6146106d25780638b83209b146106fb5780638da5cb5b1461073857806391b7f5ed14610763576102b2565b80633a98ef39116101dd57806348b75044116101a157806348b75044146105855780634f6ccce7146105ae5780636352211e146105eb5780636c0360eb1461062857806370a0823114610653578063715018a614610690576102b2565b80633a98ef39146104ce5780633ccfd60b146104f9578063406072a91461050357806342842e0e146105405780634618163e14610569576102b2565b806318160ddd1161022f57806318160ddd146103ae57806319165587146103d95780631d608659146104025780631fe9eabc1461043f57806323b872dd146104685780632f745c5914610491576102b2565b806301ffc9a7146102b757806302fe5305146102f457806306fdde031461031d578063081812fc14610348578063095ea7b314610385576102b2565b366102b2577f6ef95f06320e7a25a04a175ca677b7052bdd97131872c2192525a629f51be770610299610aa6565b346040516102a89291906150f3565b60405180910390a1005b600080fd5b3480156102c357600080fd5b506102de60048036038101906102d99190614373565b610aae565b6040516102eb919061511c565b60405180910390f35b34801561030057600080fd5b5061031b6004803603810190610316919061442a565b610b28565b005b34801561032957600080fd5b50610332610bbe565b60405161033f9190615137565b60405180910390f35b34801561035457600080fd5b5061036f600480360381019061036a919061446b565b610c50565b60405161037c9190615063565b60405180910390f35b34801561039157600080fd5b506103ac60048036038101906103a7919061422b565b610cd5565b005b3480156103ba57600080fd5b506103c3610ded565b6040516103d09190615519565b60405180910390f35b3480156103e557600080fd5b5061040060048036038101906103fb91906140c0565b610dfa565b005b34801561040e57600080fd5b5061042960048036038101906104249190614097565b610fa5565b6040516104369190615519565b60405180910390f35b34801561044b57600080fd5b506104666004803603810190610461919061446b565b610fbd565b005b34801561047457600080fd5b5061048f600480360381019061048a9190614125565b611043565b005b34801561049d57600080fd5b506104b860048036038101906104b3919061422b565b6110a3565b6040516104c59190615519565b60405180910390f35b3480156104da57600080fd5b506104e3611148565b6040516104f09190615519565b60405180910390f35b610501611152565b005b34801561050f57600080fd5b5061052a600480360381019061052591906143ee565b611247565b6040516105379190615519565b60405180910390f35b34801561054c57600080fd5b5061056760048036038101906105629190614125565b6112ce565b005b610583600480360381019061057e919061446b565b6112ee565b005b34801561059157600080fd5b506105ac60048036038101906105a791906143ee565b611511565b005b3480156105ba57600080fd5b506105d560048036038101906105d0919061446b565b6117d9565b6040516105e29190615519565b60405180910390f35b3480156105f757600080fd5b50610612600480360381019061060d919061446b565b611870565b60405161061f9190615063565b60405180910390f35b34801561063457600080fd5b5061063d611922565b60405161064a9190615137565b60405180910390f35b34801561065f57600080fd5b5061067a60048036038101906106759190614097565b6119b0565b6040516106879190615519565b60405180910390f35b34801561069c57600080fd5b506106a5611a68565b005b3480156106b357600080fd5b506106bc611af0565b6040516106c99190615519565b60405180910390f35b3480156106de57600080fd5b506106f960048036038101906106f49190614321565b611af6565b005b34801561070757600080fd5b50610722600480360381019061071d919061446b565b611b8f565b60405161072f9190615063565b60405180910390f35b34801561074457600080fd5b5061074d611bfd565b60405161075a9190615063565b60405180910390f35b34801561076f57600080fd5b5061078a6004803603810190610785919061446b565b611c27565b005b34801561079857600080fd5b506107a1611cad565b6040516107ae9190615137565b60405180910390f35b3480156107c357600080fd5b506107de60048036038101906107d991906142ac565b611d3f565b005b3480156107ec57600080fd5b5061080760048036038101906108029190614097565b611f96565b6040516108149190615519565b60405180910390f35b34801561082957600080fd5b50610832611fdf565b60405161083f919061511c565b60405180910390f35b34801561085457600080fd5b5061086f600480360381019061086a91906141ef565b611ff2565b005b34801561087d57600080fd5b5061089860048036038101906108939190614174565b612008565b005b3480156108a657600080fd5b506108c160048036038101906108bc9190614321565b61206a565b005b3480156108cf57600080fd5b506108ea60048036038101906108e5919061446b565b612103565b6040516108f79190615137565b60405180910390f35b34801561090c57600080fd5b5061092760048036038101906109229190614097565b612171565b6040516109349190615519565b60405180910390f35b34801561094957600080fd5b506109526121ba565b60405161095f9190615519565b60405180910390f35b34801561097457600080fd5b5061098f600480360381019061098a91906143c5565b6121c0565b60405161099c9190615519565b60405180910390f35b3480156109b157600080fd5b506109cc60048036038101906109c79190614267565b612209565b005b3480156109da57600080fd5b506109e361233e565b6040516109f09190615519565b60405180910390f35b348015610a0557600080fd5b50610a206004803603810190610a1b91906140e9565b612348565b604051610a2d919061511c565b60405180910390f35b610a506004803603810190610a4b919061446b565b6123dc565b005b348015610a5e57600080fd5b50610a796004803603810190610a749190614097565b6125a9565b005b348015610a8757600080fd5b50610a906126a1565b604051610a9d919061511c565b60405180910390f35b600033905090565b60007f780e9d63000000000000000000000000000000000000000000000000000000007bffffffffffffffffffffffffffffffffffffffffffffffffffffffff1916827bffffffffffffffffffffffffffffffffffffffffffffffffffffffff19161480610b215750610b20826126b4565b5b9050919050565b610b30610aa6565b73ffffffffffffffffffffffffffffffffffffffff16610b4e611bfd565b73ffffffffffffffffffffffffffffffffffffffff1614610ba4576040517f08c379a0000000000000000000000000000000000000000000000000000000008152600401610b9b906153f9565b60405180910390fd5b8060139080519060200190610bba929190613dd3565b5050565b606060008054610bcd90615838565b80601f0160208091040260200160405190810160405280929190818152602001828054610bf990615838565b8015610c465780601f10610c1b57610100808354040283529160200191610c46565b820191906000526020600020905b815481529060010190602001808311610c2957829003601f168201915b5050505050905090565b6000610c5b82612796565b610c9a576040517f08c379a0000000000000000000000000000000000000000000000000000000008152600401610c91906153b9565b60405180910390fd5b6004600083815260200190815260200160002060009054906101000a900473ffffffffffffffffffffffffffffffffffffffff169050919050565b6000610ce082611870565b90508073ffffffffffffffffffffffffffffffffffffffff168373ffffffffffffffffffffffffffffffffffffffff161415610d51576040517f08c379a0000000000000000000000000000000000000000000000000000000008152600401610d4890615439565b60405180910390fd5b8073ffffffffffffffffffffffffffffffffffffffff16610d70610aa6565b73ffffffffffffffffffffffffffffffffffffffff161480610d9f5750610d9e81610d99610aa6565b612348565b5b610dde576040517f08c379a0000000000000000000000000000000000000000000000000000000008152600401610dd590615319565b60405180910390fd5b610de88383612802565b505050565b6000600880549050905090565b6000600d60008373ffffffffffffffffffffffffffffffffffffffff1673ffffffffffffffffffffffffffffffffffffffff1681526020019081526020016000205411610e7c576040517f08c379a0000000000000000000000000000000000000000000000000000000008152600401610e7390615219565b60405180910390fd5b6000610e8661233e565b47610e919190615613565b90506000610ea88383610ea386611f96565b6128bb565b90506000811415610eee576040517f08c379a0000000000000000000000000000000000000000000000000000000008152600401610ee5906152f9565b60405180910390fd5b80600e60008573ffffffffffffffffffffffffffffffffffffffff1673ffffffffffffffffffffffffffffffffffffffff1681526020019081526020016000206000828254610f3d9190615613565b9250508190555080600c6000828254610f569190615613565b92505081905550610f678382612929565b7fdf20fd1e76bc69d672e4814fafb2c449bba3a5369d8359adf9e05e6fde87b0568382604051610f9892919061507e565b60405180910390a1505050565b60166020528060005260406000206000915090505481565b610fc5610aa6565b73ffffffffffffffffffffffffffffffffffffffff16610fe3611bfd565b73ffffffffffffffffffffffffffffffffffffffff1614611039576040517f08c379a0000000000000000000000000000000000000000000000000000000008152600401611030906153f9565b60405180910390fd5b8060188190555050565b61105461104e610aa6565b82612a1d565b611093576040517f08c379a000000000000000000000000000000000000000000000000000000000815260040161108a90615479565b60405180910390fd5b61109e838383612afb565b505050565b60006110ae836119b0565b82106110ef576040517f08c379a00000000000000000000000000000000000000000000000000000000081526004016110e690615179565b60405180910390fd5b600660008473ffffffffffffffffffffffffffffffffffffffff1673ffffffffffffffffffffffffffffffffffffffff168152602001908152602001600020600083815260200190815260200160002054905092915050565b6000600b54905090565b61115a610aa6565b73ffffffffffffffffffffffffffffffffffffffff16611178611bfd565b73ffffffffffffffffffffffffffffffffffffffff16146111ce576040517f08c379a00000000000000000000000000000000000000000000000000000000081526004016111c5906153f9565b60405180910390fd5b60003373ffffffffffffffffffffffffffffffffffffffff16476040516111f49061504e565b60006040518083038185875af1925050503d8060008114611231576040519150601f19603f3d011682016040523d82523d6000602084013e611236565b606091505b505090508061124457600080fd5b50565b6000601160008473ffffffffffffffffffffffffffffffffffffffff1673ffffffffffffffffffffffffffffffffffffffff16815260200190815260200160002060008373ffffffffffffffffffffffffffffffffffffffff1673ffffffffffffffffffffffffffffffffffffffff16815260200190815260200160002054905092915050565b6112e983838360405180602001604052806000815250612008565b505050565b60006112f8610ded565b90506000601660003373ffffffffffffffffffffffffffffffffffffffff1673ffffffffffffffffffffffffffffffffffffffff168152602001908152602001600020549050601560009054906101000a900460ff1661138d576040517f08c379a000000000000000000000000000000000000000000000000000000000815260040161138490615159565b60405180910390fd5b600083116113d0576040517f08c379a00000000000000000000000000000000000000000000000000000000081526004016113c790615459565b60405180910390fd5b601854831115611415576040517f08c379a000000000000000000000000000000000000000000000000000000000815260040161140c906154f9565b60405180910390fd5b60145483836114249190615613565b1115611465576040517f08c379a000000000000000000000000000000000000000000000000000000000815260040161145c906154f9565b60405180910390fd5b82601754611473919061569a565b3410156114b5576040517f08c379a00000000000000000000000000000000000000000000000000000000081526004016114ac906151f9565b60405180910390fd5b600081116114c257600080fd5b6000905060005b83811015611507576114f63382856114e19190615613565b60405180602001604052806000815250612d57565b806115009061586a565b90506114c9565b5060009150505050565b6000600d60008373ffffffffffffffffffffffffffffffffffffffff1673ffffffffffffffffffffffffffffffffffffffff1681526020019081526020016000205411611593576040517f08c379a000000000000000000000000000000000000000000000000000000000815260040161158a90615219565b60405180910390fd5b600061159e836121c0565b8373ffffffffffffffffffffffffffffffffffffffff166370a08231306040518263ffffffff1660e01b81526004016115d79190615063565b60206040518083038186803b1580156115ef57600080fd5b505afa158015611603573d6000803e3d6000fd5b505050506040513d601f19601f820116820180604052508101906116279190614494565b6116319190615613565b9050600061164983836116448787611247565b6128bb565b9050600081141561168f576040517f08c379a0000000000000000000000000000000000000000000000000000000008152600401611686906152f9565b60405180910390fd5b80601160008673ffffffffffffffffffffffffffffffffffffffff1673ffffffffffffffffffffffffffffffffffffffff16815260200190815260200160002060008573ffffffffffffffffffffffffffffffffffffffff1673ffffffffffffffffffffffffffffffffffffffff168152602001908152602001600020600082825461171b9190615613565b9250508190555080601060008673ffffffffffffffffffffffffffffffffffffffff1673ffffffffffffffffffffffffffffffffffffffff16815260200190815260200160002060008282546117719190615613565b92505081905550611783848483612db2565b8373ffffffffffffffffffffffffffffffffffffffff167f3be5b7a71e84ed12875d241991c70855ac5817d847039e17a9d895c1ceb0f18a84836040516117cb9291906150f3565b60405180910390a250505050565b60006117e3610ded565b8210611824576040517f08c379a000000000000000000000000000000000000000000000000000000000815260040161181b906154b9565b60405180910390fd5b6008828154811061185e577f4e487b7100000000000000000000000000000000000000000000000000000000600052603260045260246000fd5b90600052602060002001549050919050565b6000806002600084815260200190815260200160002060009054906101000a900473ffffffffffffffffffffffffffffffffffffffff169050600073ffffffffffffffffffffffffffffffffffffffff168173ffffffffffffffffffffffffffffffffffffffff161415611919576040517f08c379a000000000000000000000000000000000000000000000000000000000815260040161191090615359565b60405180910390fd5b80915050919050565b6013805461192f90615838565b80601f016020809104026020016040519081016040528092919081815260200182805461195b90615838565b80156119a85780601f1061197d576101008083540402835291602001916119a8565b820191906000526020600020905b81548152906001019060200180831161198b57829003601f168201915b505050505081565b60008073ffffffffffffffffffffffffffffffffffffffff168273ffffffffffffffffffffffffffffffffffffffff161415611a21576040517f08c379a0000000000000000000000000000000000000000000000000000000008152600401611a1890615339565b60405180910390fd5b600360008373ffffffffffffffffffffffffffffffffffffffff1673ffffffffffffffffffffffffffffffffffffffff168152602001908152602001600020549050919050565b611a70610aa6565b73ffffffffffffffffffffffffffffffffffffffff16611a8e611bfd565b73ffffffffffffffffffffffffffffffffffffffff1614611ae4576040517f08c379a0000000000000000000000000000000000000000000000000000000008152600401611adb906153f9565b60405180910390fd5b611aee6000612e38565b565b60185481565b611afe610aa6565b73ffffffffffffffffffffffffffffffffffffffff16611b1c611bfd565b73ffffffffffffffffffffffffffffffffffffffff1614611b72576040517f08c379a0000000000000000000000000000000000000000000000000000000008152600401611b69906153f9565b60405180910390fd5b80601560016101000a81548160ff02191690831515021790555050565b6000600f8281548110611bcb577f4e487b7100000000000000000000000000000000000000000000000000000000600052603260045260246000fd5b9060005260206000200160009054906101000a900473ffffffffffffffffffffffffffffffffffffffff169050919050565b6000600a60009054906101000a900473ffffffffffffffffffffffffffffffffffffffff16905090565b611c2f610aa6565b73ffffffffffffffffffffffffffffffffffffffff16611c4d611bfd565b73ffffffffffffffffffffffffffffffffffffffff1614611ca3576040517f08c379a0000000000000000000000000000000000000000000000000000000008152600401611c9a906153f9565b60405180910390fd5b8060178190555050565b606060018054611cbc90615838565b80601f0160208091040260200160405190810160405280929190818152602001828054611ce890615838565b8015611d355780601f10611d0a57610100808354040283529160200191611d35565b820191906000526020600020905b815481529060010190602001808311611d1857829003601f168201915b5050505050905090565b611d47610aa6565b73ffffffffffffffffffffffffffffffffffffffff16611d65611bfd565b73ffffffffffffffffffffffffffffffffffffffff1614611dbb576040517f08c379a0000000000000000000000000000000000000000000000000000000008152600401611db2906153f9565b60405180910390fd5b818190508484905014611dcd57600080fd5b600080611dd8610ded565b905060005b86869050811015611e4657868682818110611e21577f4e487b7100000000000000000000000000000000000000000000000000000000600052603260045260246000fd5b9050602002013583611e339190615613565b925080611e3f9061586a565b9050611ddd565b506014548282611e569190615613565b1115611e97576040517f08c379a0000000000000000000000000000000000000000000000000000000008152600401611e8e906153d9565b60405180910390fd5b6000915060005b84849050811015611f895760005b878783818110611ee5577f4e487b7100000000000000000000000000000000000000000000000000000000600052603260045260246000fd5b90506020020135811015611f7757611f66868684818110611f2f577f4e487b7100000000000000000000000000000000000000000000000000000000600052603260045260246000fd5b9050602002016020810190611f449190614097565b8480611f4f9061586a565b955060405180602001604052806000815250612d57565b80611f709061586a565b9050611eac565b5080611f829061586a565b9050611e9e565b5060009050505050505050565b6000600e60008373ffffffffffffffffffffffffffffffffffffffff1673ffffffffffffffffffffffffffffffffffffffff168152602001908152602001600020549050919050565b601560009054906101000a900460ff1681565b612004611ffd610aa6565b8383612efe565b5050565b612019612013610aa6565b83612a1d565b612058576040517f08c379a000000000000000000000000000000000000000000000000000000000815260040161204f90615479565b60405180910390fd5b6120648484848461306b565b50505050565b612072610aa6565b73ffffffffffffffffffffffffffffffffffffffff16612090611bfd565b73ffffffffffffffffffffffffffffffffffffffff16146120e6576040517f08c379a00000000000000000000000000000000000000000000000000000000081526004016120dd906153f9565b60405180910390fd5b80601560006101000a81548160ff02191690831515021790555050565b606060145482111561211457600080fd5b600061211e6130c7565b9050600081511161213e5760405180602001604052806000815250612169565b8061214884613159565b60405160200161215992919061502a565b6040516020818303038152906040525b915050919050565b6000600d60008373ffffffffffffffffffffffffffffffffffffffff1673ffffffffffffffffffffffffffffffffffffffff168152602001908152602001600020549050919050565b60145481565b6000601060008373ffffffffffffffffffffffffffffffffffffffff1673ffffffffffffffffffffffffffffffffffffffff168152602001908152602001600020549050919050565b612211610aa6565b73ffffffffffffffffffffffffffffffffffffffff1661222f611bfd565b73ffffffffffffffffffffffffffffffffffffffff1614612285576040517f08c379a000000000000000000000000000000000000000000000000000000000815260040161227c906153f9565b60405180910390fd5b60005b8282905081101561233957601854601660008585858181106122d3577f4e487b7100000000000000000000000000000000000000000000000000000000600052603260045260246000fd5b90506020020160208101906122e89190614097565b73ffffffffffffffffffffffffffffffffffffffff1673ffffffffffffffffffffffffffffffffffffffff1681526020019081526020016000208190555080806123319061586a565b915050612288565b505050565b6000600c54905090565b6000600560008473ffffffffffffffffffffffffffffffffffffffff1673ffffffffffffffffffffffffffffffffffffffff16815260200190815260200160002060008373ffffffffffffffffffffffffffffffffffffffff1673ffffffffffffffffffffffffffffffffffffffff16815260200190815260200160002060009054906101000a900460ff16905092915050565b60006123e6610ded565b9050601560019054906101000a900460ff16612437576040517f08c379a000000000000000000000000000000000000000000000000000000000815260040161242e90615379565b60405180910390fd5b6000821161247a576040517f08c379a000000000000000000000000000000000000000000000000000000000815260040161247190615459565b60405180910390fd5b6018548211156124bf576040517f08c379a00000000000000000000000000000000000000000000000000000000081526004016124b6906154f9565b60405180910390fd5b60145482826124ce9190615613565b111561250f576040517f08c379a0000000000000000000000000000000000000000000000000000000008152600401612506906154f9565b60405180910390fd5b8160175461251d919061569a565b34101561255f576040517f08c379a0000000000000000000000000000000000000000000000000000000008152600401612556906151f9565b60405180910390fd5b60005b828110156125a05761258f33828461257a9190615613565b60405180602001604052806000815250612d57565b806125999061586a565b9050612562565b50600090505050565b6125b1610aa6565b73ffffffffffffffffffffffffffffffffffffffff166125cf611bfd565b73ffffffffffffffffffffffffffffffffffffffff1614612625576040517f08c379a000000000000000000000000000000000000000000000000000000000815260040161261c906153f9565b60405180910390fd5b600073ffffffffffffffffffffffffffffffffffffffff168173ffffffffffffffffffffffffffffffffffffffff161415612695576040517f08c379a000000000000000000000000000000000000000000000000000000000815260040161268c906151b9565b60405180910390fd5b61269e81612e38565b50565b601560019054906101000a900460ff1681565b60007f80ac58cd000000000000000000000000000000000000000000000000000000007bffffffffffffffffffffffffffffffffffffffffffffffffffffffff1916827bffffffffffffffffffffffffffffffffffffffffffffffffffffffff1916148061277f57507f5b5e139f000000000000000000000000000000000000000000000000000000007bffffffffffffffffffffffffffffffffffffffffffffffffffffffff1916827bffffffffffffffffffffffffffffffffffffffffffffffffffffffff1916145b8061278f575061278e82613306565b5b9050919050565b60008073ffffffffffffffffffffffffffffffffffffffff166002600084815260200190815260200160002060009054906101000a900473ffffffffffffffffffffffffffffffffffffffff1673ffffffffffffffffffffffffffffffffffffffff1614159050919050565b816004600083815260200190815260200160002060006101000a81548173ffffffffffffffffffffffffffffffffffffffff021916908373ffffffffffffffffffffffffffffffffffffffff160217905550808273ffffffffffffffffffffffffffffffffffffffff1661287583611870565b73ffffffffffffffffffffffffffffffffffffffff167f8c5be1e5ebec7d5bd14f71427d1e84f3dd0314c0f7b2291e5b200ac8c7c3b92560405160405180910390a45050565b600081600b54600d60008773ffffffffffffffffffffffffffffffffffffffff1673ffffffffffffffffffffffffffffffffffffffff168152602001908152602001600020548561290c919061569a565b6129169190615669565b61292091906156f4565b90509392505050565b8047101561296c576040517f08c379a000000000000000000000000000000000000000000000000000000000815260040161296390615299565b60405180910390fd5b60008273ffffffffffffffffffffffffffffffffffffffff16826040516129929061504e565b60006040518083038185875af1925050503d80600081146129cf576040519150601f19603f3d011682016040523d82523d6000602084013e6129d4565b606091505b5050905080612a18576040517f08c379a0000000000000000000000000000000000000000000000000000000008152600401612a0f90615279565b60405180910390fd5b505050565b6000612a2882612796565b612a67576040517f08c379a0000000000000000000000000000000000000000000000000000000008152600401612a5e906152d9565b60405180910390fd5b6000612a7283611870565b90508073ffffffffffffffffffffffffffffffffffffffff168473ffffffffffffffffffffffffffffffffffffffff161480612ae157508373ffffffffffffffffffffffffffffffffffffffff16612ac984610c50565b73ffffffffffffffffffffffffffffffffffffffff16145b80612af25750612af18185612348565b5b91505092915050565b8273ffffffffffffffffffffffffffffffffffffffff16612b1b82611870565b73ffffffffffffffffffffffffffffffffffffffff1614612b71576040517f08c379a0000000000000000000000000000000000000000000000000000000008152600401612b6890615419565b60405180910390fd5b600073ffffffffffffffffffffffffffffffffffffffff168273ffffffffffffffffffffffffffffffffffffffff161415612be1576040517f08c379a0000000000000000000000000000000000000000000000000000000008152600401612bd890615239565b60405180910390fd5b612bec838383613370565b612bf7600082612802565b6001600360008573ffffffffffffffffffffffffffffffffffffffff1673ffffffffffffffffffffffffffffffffffffffff1681526020019081526020016000206000828254612c4791906156f4565b925050819055506001600360008473ffffffffffffffffffffffffffffffffffffffff1673ffffffffffffffffffffffffffffffffffffffff1681526020019081526020016000206000828254612c9e9190615613565b92505081905550816002600083815260200190815260200160002060006101000a81548173ffffffffffffffffffffffffffffffffffffffff021916908373ffffffffffffffffffffffffffffffffffffffff160217905550808273ffffffffffffffffffffffffffffffffffffffff168473ffffffffffffffffffffffffffffffffffffffff167fddf252ad1be2c89b69c2b068fc378daa952ba7f163c4a11628f55a4df523b3ef60405160405180910390a4505050565b612d618383613484565b612d6e6000848484613652565b612dad576040517f08c379a0000000000000000000000000000000000000000000000000000000008152600401612da490615199565b60405180910390fd5b505050565b612e338363a9059cbb60e01b8484604051602401612dd19291906150f3565b604051602081830303815290604052907bffffffffffffffffffffffffffffffffffffffffffffffffffffffff19166020820180517bffffffffffffffffffffffffffffffffffffffffffffffffffffffff83818316178352505050506137e9565b505050565b6000600a60009054906101000a900473ffffffffffffffffffffffffffffffffffffffff16905081600a60006101000a81548173ffffffffffffffffffffffffffffffffffffffff021916908373ffffffffffffffffffffffffffffffffffffffff1602179055508173ffffffffffffffffffffffffffffffffffffffff168173ffffffffffffffffffffffffffffffffffffffff167f8be0079c531659141344cd1fd0a4f28419497f9722a3daafe3b4186f6b6457e060405160405180910390a35050565b8173ffffffffffffffffffffffffffffffffffffffff168373ffffffffffffffffffffffffffffffffffffffff161415612f6d576040517f08c379a0000000000000000000000000000000000000000000000000000000008152600401612f6490615259565b60405180910390fd5b80600560008573ffffffffffffffffffffffffffffffffffffffff1673ffffffffffffffffffffffffffffffffffffffff16815260200190815260200160002060008473ffffffffffffffffffffffffffffffffffffffff1673ffffffffffffffffffffffffffffffffffffffff16815260200190815260200160002060006101000a81548160ff0219169083151502179055508173ffffffffffffffffffffffffffffffffffffffff168373ffffffffffffffffffffffffffffffffffffffff167f17307eab39ab6107e8899845ad3d59bd9653f200f220920489ca2b5937696c318360405161305e919061511c565b60405180910390a3505050565b613076848484612afb565b61308284848484613652565b6130c1576040517f08c379a00000000000000000000000000000000000000000000000000000000081526004016130b890615199565b60405180910390fd5b50505050565b6060601380546130d690615838565b80601f016020809104026020016040519081016040528092919081815260200182805461310290615838565b801561314f5780601f106131245761010080835404028352916020019161314f565b820191906000526020600020905b81548152906001019060200180831161313257829003601f168201915b5050505050905090565b606060008214156131a1576040518060400160405280600181526020017f30000000000000000000000000000000000000000000000000000000000000008152509050613301565b600082905060005b600082146131d35780806131bc9061586a565b915050600a826131cc9190615669565b91506131a9565b60008167ffffffffffffffff811115613215577f4e487b7100000000000000000000000000000000000000000000000000000000600052604160045260246000fd5b6040519080825280601f01601f1916602001820160405280156132475781602001600182028036833780820191505090505b5090505b600085146132fa5760018261326091906156f4565b9150600a8561326f91906158b3565b603061327b9190615613565b60f81b8183815181106132b7577f4e487b7100000000000000000000000000000000000000000000000000000000600052603260045260246000fd5b60200101907effffffffffffffffffffffffffffffffffffffffffffffffffffffffffffff1916908160001a905350600a856132f39190615669565b945061324b565b8093505050505b919050565b60007f01ffc9a7000000000000000000000000000000000000000000000000000000007bffffffffffffffffffffffffffffffffffffffffffffffffffffffff1916827bffffffffffffffffffffffffffffffffffffffffffffffffffffffff1916149050919050565b61337b8383836138b0565b600073ffffffffffffffffffffffffffffffffffffffff168373ffffffffffffffffffffffffffffffffffffffff1614156133be576133b9816138b5565b6133fd565b8173ffffffffffffffffffffffffffffffffffffffff168373ffffffffffffffffffffffffffffffffffffffff16146133fc576133fb83826138fe565b5b5b600073ffffffffffffffffffffffffffffffffffffffff168273ffffffffffffffffffffffffffffffffffffffff1614156134405761343b81613a6b565b61347f565b8273ffffffffffffffffffffffffffffffffffffffff168273ffffffffffffffffffffffffffffffffffffffff161461347e5761347d8282613bae565b5b5b505050565b600073ffffffffffffffffffffffffffffffffffffffff168273ffffffffffffffffffffffffffffffffffffffff1614156134f4576040517f08c379a00000000000000000000000000000000000000000000000000000000081526004016134eb90615399565b60405180910390fd5b6134fd81612796565b1561353d576040517f08c379a0000000000000000000000000000000000000000000000000000000008152600401613534906151d9565b60405180910390fd5b61354960008383613370565b6001600360008473ffffffffffffffffffffffffffffffffffffffff1673ffffffffffffffffffffffffffffffffffffffff16815260200190815260200160002060008282546135999190615613565b92505081905550816002600083815260200190815260200160002060006101000a81548173ffffffffffffffffffffffffffffffffffffffff021916908373ffffffffffffffffffffffffffffffffffffffff160217905550808273ffffffffffffffffffffffffffffffffffffffff16600073ffffffffffffffffffffffffffffffffffffffff167fddf252ad1be2c89b69c2b068fc378daa952ba7f163c4a11628f55a4df523b3ef60405160405180910390a45050565b60006136738473ffffffffffffffffffffffffffffffffffffffff16613c2d565b156137dc578373ffffffffffffffffffffffffffffffffffffffff1663150b7a0261369c610aa6565b8786866040518563ffffffff1660e01b81526004016136be94939291906150a7565b602060405180830381600087803b1580156136d857600080fd5b505af192505050801561370957506040513d601f19601f82011682018060405250810190613706919061439c565b60015b61378c573d8060008114613739576040519150601f19603f3d011682016040523d82523d6000602084013e61373e565b606091505b50600081511415613784576040517f08c379a000000000000000000000000000000000000000000000000000000000815260040161377b90615199565b60405180910390fd5b805181602001fd5b63150b7a0260e01b7bffffffffffffffffffffffffffffffffffffffffffffffffffffffff1916817bffffffffffffffffffffffffffffffffffffffffffffffffffffffff1916149150506137e1565b600190505b949350505050565b600061384b826040518060400160405280602081526020017f5361666545524332303a206c6f772d6c6576656c2063616c6c206661696c65648152508573ffffffffffffffffffffffffffffffffffffffff16613c409092919063ffffffff16565b90506000815111156138ab578080602001905181019061386b919061434a565b6138aa576040517f08c379a00000000000000000000000000000000000000000000000000000000081526004016138a1906154d9565b60405180910390fd5b5b505050565b505050565b6008805490506009600083815260200190815260200160002081905550600881908060018154018082558091505060019003906000526020600020016000909190919091505550565b6000600161390b846119b0565b61391591906156f4565b90506000600760008481526020019081526020016000205490508181146139fa576000600660008673ffffffffffffffffffffffffffffffffffffffff1673ffffffffffffffffffffffffffffffffffffffff168152602001908152602001600020600084815260200190815260200160002054905080600660008773ffffffffffffffffffffffffffffffffffffffff1673ffffffffffffffffffffffffffffffffffffffff168152602001908152602001600020600084815260200190815260200160002081905550816007600083815260200190815260200160002081905550505b6007600084815260200190815260200160002060009055600660008573ffffffffffffffffffffffffffffffffffffffff1673ffffffffffffffffffffffffffffffffffffffff16815260200190815260200160002060008381526020019081526020016000206000905550505050565b60006001600880549050613a7f91906156f4565b9050600060096000848152602001908152602001600020549050600060088381548110613ad5577f4e487b7100000000000000000000000000000000000000000000000000000000600052603260045260246000fd5b906000526020600020015490508060088381548110613b1d577f4e487b7100000000000000000000000000000000000000000000000000000000600052603260045260246000fd5b906000526020600020018190555081600960008381526020019081526020016000208190555060096000858152602001908152602001600020600090556008805480613b92577f4e487b7100000000000000000000000000000000000000000000000000000000600052603160045260246000fd5b6001900381819060005260206000200160009055905550505050565b6000613bb9836119b0565b905081600660008573ffffffffffffffffffffffffffffffffffffffff1673ffffffffffffffffffffffffffffffffffffffff168152602001908152602001600020600083815260200190815260200160002081905550806007600084815260200190815260200160002081905550505050565b600080823b905060008111915050919050565b6060613c4f8484600085613c58565b90509392505050565b606082471015613c9d576040517f08c379a0000000000000000000000000000000000000000000000000000000008152600401613c94906152b9565b60405180910390fd5b613ca685613c2d565b613ce5576040517f08c379a0000000000000000000000000000000000000000000000000000000008152600401613cdc90615499565b60405180910390fd5b6000808673ffffffffffffffffffffffffffffffffffffffff168587604051613d0e9190615013565b60006040518083038185875af1925050503d8060008114613d4b576040519150601f19603f3d011682016040523d82523d6000602084013e613d50565b606091505b5091509150613d60828286613d6c565b92505050949350505050565b60608315613d7c57829050613dcc565b600083511115613d8f5782518084602001fd5b816040517f08c379a0000000000000000000000000000000000000000000000000000000008152600401613dc39190615137565b60405180910390fd5b9392505050565b828054613ddf90615838565b90600052602060002090601f016020900481019282613e015760008555613e48565b82601f10613e1a57805160ff1916838001178555613e48565b82800160010185558215613e48579182015b82811115613e47578251825591602001919060010190613e2c565b5b509050613e559190613e59565b5090565b5b80821115613e72576000816000905550600101613e5a565b5090565b6000613e89613e8484615565565b615534565b905082815260208101848484011115613ea157600080fd5b613eac8482856157f6565b509392505050565b6000613ec7613ec284615595565b615534565b905082815260208101848484011115613edf57600080fd5b613eea8482856157f6565b509392505050565b600081359050613f01816159b1565b92915050565b600081359050613f16816159c8565b92915050565b60008083601f840112613f2e57600080fd5b8235905067ffffffffffffffff811115613f4757600080fd5b602083019150836020820283011115613f5f57600080fd5b9250929050565b60008083601f840112613f7857600080fd5b8235905067ffffffffffffffff811115613f9157600080fd5b602083019150836020820283011115613fa957600080fd5b9250929050565b600081359050613fbf816159df565b92915050565b600081519050613fd4816159df565b92915050565b600081359050613fe9816159f6565b92915050565b600081519050613ffe816159f6565b92915050565b600082601f83011261401557600080fd5b8135614025848260208601613e76565b91505092915050565b60008135905061403d81615a0d565b92915050565b600082601f83011261405457600080fd5b8135614064848260208601613eb4565b91505092915050565b60008135905061407c81615a24565b92915050565b60008151905061409181615a24565b92915050565b6000602082840312156140a957600080fd5b60006140b784828501613ef2565b91505092915050565b6000602082840312156140d257600080fd5b60006140e084828501613f07565b91505092915050565b600080604083850312156140fc57600080fd5b600061410a85828601613ef2565b925050602061411b85828601613ef2565b9150509250929050565b60008060006060848603121561413a57600080fd5b600061414886828701613ef2565b935050602061415986828701613ef2565b925050604061416a8682870161406d565b9150509250925092565b6000806000806080858703121561418a57600080fd5b600061419887828801613ef2565b94505060206141a987828801613ef2565b93505060406141ba8782880161406d565b925050606085013567ffffffffffffffff8111156141d757600080fd5b6141e387828801614004565b91505092959194509250565b6000806040838503121561420257600080fd5b600061421085828601613ef2565b925050602061422185828601613fb0565b9150509250929050565b6000806040838503121561423e57600080fd5b600061424c85828601613ef2565b925050602061425d8582860161406d565b9150509250929050565b6000806020838503121561427a57600080fd5b600083013567ffffffffffffffff81111561429457600080fd5b6142a085828601613f1c565b92509250509250929050565b600080600080604085870312156142c257600080fd5b600085013567ffffffffffffffff8111156142dc57600080fd5b6142e887828801613f66565b9450945050602085013567ffffffffffffffff81111561430757600080fd5b61431387828801613f1c565b925092505092959194509250565b60006020828403121561433357600080fd5b600061434184828501613fb0565b91505092915050565b60006020828403121561435c57600080fd5b600061436a84828501613fc5565b91505092915050565b60006020828403121561438557600080fd5b600061439384828501613fda565b91505092915050565b6000602082840312156143ae57600080fd5b60006143bc84828501613fef565b91505092915050565b6000602082840312156143d757600080fd5b60006143e58482850161402e565b91505092915050565b6000806040838503121561440157600080fd5b600061440f8582860161402e565b925050602061442085828601613ef2565b9150509250929050565b60006020828403121561443c57600080fd5b600082013567ffffffffffffffff81111561445657600080fd5b61446284828501614043565b91505092915050565b60006020828403121561447d57600080fd5b600061448b8482850161406d565b91505092915050565b6000602082840312156144a657600080fd5b60006144b484828501614082565b91505092915050565b6144c6816157c0565b82525050565b6144d581615728565b82525050565b6144e48161574c565b82525050565b60006144f5826155c5565b6144ff81856155db565b935061450f818560208601615805565b614518816159a0565b840191505092915050565b600061452e826155c5565b61453881856155ec565b9350614548818560208601615805565b80840191505092915050565b600061455f826155d0565b61456981856155f7565b9350614579818560208601615805565b614582816159a0565b840191505092915050565b6000614598826155d0565b6145a28185615608565b93506145b2818560208601615805565b80840191505092915050565b60006145cb6017836155f7565b91507f57686974656c697374206973206e6f74206163746976650000000000000000006000830152602082019050919050565b600061460b602b836155f7565b91507f455243373231456e756d657261626c653a206f776e657220696e646578206f7560008301527f74206f6620626f756e64730000000000000000000000000000000000000000006020830152604082019050919050565b60006146716032836155f7565b91507f4552433732313a207472616e7366657220746f206e6f6e20455243373231526560008301527f63656976657220696d706c656d656e74657200000000000000000000000000006020830152604082019050919050565b60006146d76026836155f7565b91507f4f776e61626c653a206e6577206f776e657220697320746865207a65726f206160008301527f64647265737300000000000000000000000000000000000000000000000000006020830152604082019050919050565b600061473d601c836155f7565b91507f4552433732313a20746f6b656e20616c7265616479206d696e746564000000006000830152602082019050919050565b600061477d6012836155f7565b91507f45544820696e7075742069732077726f6e6700000000000000000000000000006000830152602082019050919050565b60006147bd6026836155f7565b91507f5061796d656e7453706c69747465723a206163636f756e7420686173206e6f2060008301527f73686172657300000000000000000000000000000000000000000000000000006020830152604082019050919050565b60006148236024836155f7565b91507f4552433732313a207472616e7366657220746f20746865207a65726f2061646460008301527f72657373000000000000000000000000000000000000000000000000000000006020830152604082019050919050565b60006148896019836155f7565b91507f4552433732313a20617070726f766520746f2063616c6c6572000000000000006000830152602082019050919050565b60006148c9603a836155f7565b91507f416464726573733a20756e61626c6520746f2073656e642076616c75652c207260008301527f6563697069656e74206d617920686176652072657665727465640000000000006020830152604082019050919050565b600061492f601d836155f7565b91507f416464726573733a20696e73756666696369656e742062616c616e63650000006000830152602082019050919050565b600061496f6026836155f7565b91507f416464726573733a20696e73756666696369656e742062616c616e636520666f60008301527f722063616c6c00000000000000000000000000000000000000000000000000006020830152604082019050919050565b60006149d5602c836155f7565b91507f4552433732313a206f70657261746f7220717565727920666f72206e6f6e657860008301527f697374656e7420746f6b656e00000000000000000000000000000000000000006020830152604082019050919050565b6000614a3b602b836155f7565b91507f5061796d656e7453706c69747465723a206163636f756e74206973206e6f742060008301527f647565207061796d656e740000000000000000000000000000000000000000006020830152604082019050919050565b6000614aa16038836155f7565b91507f4552433732313a20617070726f76652063616c6c6572206973206e6f74206f7760008301527f6e6572206e6f7220617070726f76656420666f7220616c6c00000000000000006020830152604082019050919050565b6000614b07602a836155f7565b91507f4552433732313a2062616c616e636520717565727920666f7220746865207a6560008301527f726f2061646472657373000000000000000000000000000000000000000000006020830152604082019050919050565b6000614b6d6029836155f7565b91507f4552433732313a206f776e657220717565727920666f72206e6f6e657869737460008301527f656e7420746f6b656e00000000000000000000000000000000000000000000006020830152604082019050919050565b6000614bd36019836155f7565b91507f5075626c69632073616c65206973206e6f7420616374697665000000000000006000830152602082019050919050565b6000614c136020836155f7565b91507f4552433732313a206d696e7420746f20746865207a65726f20616464726573736000830152602082019050919050565b6000614c53602c836155f7565b91507f4552433732313a20617070726f76656420717565727920666f72206e6f6e657860008301527f697374656e7420746f6b656e00000000000000000000000000000000000000006020830152604082019050919050565b6000614cb96008836155f7565b91507f546f6f206d616e790000000000000000000000000000000000000000000000006000830152602082019050919050565b6000614cf96020836155f7565b91507f4f776e61626c653a2063616c6c6572206973206e6f7420746865206f776e65726000830152602082019050919050565b6000614d396029836155f7565b91507f4552433732313a207472616e73666572206f6620746f6b656e2074686174206960008301527f73206e6f74206f776e00000000000000000000000000000000000000000000006020830152604082019050919050565b6000614d9f6021836155f7565b91507f4552433732313a20617070726f76616c20746f2063757272656e74206f776e6560008301527f72000000000000000000000000000000000000000000000000000000000000006020830152604082019050919050565b6000614e056010836155f7565b91507f4d696e74206d6f7265207468616e2030000000000000000000000000000000006000830152602082019050919050565b6000614e456000836155ec565b9150600082019050919050565b6000614e5f6031836155f7565b91507f4552433732313a207472616e736665722063616c6c6572206973206e6f74206f60008301527f776e6572206e6f7220617070726f7665640000000000000000000000000000006020830152604082019050919050565b6000614ec5601d836155f7565b91507f416464726573733a2063616c6c20746f206e6f6e2d636f6e74726163740000006000830152602082019050919050565b6000614f05602c836155f7565b91507f455243373231456e756d657261626c653a20676c6f62616c20696e646578206f60008301527f7574206f6620626f756e647300000000000000000000000000000000000000006020830152604082019050919050565b6000614f6b602a836155f7565b91507f5361666545524332303a204552433230206f7065726174696f6e20646964206e60008301527f6f742073756363656564000000000000000000000000000000000000000000006020830152604082019050919050565b6000614fd16009836155f7565b91507f4d696e74206c65737300000000000000000000000000000000000000000000006000830152602082019050919050565b61500d816157b6565b82525050565b600061501f8284614523565b915081905092915050565b6000615036828561458d565b9150615042828461458d565b91508190509392505050565b600061505982614e38565b9150819050919050565b600060208201905061507860008301846144cc565b92915050565b600060408201905061509360008301856144bd565b6150a06020830184615004565b9392505050565b60006080820190506150bc60008301876144cc565b6150c960208301866144cc565b6150d66040830185615004565b81810360608301526150e881846144ea565b905095945050505050565b600060408201905061510860008301856144cc565b6151156020830184615004565b9392505050565b600060208201905061513160008301846144db565b92915050565b600060208201905081810360008301526151518184614554565b905092915050565b60006020820190508181036000830152615172816145be565b9050919050565b60006020820190508181036000830152615192816145fe565b9050919050565b600060208201905081810360008301526151b281614664565b9050919050565b600060208201905081810360008301526151d2816146ca565b9050919050565b600060208201905081810360008301526151f281614730565b9050919050565b6000602082019050818103600083015261521281614770565b9050919050565b60006020820190508181036000830152615232816147b0565b9050919050565b6000602082019050818103600083015261525281614816565b9050919050565b600060208201905081810360008301526152728161487c565b9050919050565b60006020820190508181036000830152615292816148bc565b9050919050565b600060208201905081810360008301526152b281614922565b9050919050565b600060208201905081810360008301526152d281614962565b9050919050565b600060208201905081810360008301526152f2816149c8565b9050919050565b6000602082019050818103600083015261531281614a2e565b9050919050565b6000602082019050818103600083015261533281614a94565b9050919050565b6000602082019050818103600083015261535281614afa565b9050919050565b6000602082019050818103600083015261537281614b60565b9050919050565b6000602082019050818103600083015261539281614bc6565b9050919050565b600060208201905081810360008301526153b281614c06565b9050919050565b600060208201905081810360008301526153d281614c46565b9050919050565b600060208201905081810360008301526153f281614cac565b9050919050565b6000602082019050818103600083015261541281614cec565b9050919050565b6000602082019050818103600083015261543281614d2c565b9050919050565b6000602082019050818103600083015261545281614d92565b9050919050565b6000602082019050818103600083015261547281614df8565b9050919050565b6000602082019050818103600083015261549281614e52565b9050919050565b600060208201905081810360008301526154b281614eb8565b9050919050565b600060208201905081810360008301526154d281614ef8565b9050919050565b600060208201905081810360008301526154f281614f5e565b9050919050565b6000602082019050818103600083015261551281614fc4565b9050919050565b600060208201905061552e6000830184615004565b92915050565b6000604051905081810181811067ffffffffffffffff8211171561555b5761555a615971565b5b8060405250919050565b600067ffffffffffffffff8211156155805761557f615971565b5b601f19601f8301169050602081019050919050565b600067ffffffffffffffff8211156155b0576155af615971565b5b601f19601f8301169050602081019050919050565b600081519050919050565b600081519050919050565b600082825260208201905092915050565b600081905092915050565b600082825260208201905092915050565b600081905092915050565b600061561e826157b6565b9150615629836157b6565b9250827fffffffffffffffffffffffffffffffffffffffffffffffffffffffffffffffff0382111561565e5761565d6158e4565b5b828201905092915050565b6000615674826157b6565b915061567f836157b6565b92508261568f5761568e615913565b5b828204905092915050565b60006156a5826157b6565b91506156b0836157b6565b9250817fffffffffffffffffffffffffffffffffffffffffffffffffffffffffffffffff04831182151516156156e9576156e86158e4565b5b828202905092915050565b60006156ff826157b6565b915061570a836157b6565b92508282101561571d5761571c6158e4565b5b828203905092915050565b600061573382615796565b9050919050565b600061574582615796565b9050919050565b60008115159050919050565b60007fffffffff0000000000000000000000000000000000000000000000000000000082169050919050565b600061578f82615728565b9050919050565b600073ffffffffffffffffffffffffffffffffffffffff82169050919050565b6000819050919050565b60006157cb826157d2565b9050919050565b60006157dd826157e4565b9050919050565b60006157ef82615796565b9050919050565b82818337600083830152505050565b60005b83811015615823578082015181840152602081019050615808565b83811115615832576000848401525b50505050565b6000600282049050600182168061585057607f821691505b6020821081141561586457615863615942565b5b50919050565b6000615875826157b6565b91507fffffffffffffffffffffffffffffffffffffffffffffffffffffffffffffffff8214156158a8576158a76158e4565b5b600182019050919050565b60006158be826157b6565b91506158c9836157b6565b9250826158d9576158d8615913565b5b828206905092915050565b7f4e487b7100000000000000000000000000000000000000000000000000000000600052601160045260246000fd5b7f4e487b7100000000000000000000000000000000000000000000000000000000600052601260045260246000fd5b7f4e487b7100000000000000000000000000000000000000000000000000000000600052602260045260246000fd5b7f4e487b7100000000000000000000000000000000000000000000000000000000600052604160045260246000fd5b6000601f19601f8301169050919050565b6159ba81615728565b81146159c557600080fd5b50565b6159d18161573a565b81146159dc57600080fd5b50565b6159e88161574c565b81146159f357600080fd5b50565b6159ff81615758565b8114615a0a57600080fd5b50565b615a1681615784565b8114615a2157600080fd5b50565b615a2d816157b6565b8114615a3857600080fd5b5056fea26469706673582212206351f9c6ed369b95118d8e2280f4cf491eb74084fded4360489c6b24d4d628a264736f6c63430008000033",
  "linkReferences": {},
  "deployedLinkReferences": {}
}